{
  "abi": [
    {
      "inputs": [
        {
          "internalType": "address",
          "name": "_factory",
          "type": "address"
        },
        {
          "internalType": "address",
          "name": "_uniFactory",
          "type": "address"
        },
        {
          "internalType": "address",
          "name": "_weth",
          "type": "address"
        }
      ],
      "stateMutability": "nonpayable",
      "type": "constructor"
    },
    {
      "inputs": [],
      "name": "FailedTransfer",
      "type": "error"
    },
    {
      "inputs": [],
      "name": "FailedTransferETH",
      "type": "error"
    },
    {
      "inputs": [],
      "name": "FailedTransferFrom",
      "type": "error"
    },
    {
      "inputs": [],
      "name": "LivelinessError",
      "type": "error"
    },
    {
      "inputs": [
        {
          "internalType": "uint256",
          "name": "prod1",
          "type": "uint256"
        }
      ],
      "name": "PRBMath__MulDivFixedPointOverflow",
      "type": "error"
    },
    {
      "inputs": [
        {
          "internalType": "uint256",
          "name": "prod1",
          "type": "uint256"
        },
        {
          "internalType": "uint256",
          "name": "denominator",
          "type": "uint256"
        }
      ],
      "name": "PRBMath__MulDivOverflow",
      "type": "error"
    },
    {
      "inputs": [],
      "name": "SlippageError",
      "type": "error"
    },
    {
      "inputs": [],
      "name": "UnauthorizedError",
      "type": "error"
    },
    {
      "inputs": [],
      "name": "VerifyError",
      "type": "error"
    },
    {
      "anonymous": false,
      "inputs": [
        {
          "indexed": true,
          "internalType": "address",
          "name": "payer",
          "type": "address"
        },
        {
          "indexed": true,
          "internalType": "address",
          "name": "lendgine",
          "type": "address"
        },
        {
          "indexed": false,
          "internalType": "uint256",
          "name": "shares",
          "type": "uint256"
        },
        {
          "indexed": false,
          "internalType": "uint256",
          "name": "liquidity",
          "type": "uint256"
        }
      ],
      "name": "Burn",
      "type": "event"
    },
    {
      "anonymous": false,
      "inputs": [
        {
          "indexed": true,
          "internalType": "address",
          "name": "recipient",
          "type": "address"
        },
        {
          "indexed": true,
          "internalType": "address",
          "name": "lendgine",
          "type": "address"
        },
        {
          "indexed": false,
          "internalType": "uint256",
          "name": "shares",
          "type": "uint256"
        },
        {
          "indexed": false,
          "internalType": "uint256",
          "name": "liquidity",
          "type": "uint256"
        }
      ],
      "name": "Mint",
      "type": "event"
    },
    {
      "inputs": [
        {
          "internalType": "uint256",
          "name": "amountS",
          "type": "uint256"
        },
        {
          "internalType": "bytes",
          "name": "data",
          "type": "bytes"
        }
      ],
      "name": "MintCallback",
      "outputs": [],
      "stateMutability": "nonpayable",
      "type": "function"
    },
    {
      "inputs": [],
      "name": "WETH9",
      "outputs": [
        {
          "internalType": "address",
          "name": "",
          "type": "address"
        }
      ],
      "stateMutability": "view",
      "type": "function"
    },
    {
      "inputs": [
        {
          "components": [
            {
              "internalType": "address",
              "name": "base",
              "type": "address"
            },
            {
              "internalType": "address",
              "name": "speculative",
              "type": "address"
            },
            {
              "internalType": "uint256",
              "name": "baseScaleFactor",
              "type": "uint256"
            },
            {
              "internalType": "uint256",
              "name": "speculativeScaleFactor",
              "type": "uint256"
            },
            {
              "internalType": "uint256",
              "name": "upperBound",
              "type": "uint256"
            },
            {
              "internalType": "uint256",
              "name": "sharesMax",
              "type": "uint256"
            },
            {
              "internalType": "uint256",
              "name": "liquidity",
              "type": "uint256"
            },
            {
              "internalType": "address",
              "name": "recipient",
              "type": "address"
            },
            {
              "internalType": "uint256",
              "name": "deadline",
              "type": "uint256"
            }
          ],
          "internalType": "struct LendgineRouter.BurnParams",
          "name": "params",
          "type": "tuple"
        }
      ],
      "name": "burn",
      "outputs": [
        {
          "internalType": "address",
          "name": "lendgine",
          "type": "address"
        }
      ],
      "stateMutability": "payable",
      "type": "function"
    },
    {
      "inputs": [],
      "name": "factory",
      "outputs": [
        {
          "internalType": "address",
          "name": "",
          "type": "address"
        }
      ],
      "stateMutability": "view",
      "type": "function"
    },
    {
      "inputs": [
        {
          "components": [
            {
              "internalType": "address",
              "name": "base",
              "type": "address"
            },
            {
              "internalType": "address",
              "name": "speculative",
              "type": "address"
            },
            {
              "internalType": "uint256",
              "name": "baseScaleFactor",
              "type": "uint256"
            },
            {
              "internalType": "uint256",
              "name": "speculativeScaleFactor",
              "type": "uint256"
            },
            {
              "internalType": "uint256",
              "name": "upperBound",
              "type": "uint256"
            },
            {
              "internalType": "uint256",
              "name": "liquidity",
              "type": "uint256"
            },
            {
              "internalType": "uint256",
              "name": "borrowAmount",
              "type": "uint256"
            },
            {
              "internalType": "uint256",
              "name": "sharesMin",
              "type": "uint256"
            },
            {
              "internalType": "address",
              "name": "recipient",
              "type": "address"
            },
            {
              "internalType": "uint256",
              "name": "deadline",
              "type": "uint256"
            }
          ],
          "internalType": "struct LendgineRouter.MintParams",
          "name": "params",
          "type": "tuple"
        }
      ],
      "name": "mint",
      "outputs": [
        {
          "internalType": "address",
          "name": "lendgine",
          "type": "address"
        },
        {
          "internalType": "uint256",
          "name": "shares",
          "type": "uint256"
        }
      ],
      "stateMutability": "payable",
      "type": "function"
    },
    {
      "inputs": [
        {
          "internalType": "bytes[]",
          "name": "data",
          "type": "bytes[]"
        }
      ],
      "name": "multicall",
      "outputs": [
        {
          "internalType": "bytes[]",
          "name": "results",
          "type": "bytes[]"
        }
      ],
      "stateMutability": "payable",
      "type": "function"
    },
    {
      "inputs": [],
      "name": "refundETH",
      "outputs": [],
      "stateMutability": "payable",
      "type": "function"
    },
    {
      "inputs": [
        {
          "components": [
            {
              "internalType": "address",
              "name": "base",
              "type": "address"
            },
            {
              "internalType": "address",
              "name": "speculative",
              "type": "address"
            },
            {
              "internalType": "uint256",
              "name": "baseScaleFactor",
              "type": "uint256"
            },
            {
              "internalType": "uint256",
              "name": "speculativeScaleFactor",
              "type": "uint256"
            },
            {
              "internalType": "uint256",
              "name": "upperBound",
              "type": "uint256"
            },
            {
              "internalType": "address",
              "name": "recipient",
              "type": "address"
            }
          ],
          "internalType": "struct LendgineRouter.SkimParams",
          "name": "params",
          "type": "tuple"
        }
      ],
      "name": "skim",
      "outputs": [],
      "stateMutability": "payable",
      "type": "function"
    },
    {
      "inputs": [
        {
          "internalType": "address",
          "name": "token",
          "type": "address"
        },
        {
          "internalType": "uint256",
          "name": "amountMinimum",
          "type": "uint256"
        },
        {
          "internalType": "address",
          "name": "recipient",
          "type": "address"
        }
      ],
      "name": "sweepToken",
      "outputs": [],
      "stateMutability": "payable",
      "type": "function"
    },
    {
      "inputs": [],
      "name": "uniFactory",
      "outputs": [
        {
          "internalType": "address",
          "name": "",
          "type": "address"
        }
      ],
      "stateMutability": "view",
      "type": "function"
    },
    {
      "inputs": [
        {
          "internalType": "address",
          "name": "",
          "type": "address"
        },
        {
          "internalType": "uint256",
          "name": "amount0",
          "type": "uint256"
        },
        {
          "internalType": "uint256",
          "name": "amount1",
          "type": "uint256"
        },
        {
          "internalType": "bytes",
          "name": "data",
          "type": "bytes"
        }
      ],
      "name": "uniswapV2Call",
      "outputs": [],
      "stateMutability": "nonpayable",
      "type": "function"
    },
    {
      "inputs": [
        {
          "internalType": "uint256",
          "name": "amountMinimum",
          "type": "uint256"
        },
        {
          "internalType": "address",
          "name": "recipient",
          "type": "address"
        }
      ],
      "name": "unwrapWETH9",
      "outputs": [],
      "stateMutability": "payable",
      "type": "function"
    },
    {
      "stateMutability": "payable",
      "type": "receive"
    }
  ],
  "bytecode": {
    "object": "0x60e06040523480156200001157600080fd5b5060405162002ee238038062002ee283398101604081905262000034916200006f565b6001600160a01b0390811660805291821660a0521660c052620000b9565b80516001600160a01b03811681146200006a57600080fd5b919050565b6000806000606084860312156200008557600080fd5b620000908462000052565b9250620000a06020850162000052565b9150620000b06040850162000052565b90509250925092565b60805160a05160c051612d9f620001436000396000818161025d0152818161042101526111fc0152600081816102c4015281816103bd0152818161075801528181610eaf01528181610f08015261186c01526000818160da0152818161021101528181610ce101528181610df501528181611daf01528181611df50152611ea30152612d9f6000f3fe6080604052600436106100ca5760003560e01c806376771d4b11610074578063c45a01551161004e578063c45a0155146102b2578063cd321b40146102e6578063df2ab5bb146102f957600080fd5b806376771d4b1461024b578063a85d52251461027f578063ac9650d81461029257600080fd5b806312210e8a116100a557806312210e8a146101e457806349404b7c146101ec5780634aa4a4fc146101ff57600080fd5b8062ee087a1461016d578063019e868b146101a457806310d1e85c146101c457600080fd5b3661016857336001600160a01b037f00000000000000000000000000000000000000000000000000000000000000001614610166576040517f08c379a000000000000000000000000000000000000000000000000000000000815260206004820152600960248201527f4e6f74205745544839000000000000000000000000000000000000000000000060448201526064015b60405180910390fd5b005b600080fd5b61018061017b36600461243d565b61030c565b604080516001600160a01b0390931683526020830191909152015b60405180910390f35b3480156101b057600080fd5b506101666101bf366004612499565b610743565b3480156101d057600080fd5b506101666101df36600461250d565b610abd565b610166610c9e565b6101666101fa366004612577565b610cb0565b34801561020b57600080fd5b506102337f000000000000000000000000000000000000000000000000000000000000000081565b6040516001600160a01b03909116815260200161019b565b34801561025757600080fd5b506102337f000000000000000000000000000000000000000000000000000000000000000081565b61023361028d3660046125a7565b610e68565b6102a56102a03660046125ba565b6116f3565b60405161019b919061269d565b3480156102be57600080fd5b506102337f000000000000000000000000000000000000000000000000000000000000000081565b6101666102f436600461271d565b611865565b61016661030736600461272f565b61196a565b6000808261012001354281101561034f576040517f0756982f00000000000000000000000000000000000000000000000000000000815260040160405180910390fd5b6040805160a081019091526000908061036b6020880188612771565b6001600160a01b0316815260200186602001602081019061038c9190612771565b6001600160a01b031681526020018660400135815260200186606001358152602001866080013581525090506104137f00000000000000000000000000000000000000000000000000000000000000008660000160208101906103ef9190612771565b6103ff6040890160208a01612771565b886040013589606001358a60800135611a71565b935060006001600160a01b037f00000000000000000000000000000000000000000000000000000000000000001663e6a439056104536020890189612771565b61046360408a0160208b01612771565b6040517fffffffff0000000000000000000000000000000000000000000000000000000060e085901b1681526001600160a01b03928316600482015291166024820152604401602060405180830381865afa1580156104c6573d6000803e3d6000fd5b505050506040513d601f19601f820116820180604052508101906104ea919061278e565b6040517f12fb162d00000000000000000000000000000000000000000000000000000000815260a088013560048201529091506000906001600160a01b038716906312fb162d90602401602060405180830381865afa158015610551573d6000803e3d6000fd5b505050506040513d601f19601f8201168201806040525081019061057591906127ab565b90506001600160a01b0386166394d008ef6105986101208a016101008b01612771565b6105a660c08b0135856127f3565b60408051608080820183528982526001600160a01b03808a1660208085019182528486018b815233606096870190815287518f51861681850152928f0151851683890152968e015182870152948d015181850152928c015160a084015251811660c0830152915160e0820152915116610100820152610120016040516020818303038152906040526040518463ffffffff1660e01b815260040161064c93929190612806565b6020604051808303816000875af115801561066b573d6000803e3d6000fd5b505050506040513d601f19601f8201168201806040525081019061068f91906127ab565b94508660e001358510156106cf576040517f1a840b4200000000000000000000000000000000000000000000000000000000815260040160405180910390fd5b6001600160a01b0386166106eb61012089016101008a01612771565b6001600160a01b03167f2f00e3cdd69a77be7ed215ec7b2a36784dd158f921fca79ac29deffa353fe6ee878a60a00135604051610732929190918252602082015260400190565b60405180910390a350505050915091565b6000610751828401846128b2565b90506107817f00000000000000000000000000000000000000000000000000000000000000008260000151611bb3565b506040517f9ff47dc3000000000000000000000000000000000000000000000000000000008152600481018590526000903390639ff47dc390602401602060405180830381865afa1580156107da573d6000803e3d6000fd5b505050506040513d601f19601f820116820180604052508101906107fe91906127ab565b9050600080336001600160a01b031663a8aa1b316040518163ffffffff1660e01b8152600401602060405180830381865afa158015610841573d6000803e3d6000fd5b505050506040513d601f19601f82011682018060405250810190610865919061278e565b6040517f9dc29fac000000000000000000000000000000000000000000000000000000008152306004820152602481018590526001600160a01b039190911690639dc29fac9060440160408051808303816000875af11580156108cc573d6000803e3d6000fd5b505050506040513d601f19601f820116820180604052508101906108f0919061295d565b85515160208701519294509092506109089184611c21565b600061093d8386602001518760000151602001516001600160a01b03168860000151600001516001600160a01b031610611cab565b905084602001516001600160a01b031663022c0d9f8660000151602001516001600160a01b03168760000151600001516001600160a01b0316106109815782610984565b60005b8751602081015190516001600160a01b039182169116106109a65760006109a8565b835b604080516020810182526000815290517fffffffff0000000000000000000000000000000000000000000000000000000060e086901b1681526109f19392913391600401612981565b600060405180830381600087803b158015610a0b57600080fd5b505af1158015610a1f573d6000803e3d6000fd5b50505050610a368560000151602001513384611c21565b604085015182610a46838b6129b9565b610a5091906129b9565b1115610a88576040517f1a840b4200000000000000000000000000000000000000000000000000000000815260040160405180910390fd5b8451602001516060860151610ab391903385610aa4868e6129b9565b610aae91906129b9565b611dad565b5050505050505050565b6000610acb828401846129cc565b9050610b088160600151826020015183604001516001600160a01b031684606001516001600160a01b031610610b015786611c21565b875b611c21565b610b428160400151826020015183604001516001600160a01b031684606001516001600160a01b031610610b3c5787611c21565b86611c21565b602081015160808201516040517fa0712d680000000000000000000000000000000000000000000000000000000081526001600160a01b039092169163a0712d6891610b949160040190815260200190565b600060405180830381600087803b158015610bae57600080fd5b505af1158015610bc2573d6000803e3d6000fd5b505082516040517f89afcb44000000000000000000000000000000000000000000000000000000008152306004820152600093506001600160a01b0390911691506389afcb44906024016020604051808303816000875af1158015610c2b573d6000803e3d6000fd5b505050506040513d601f19601f82011682018060405250810190610c4f91906127ab565b9050610c648260400151338460a00151611c21565b60c08201516001600160a01b03163014610c9557610c9582604001518360c001518460a0015184610b0391906129b9565b50505050505050565b4715610cae57610cae3347611f46565b565b6040517f70a082310000000000000000000000000000000000000000000000000000000081523060048201526000907f00000000000000000000000000000000000000000000000000000000000000006001600160a01b0316906370a0823190602401602060405180830381865afa158015610d30573d6000803e3d6000fd5b505050506040513d601f19601f82011682018060405250810190610d5491906127ab565b905082811015610dc0576040517f08c379a000000000000000000000000000000000000000000000000000000000815260206004820152601260248201527f496e73756666696369656e742057455448390000000000000000000000000000604482015260640161015d565b8015610e63576040517f2e1a7d4d000000000000000000000000000000000000000000000000000000008152600481018290527f00000000000000000000000000000000000000000000000000000000000000006001600160a01b031690632e1a7d4d90602401600060405180830381600087803b158015610e4157600080fd5b505af1158015610e55573d6000803e3d6000fd5b50505050610e638282611f46565b505050565b600081610100013542811015610eaa576040517f0756982f00000000000000000000000000000000000000000000000000000000815260040160405180910390fd5b610eff7f0000000000000000000000000000000000000000000000000000000000000000610edb6020860186612771565b610eeb6040870160208801612771565b866040013587606001358860800135611a71565b91506000610f587f0000000000000000000000000000000000000000000000000000000000000000610f346020870187612771565b610f446040880160208901612771565b876040013588606001358960800135611f8b565b9050826001600160a01b031663a6afed956040518163ffffffff1660e01b8152600401600060405180830381600087803b158015610f9557600080fd5b505af1158015610fa9573d6000803e3d6000fd5b50506040517f2e5e549e00000000000000000000000000000000000000000000000000000000815260c08701356004820152600092506001600160a01b0386169150632e5e549e90602401602060405180830381865afa158015611011573d6000803e3d6000fd5b505050506040513d601f19601f8201168201806040525081019061103591906127ab565b90508460a00135811115611075576040517f1a840b4200000000000000000000000000000000000000000000000000000000815260040160405180910390fd5b600080600080856001600160a01b031663443cb4bc6040518163ffffffff1660e01b8152600401602060405180830381865afa1580156110b9573d6000803e3d6000fd5b505050506040513d601f19601f820116820180604052508101906110dd9190612a78565b866001600160a01b0316635a76f25e6040518163ffffffff1660e01b8152600401602060405180830381865afa15801561111b573d6000803e3d6000fd5b505050506040513d601f19601f8201168201806040525081019061113f9190612a78565b6effffffffffffffffffffffffffffff1691506effffffffffffffffffffffffffffff1691506000866001600160a01b03166318160ddd6040518163ffffffff1660e01b8152600401602060405180830381865afa1580156111a5573d6000803e3d6000fd5b505050506040513d601f19601f820116820180604052508101906111c991906127ab565b90506111da838b60c001358361208b565b94506111eb828b60c001358361208b565b935060009250506001600160a01b037f000000000000000000000000000000000000000000000000000000000000000016905063e6a4390561123060208b018b612771565b61124060408c0160208d01612771565b6040517fffffffff0000000000000000000000000000000000000000000000000000000060e085901b1681526001600160a01b03928316600482015291166024820152604401602060405180830381865afa1580156112a3573d6000803e3d6000fd5b505050506040513d601f19601f820116820180604052508101906112c7919061278e565b90506000806000836001600160a01b0316630902f1ac6040518163ffffffff1660e01b8152600401606060405180830381865afa15801561130c573d6000803e3d6000fd5b505050506040513d601f19601f820116820180604052508101906113309190612ac7565b506dffffffffffffffffffffffffffff1691506dffffffffffffffffffffffffffff1691506114196040518060c001604052808d60c0013581526020018d6080013581526020018881526020018781526020018d60200160208101906113969190612771565b6001600160a01b03168e60000160208101906113b29190612771565b6001600160a01b0316106113c657836113c8565b845b81526020018d60200160208101906113e09190612771565b6001600160a01b03168e60000160208101906113fc9190612771565b6001600160a01b0316106114105784611412565b835b905261218f565b6040517f23b872dd0000000000000000000000000000000000000000000000000000000081523360048201526001600160a01b038c1660248201819052604482018a90529194509092506323b872dd91506064016020604051808303816000875af115801561148c573d6000803e3d6000fd5b505050506040513d601f19601f820116820180604052508101906114b09190612b0c565b506001600160a01b03821663022c0d9f6114d060408c0160208d01612771565b6001600160a01b03166114e660208d018d612771565b6001600160a01b0316106114fa57846114fc565b855b61150c60408d0160208e01612771565b6001600160a01b031661152260208e018e612771565b6001600160a01b0316106115365786611538565b855b306040518060e001604052808e6001600160a01b031681526020018c6001600160a01b031681526020018f60200160208101906115759190612771565b6001600160a01b031681526020018f60000160208101906115969190612771565b6001600160a01b031681526020018f60c0013581526020018781526020018f60e00160208101906115c79190612771565b6001600160a01b0316905260405161163e9190602001600060e0820190506001600160a01b038084511683528060208501511660208401528060408501511660408401528060608501511660608401526080840151608084015260a084015160a08401528060c08501511660c08401525092915050565b6040516020818303038152906040526040518563ffffffff1660e01b815260040161166c9493929190612981565b600060405180830381600087803b15801561168657600080fd5b505af115801561169a573d6000803e3d6000fd5b50506040805188815260c08d013560208201526001600160a01b038c1693503392507f5d624aa9c148153ab3446c1b154f660ee7701e549fe9b62dab7171b1c80e6fa2910160405180910390a350505050505050919050565b60608167ffffffffffffffff81111561170e5761170e612837565b60405190808252806020026020018201604052801561174157816020015b606081526020019060019003908161172c5790505b50905060005b8281101561185e576000803086868581811061176557611765612b2e565b90506020028101906117779190612b5d565b604051611785929190612bc2565b600060405180830381855af49150503d80600081146117c0576040519150601f19603f3d011682016040523d82523d6000602084013e6117c5565b606091505b50915091508161182b576044815110156117de57600080fd5b600481019050808060200190518101906117f89190612bd2565b6040517f08c379a000000000000000000000000000000000000000000000000000000000815260040161015d9190612c9d565b8084848151811061183e5761183e612b2e565b60200260200101819052505050808061185690612cb0565b915050611747565b5092915050565b60006118bc7f00000000000000000000000000000000000000000000000000000000000000006118986020850185612771565b6118a86040860160208701612771565b856040013586606001358760800135611f8b565b90506000806118d160c0850160a08601612771565b6001600160a01b0316146118f4576118ef60c0840160a08501612771565b6118f6565b305b6040517fbc25cf770000000000000000000000000000000000000000000000000000000081526001600160a01b0380831660048301529192509083169063bc25cf7790602401600060405180830381600087803b15801561195657600080fd5b505af1158015610c95573d6000803e3d6000fd5b6040517f70a082310000000000000000000000000000000000000000000000000000000081523060048201526000906001600160a01b038516906370a0823190602401602060405180830381865afa1580156119ca573d6000803e3d6000fd5b505050506040513d601f19601f820116820180604052508101906119ee91906127ab565b905082811015611a5a576040517f08c379a000000000000000000000000000000000000000000000000000000000815260206004820152601260248201527f496e73756666696369656e7420746f6b656e0000000000000000000000000000604482015260640161015d565b8015611a6b57611a6b848383611c21565b50505050565b604080516001600160a01b038088166020830152861691810191909152606081018490526080810183905260a081018290526000908190889060c001604080517fffffffffffffffffffffffffffffffffffffffffffffffffffffffffffffffe0818403018152908290528051602091820120611b71939290917f75101793d0f15301afd1b466782b6463c536dc2100e58ab9e9fa399736e60f5091017fff00000000000000000000000000000000000000000000000000000000000000815260609390931b7fffffffffffffffffffffffffffffffffffffffff0000000000000000000000001660018401526015830191909152603582015260550190565b604080518083037fffffffffffffffffffffffffffffffffffffffffffffffffffffffffffffffe0018152919052805160209091012098975050505050505050565b6000611bd78383600001518460200151856040015186606001518760800151611a71565b9050336001600160a01b03821614611c1b576040517f4fbee53800000000000000000000000000000000000000000000000000000000815260040160405180910390fd5b92915050565b60006040517fa9059cbb0000000000000000000000000000000000000000000000000000000081526001600160a01b03841660048201528260248201526000806044836000895af1915050611c7581612220565b611a6b576040517fbfa871c500000000000000000000000000000000000000000000000000000000815260040160405180910390fd5b6000806000846001600160a01b0316630902f1ac6040518163ffffffff1660e01b8152600401606060405180830381865afa158015611cee573d6000803e3d6000fd5b505050506040513d601f19601f82011682018060405250810190611d129190612ac7565b506dffffffffffffffffffffffffffff1691506dffffffffffffffffffffffffffff169150600084611d445781611d46565b825b9050600085611d555783611d57565b825b90506000611d67896103e5612ce8565b90506000611d758383612ce8565b9050600082611d86866103e8612ce8565b611d9091906127f3565b9050611d9c8183612d2e565b9750505050505050505b9392505050565b7f00000000000000000000000000000000000000000000000000000000000000006001600160a01b0316846001600160a01b0316148015611dee5750804710155b15611f1a577f00000000000000000000000000000000000000000000000000000000000000006001600160a01b031663d0e30db0826040518263ffffffff1660e01b81526004016000604051808303818588803b158015611e4e57600080fd5b505af1158015611e62573d6000803e3d6000fd5b50506040517fa9059cbb0000000000000000000000000000000000000000000000000000000081526001600160a01b038681166004830152602482018690527f000000000000000000000000000000000000000000000000000000000000000016935063a9059cbb925060440190506020604051808303816000875af1158015611ef0573d6000803e3d6000fd5b505050506040513d601f19601f82011682018060405250810190611f149190612b0c565b50611a6b565b306001600160a01b03841603611f3a57611f35848383611c21565b611a6b565b611a6b84848484612265565b600080600080600085875af1905080610e63576040517fe293b56b00000000000000000000000000000000000000000000000000000000815260040160405180910390fd5b604080516001600160a01b038088166020830152861691810191909152606081018490526080810183905260a081018290526000908190889060c001604080517fffffffffffffffffffffffffffffffffffffffffffffffffffffffffffffffe0818403018152908290528051602091820120611b71939290917ffa77a504db26055d7035cfdfeca883e0470de81e30c5d93d85235cbc0606c1b191017fff00000000000000000000000000000000000000000000000000000000000000815260609390931b7fffffffffffffffffffffffffffffffffffffffff0000000000000000000000001660018401526015830191909152603582015260550190565b600080807fffffffffffffffffffffffffffffffffffffffffffffffffffffffffffffffff858709858702925082811083820303915050806000036120e3578382816120d9576120d9612cff565b0492505050611da6565b838110612126576040517f773cc18c000000000000000000000000000000000000000000000000000000008152600481018290526024810185905260440161015d565b60008486880960026001871981018816978890046003810283188082028403028082028403028082028403028082028403028082028403029081029092039091026000889003889004909101858311909403939093029303949094049190911702949350505050565b6000806121a483604001518460600151612305565b6121b68460a001518560400151612305565b6121c885608001518660600151612305565b6121d291906127f3565b6121dc91906127f3565b6121e8906103e8612ce8565b905060008360400151846080015161220091906129b9565b61220c906103e5612ce8565b90506122188282612311565b949350505050565b600081612231573d6000803e3d6000fd5b3d6020811461224957801561225a576000915061225f565b3d6000803e6000511515915061225f565b600191505b50919050565b60006040517f23b872dd0000000000000000000000000000000000000000000000000000000081526001600160a01b03851660048201526001600160a01b038416602482015282604482015260008060648360008a5af19150506122c881612220565b6122fe576040517fa83c475400000000000000000000000000000000000000000000000000000000815260040160405180910390fd5b5050505050565b6000611da68383612326565b6000611da683670de0b6b3a76400008461208b565b600080807fffffffffffffffffffffffffffffffffffffffffffffffffffffffffffffffff848609848602925082811083820303915050670de0b6b3a764000081106123a1576040517fd31b34020000000000000000000000000000000000000000000000000000000081526004810182905260240161015d565b600080670de0b6b3a764000086880991506706f05b59d3b1ffff82119050826000036123df5780670de0b6b3a7640000850401945050505050611c1b565b6204000082850304939091119091037d40000000000000000000000000000000000000000000000000000000000002919091177faccb18165bd6fe31ae1cf318dc5b51eee0e1ba569b88cd74c1773b91fac106690201905092915050565b6000610140828403121561225f57600080fd5b60008083601f84011261246257600080fd5b50813567ffffffffffffffff81111561247a57600080fd5b60208301915083602082850101111561249257600080fd5b9250929050565b6000806000604084860312156124ae57600080fd5b83359250602084013567ffffffffffffffff8111156124cc57600080fd5b6124d886828701612450565b9497909650939450505050565b6001600160a01b03811681146124fa57600080fd5b50565b8035612508816124e5565b919050565b60008060008060006080868803121561252557600080fd5b8535612530816124e5565b94506020860135935060408601359250606086013567ffffffffffffffff81111561255a57600080fd5b61256688828901612450565b969995985093965092949392505050565b6000806040838503121561258a57600080fd5b82359150602083013561259c816124e5565b809150509250929050565b6000610120828403121561225f57600080fd5b600080602083850312156125cd57600080fd5b823567ffffffffffffffff808211156125e557600080fd5b818501915085601f8301126125f957600080fd5b81358181111561260857600080fd5b8660208260051b850101111561261d57600080fd5b60209290920196919550909350505050565b60005b8381101561264a578181015183820152602001612632565b50506000910152565b6000815180845261266b81602086016020860161262f565b601f017fffffffffffffffffffffffffffffffffffffffffffffffffffffffffffffffe0169290920160200192915050565b6000602080830181845280855180835260408601915060408160051b870101925083870160005b82811015612710577fffffffffffffffffffffffffffffffffffffffffffffffffffffffffffffffc08886030184526126fe858351612653565b945092850192908501906001016126c4565b5092979650505050505050565b600060c0828403121561225f57600080fd5b60008060006060848603121561274457600080fd5b833561274f816124e5565b9250602084013591506040840135612766816124e5565b809150509250925092565b60006020828403121561278357600080fd5b8135611da6816124e5565b6000602082840312156127a057600080fd5b8151611da6816124e5565b6000602082840312156127bd57600080fd5b5051919050565b7f4e487b7100000000000000000000000000000000000000000000000000000000600052601160045260246000fd5b80820180821115611c1b57611c1b6127c4565b6001600160a01b038416815282602082015260606040820152600061282e6060830184612653565b95945050505050565b7f4e487b7100000000000000000000000000000000000000000000000000000000600052604160045260246000fd5b6040516080810167ffffffffffffffff8111828210171561288957612889612837565b60405290565b60405160a0810167ffffffffffffffff8111828210171561288957612889612837565b60008183036101008112156128c657600080fd5b6128ce612866565b60a08212156128dc57600080fd5b6128e461288f565b915083356128f1816124e5565b82526020840135612901816124e5565b8060208401525060408401356040830152606084013560608301526080840135608083015281815261293560a085016124fd565b602082015260c0840135604082015261295060e085016124fd565b6060820152949350505050565b6000806040838503121561297057600080fd5b505080516020909101519092909150565b8481528360208201526001600160a01b03831660408201526080606082015260006129af6080830184612653565b9695505050505050565b81810381811115611c1b57611c1b6127c4565b600060e082840312156129de57600080fd5b60405160e0810181811067ffffffffffffffff82111715612a0157612a01612837565b6040528235612a0f816124e5565b81526020830135612a1f816124e5565b60208201526040830135612a32816124e5565b60408201526060830135612a45816124e5565b806060830152506080830135608082015260a083013560a0820152612a6c60c084016124fd565b60c08201529392505050565b600060208284031215612a8a57600080fd5b81516effffffffffffffffffffffffffffff81168114611da657600080fd5b80516dffffffffffffffffffffffffffff8116811461250857600080fd5b600080600060608486031215612adc57600080fd5b612ae584612aa9565b9250612af360208501612aa9565b9150604084015163ffffffff8116811461276657600080fd5b600060208284031215612b1e57600080fd5b81518015158114611da657600080fd5b7f4e487b7100000000000000000000000000000000000000000000000000000000600052603260045260246000fd5b60008083357fffffffffffffffffffffffffffffffffffffffffffffffffffffffffffffffe1843603018112612b9257600080fd5b83018035915067ffffffffffffffff821115612bad57600080fd5b60200191503681900382131561249257600080fd5b8183823760009101908152919050565b600060208284031215612be457600080fd5b815167ffffffffffffffff80821115612bfc57600080fd5b818401915084601f830112612c1057600080fd5b815181811115612c2257612c22612837565b604051601f82017fffffffffffffffffffffffffffffffffffffffffffffffffffffffffffffffe0908116603f01168101908382118183101715612c6857612c68612837565b81604052828152876020848701011115612c8157600080fd5b612c9283602083016020880161262f565b979650505050505050565b602081526000611da66020830184612653565b60007fffffffffffffffffffffffffffffffffffffffffffffffffffffffffffffffff8203612ce157612ce16127c4565b5060010190565b8082028115828204841417611c1b57611c1b6127c4565b7f4e487b7100000000000000000000000000000000000000000000000000000000600052601260045260246000fd5b600082612d64577f4e487b7100000000000000000000000000000000000000000000000000000000600052601260045260246000fd5b50049056fea26469706673582212204bab14a5c26869b17012472db60c2afaefda0f48f3c2cfc4971c22dacf7ab04564736f6c63430008110033",
    "linkReferences": {}
  },
  "methodIdentifiers": {
    "MintCallback(uint256,bytes)": "019e868b",
    "WETH9()": "4aa4a4fc",
    "burn((address,address,uint256,uint256,uint256,uint256,uint256,address,uint256))": "a85d5225",
    "factory()": "c45a0155",
    "mint((address,address,uint256,uint256,uint256,uint256,uint256,uint256,address,uint256))": "00ee087a",
    "multicall(bytes[])": "ac9650d8",
    "refundETH()": "12210e8a",
    "skim((address,address,uint256,uint256,uint256,address))": "cd321b40",
    "sweepToken(address,uint256,address)": "df2ab5bb",
    "uniFactory()": "76771d4b",
    "uniswapV2Call(address,uint256,uint256,bytes)": "10d1e85c",
    "unwrapWETH9(uint256,address)": "49404b7c"
  },
  "id": 39
}