{
  "abi": [
    {
      "inputs": [],
      "stateMutability": "nonpayable",
      "type": "constructor"
    },
    {
      "inputs": [],
      "name": "BalanceReturnError",
      "type": "error"
    },
    {
      "inputs": [],
      "name": "CompleteUtilizationError",
      "type": "error"
    },
    {
      "inputs": [],
      "name": "FailedTransfer",
      "type": "error"
    },
    {
      "inputs": [],
      "name": "InsufficientInputError",
      "type": "error"
    },
    {
      "inputs": [],
      "name": "InsufficientOutputError",
      "type": "error"
    },
    {
      "inputs": [],
      "name": "InsufficientPositionError",
      "type": "error"
    },
    {
      "inputs": [],
      "name": "NoLiquidityError",
      "type": "error"
    },
    {
      "inputs": [
        {
          "internalType": "uint256",
          "name": "prod1",
          "type": "uint256"
        }
      ],
      "name": "PRBMath__MulDivFixedPointOverflow",
      "type": "error"
    },
    {
      "inputs": [
        {
          "internalType": "uint256",
          "name": "prod1",
          "type": "uint256"
        },
        {
          "internalType": "uint256",
          "name": "denominator",
          "type": "uint256"
        }
      ],
      "name": "PRBMath__MulDivOverflow",
      "type": "error"
    },
    {
      "inputs": [],
      "name": "ReentrancyError",
      "type": "error"
    },
    {
      "inputs": [],
      "name": "ZeroAddressError",
      "type": "error"
    },
    {
      "anonymous": false,
      "inputs": [
        {
          "indexed": false,
          "internalType": "uint256",
          "name": "timeElapsed",
          "type": "uint256"
        },
        {
          "indexed": false,
          "internalType": "uint256",
          "name": "amountS",
          "type": "uint256"
        },
        {
          "indexed": false,
          "internalType": "uint256",
          "name": "liquidity",
          "type": "uint256"
        },
        {
          "indexed": false,
          "internalType": "uint256",
          "name": "rewardPerLiquidity",
          "type": "uint256"
        }
      ],
      "name": "AccrueInterest",
      "type": "event"
    },
    {
      "anonymous": false,
      "inputs": [
        {
          "indexed": true,
          "internalType": "address",
          "name": "owner",
          "type": "address"
        },
        {
          "indexed": false,
          "internalType": "uint256",
          "name": "rewardPerLiquidity",
          "type": "uint256"
        }
      ],
      "name": "AccruePositionInterest",
      "type": "event"
    },
    {
      "anonymous": false,
      "inputs": [
        {
          "indexed": true,
          "internalType": "address",
          "name": "owner",
          "type": "address"
        },
        {
          "indexed": true,
          "internalType": "address",
          "name": "spender",
          "type": "address"
        },
        {
          "indexed": false,
          "internalType": "uint256",
          "name": "amount",
          "type": "uint256"
        }
      ],
      "name": "Approval",
      "type": "event"
    },
    {
      "anonymous": false,
      "inputs": [
        {
          "indexed": true,
          "internalType": "address",
          "name": "sender",
          "type": "address"
        },
        {
          "indexed": false,
          "internalType": "uint256",
          "name": "amountS",
          "type": "uint256"
        },
        {
          "indexed": false,
          "internalType": "uint256",
          "name": "shares",
          "type": "uint256"
        },
        {
          "indexed": false,
          "internalType": "uint256",
          "name": "liquidity",
          "type": "uint256"
        },
        {
          "indexed": true,
          "internalType": "address",
          "name": "to",
          "type": "address"
        }
      ],
      "name": "Burn",
      "type": "event"
    },
    {
      "anonymous": false,
      "inputs": [
        {
          "indexed": true,
          "internalType": "address",
          "name": "owner",
          "type": "address"
        },
        {
          "indexed": true,
          "internalType": "address",
          "name": "to",
          "type": "address"
        },
        {
          "indexed": false,
          "internalType": "uint256",
          "name": "amountBase",
          "type": "uint256"
        }
      ],
      "name": "Collect",
      "type": "event"
    },
    {
      "anonymous": false,
      "inputs": [
        {
          "indexed": true,
          "internalType": "address",
          "name": "sender",
          "type": "address"
        },
        {
          "indexed": false,
          "internalType": "uint256",
          "name": "liquidity",
          "type": "uint256"
        },
        {
          "indexed": true,
          "internalType": "address",
          "name": "to",
          "type": "address"
        }
      ],
      "name": "Deposit",
      "type": "event"
    },
    {
      "anonymous": false,
      "inputs": [
        {
          "indexed": true,
          "internalType": "address",
          "name": "sender",
          "type": "address"
        },
        {
          "indexed": false,
          "internalType": "uint256",
          "name": "amountS",
          "type": "uint256"
        },
        {
          "indexed": false,
          "internalType": "uint256",
          "name": "shares",
          "type": "uint256"
        },
        {
          "indexed": false,
          "internalType": "uint256",
          "name": "liquidity",
          "type": "uint256"
        },
        {
          "indexed": true,
          "internalType": "address",
          "name": "to",
          "type": "address"
        }
      ],
      "name": "Mint",
      "type": "event"
    },
    {
      "anonymous": false,
      "inputs": [
        {
          "indexed": true,
          "internalType": "address",
          "name": "from",
          "type": "address"
        },
        {
          "indexed": true,
          "internalType": "address",
          "name": "to",
          "type": "address"
        },
        {
          "indexed": false,
          "internalType": "uint256",
          "name": "amount",
          "type": "uint256"
        }
      ],
      "name": "Transfer",
      "type": "event"
    },
    {
      "anonymous": false,
      "inputs": [
        {
          "indexed": true,
          "internalType": "address",
          "name": "sender",
          "type": "address"
        },
        {
          "indexed": false,
          "internalType": "uint256",
          "name": "liquidity",
          "type": "uint256"
        }
      ],
      "name": "Withdraw",
      "type": "event"
    },
    {
      "inputs": [],
      "name": "DOMAIN_SEPARATOR",
      "outputs": [
        {
          "internalType": "bytes32",
          "name": "",
          "type": "bytes32"
        }
      ],
      "stateMutability": "view",
      "type": "function"
    },
    {
      "inputs": [],
      "name": "accrueInterest",
      "outputs": [],
      "stateMutability": "nonpayable",
      "type": "function"
    },
    {
      "inputs": [],
      "name": "accruePositionInterest",
      "outputs": [],
      "stateMutability": "nonpayable",
      "type": "function"
    },
    {
      "inputs": [
        {
          "internalType": "address",
          "name": "",
          "type": "address"
        },
        {
          "internalType": "address",
          "name": "",
          "type": "address"
        }
      ],
      "name": "allowance",
      "outputs": [
        {
          "internalType": "uint256",
          "name": "",
          "type": "uint256"
        }
      ],
      "stateMutability": "view",
      "type": "function"
    },
    {
      "inputs": [
        {
          "internalType": "address",
          "name": "spender",
          "type": "address"
        },
        {
          "internalType": "uint256",
          "name": "amount",
          "type": "uint256"
        }
      ],
      "name": "approve",
      "outputs": [
        {
          "internalType": "bool",
          "name": "",
          "type": "bool"
        }
      ],
      "stateMutability": "nonpayable",
      "type": "function"
    },
    {
      "inputs": [
        {
          "internalType": "address",
          "name": "",
          "type": "address"
        }
      ],
      "name": "balanceOf",
      "outputs": [
        {
          "internalType": "uint256",
          "name": "",
          "type": "uint256"
        }
      ],
      "stateMutability": "view",
      "type": "function"
    },
    {
      "inputs": [],
      "name": "balanceSpeculative",
      "outputs": [
        {
          "internalType": "uint256",
          "name": "",
          "type": "uint256"
        }
      ],
      "stateMutability": "view",
      "type": "function"
    },
    {
      "inputs": [
        {
          "internalType": "address",
          "name": "to",
          "type": "address"
        }
      ],
      "name": "burn",
      "outputs": [
        {
          "internalType": "uint256",
          "name": "amountS",
          "type": "uint256"
        }
      ],
      "stateMutability": "nonpayable",
      "type": "function"
    },
    {
      "inputs": [
        {
          "internalType": "address",
          "name": "to",
          "type": "address"
        },
        {
          "internalType": "uint256",
          "name": "amountSRequested",
          "type": "uint256"
        }
      ],
      "name": "collect",
      "outputs": [
        {
          "internalType": "uint256",
          "name": "amountS",
          "type": "uint256"
        }
      ],
      "stateMutability": "nonpayable",
      "type": "function"
    },
    {
      "inputs": [
        {
          "internalType": "uint256",
          "name": "assets",
          "type": "uint256"
        }
      ],
      "name": "convertAssetToLiquidity",
      "outputs": [
        {
          "internalType": "uint256",
          "name": "",
          "type": "uint256"
        }
      ],
      "stateMutability": "view",
      "type": "function"
    },
    {
      "inputs": [
        {
          "internalType": "uint256",
          "name": "liquidity",
          "type": "uint256"
        }
      ],
      "name": "convertLiquidityToAsset",
      "outputs": [
        {
          "internalType": "uint256",
          "name": "",
          "type": "uint256"
        }
      ],
      "stateMutability": "view",
      "type": "function"
    },
    {
      "inputs": [
        {
          "internalType": "uint256",
          "name": "liquidity",
          "type": "uint256"
        }
      ],
      "name": "convertLiquidityToShare",
      "outputs": [
        {
          "internalType": "uint256",
          "name": "",
          "type": "uint256"
        }
      ],
      "stateMutability": "view",
      "type": "function"
    },
    {
      "inputs": [
        {
          "internalType": "uint256",
          "name": "shares",
          "type": "uint256"
        }
      ],
      "name": "convertShareToLiquidity",
      "outputs": [
        {
          "internalType": "uint256",
          "name": "",
          "type": "uint256"
        }
      ],
      "stateMutability": "view",
      "type": "function"
    },
    {
      "inputs": [],
      "name": "decimals",
      "outputs": [
        {
          "internalType": "uint8",
          "name": "",
          "type": "uint8"
        }
      ],
      "stateMutability": "view",
      "type": "function"
    },
    {
      "inputs": [
        {
          "internalType": "address",
          "name": "to",
          "type": "address"
        }
      ],
      "name": "deposit",
      "outputs": [],
      "stateMutability": "nonpayable",
      "type": "function"
    },
    {
      "inputs": [],
      "name": "factory",
      "outputs": [
        {
          "internalType": "address",
          "name": "",
          "type": "address"
        }
      ],
      "stateMutability": "view",
      "type": "function"
    },
    {
      "inputs": [
        {
          "internalType": "uint256",
          "name": "borrowedLiquidity",
          "type": "uint256"
        },
        {
          "internalType": "uint256",
          "name": "totalLiquidity",
          "type": "uint256"
        }
      ],
      "name": "getBorrowRate",
      "outputs": [
        {
          "internalType": "uint256",
          "name": "rate",
          "type": "uint256"
        }
      ],
      "stateMutability": "pure",
      "type": "function"
    },
    {
      "inputs": [
        {
          "internalType": "uint256",
          "name": "borrowedLiquidity",
          "type": "uint256"
        },
        {
          "internalType": "uint256",
          "name": "totalLiquidity",
          "type": "uint256"
        }
      ],
      "name": "getSupplyRate",
      "outputs": [
        {
          "internalType": "uint256",
          "name": "rate",
          "type": "uint256"
        }
      ],
      "stateMutability": "pure",
      "type": "function"
    },
    {
      "inputs": [],
      "name": "jumpMultiplier",
      "outputs": [
        {
          "internalType": "uint256",
          "name": "",
          "type": "uint256"
        }
      ],
      "stateMutability": "view",
      "type": "function"
    },
    {
      "inputs": [],
      "name": "kink",
      "outputs": [
        {
          "internalType": "uint256",
          "name": "",
          "type": "uint256"
        }
      ],
      "stateMutability": "view",
      "type": "function"
    },
    {
      "inputs": [],
      "name": "lastUpdate",
      "outputs": [
        {
          "internalType": "uint64",
          "name": "",
          "type": "uint64"
        }
      ],
      "stateMutability": "view",
      "type": "function"
    },
    {
      "inputs": [
        {
          "internalType": "address",
          "name": "to",
          "type": "address"
        },
        {
          "internalType": "uint256",
          "name": "amountS",
          "type": "uint256"
        },
        {
          "internalType": "bytes",
          "name": "data",
          "type": "bytes"
        }
      ],
      "name": "mint",
      "outputs": [
        {
          "internalType": "uint256",
          "name": "shares",
          "type": "uint256"
        }
      ],
      "stateMutability": "nonpayable",
      "type": "function"
    },
    {
      "inputs": [],
      "name": "multiplier",
      "outputs": [
        {
          "internalType": "uint256",
          "name": "",
          "type": "uint256"
        }
      ],
      "stateMutability": "view",
      "type": "function"
    },
    {
      "inputs": [],
      "name": "name",
      "outputs": [
        {
          "internalType": "string",
          "name": "",
          "type": "string"
        }
      ],
      "stateMutability": "view",
      "type": "function"
    },
    {
      "inputs": [
        {
          "internalType": "address",
          "name": "",
          "type": "address"
        }
      ],
      "name": "nonces",
      "outputs": [
        {
          "internalType": "uint256",
          "name": "",
          "type": "uint256"
        }
      ],
      "stateMutability": "view",
      "type": "function"
    },
    {
      "inputs": [],
      "name": "pair",
      "outputs": [
        {
          "internalType": "address",
          "name": "",
          "type": "address"
        }
      ],
      "stateMutability": "view",
      "type": "function"
    },
    {
      "inputs": [
        {
          "internalType": "address",
          "name": "owner",
          "type": "address"
        },
        {
          "internalType": "address",
          "name": "spender",
          "type": "address"
        },
        {
          "internalType": "uint256",
          "name": "value",
          "type": "uint256"
        },
        {
          "internalType": "uint256",
          "name": "deadline",
          "type": "uint256"
        },
        {
          "internalType": "uint8",
          "name": "v",
          "type": "uint8"
        },
        {
          "internalType": "bytes32",
          "name": "r",
          "type": "bytes32"
        },
        {
          "internalType": "bytes32",
          "name": "s",
          "type": "bytes32"
        }
      ],
      "name": "permit",
      "outputs": [],
      "stateMutability": "nonpayable",
      "type": "function"
    },
    {
      "inputs": [
        {
          "internalType": "address",
          "name": "",
          "type": "address"
        }
      ],
      "name": "positions",
      "outputs": [
        {
          "internalType": "uint256",
          "name": "liquidity",
          "type": "uint256"
        },
        {
          "internalType": "uint256",
          "name": "rewardPerLiquidityPaid",
          "type": "uint256"
        },
        {
          "internalType": "uint256",
          "name": "tokensOwed",
          "type": "uint256"
        }
      ],
      "stateMutability": "view",
      "type": "function"
    },
    {
      "inputs": [],
      "name": "rewardPerLiquidityStored",
      "outputs": [
        {
          "internalType": "uint256",
          "name": "",
          "type": "uint256"
        }
      ],
      "stateMutability": "view",
      "type": "function"
    },
    {
      "inputs": [],
      "name": "symbol",
      "outputs": [
        {
          "internalType": "string",
          "name": "",
          "type": "string"
        }
      ],
      "stateMutability": "view",
      "type": "function"
    },
    {
      "inputs": [],
      "name": "totalLiquidity",
      "outputs": [
        {
          "internalType": "uint256",
          "name": "",
          "type": "uint256"
        }
      ],
      "stateMutability": "view",
      "type": "function"
    },
    {
      "inputs": [],
      "name": "totalLiquidityBorrowed",
      "outputs": [
        {
          "internalType": "uint256",
          "name": "",
          "type": "uint256"
        }
      ],
      "stateMutability": "view",
      "type": "function"
    },
    {
      "inputs": [],
      "name": "totalSupply",
      "outputs": [
        {
          "internalType": "uint256",
          "name": "",
          "type": "uint256"
        }
      ],
      "stateMutability": "view",
      "type": "function"
    },
    {
      "inputs": [
        {
          "internalType": "address",
          "name": "to",
          "type": "address"
        },
        {
          "internalType": "uint256",
          "name": "amount",
          "type": "uint256"
        }
      ],
      "name": "transfer",
      "outputs": [
        {
          "internalType": "bool",
          "name": "",
          "type": "bool"
        }
      ],
      "stateMutability": "nonpayable",
      "type": "function"
    },
    {
      "inputs": [
        {
          "internalType": "address",
          "name": "from",
          "type": "address"
        },
        {
          "internalType": "address",
          "name": "to",
          "type": "address"
        },
        {
          "internalType": "uint256",
          "name": "amount",
          "type": "uint256"
        }
      ],
      "name": "transferFrom",
      "outputs": [
        {
          "internalType": "bool",
          "name": "",
          "type": "bool"
        }
      ],
      "stateMutability": "nonpayable",
      "type": "function"
    },
    {
      "inputs": [
        {
          "internalType": "uint256",
          "name": "liquidity",
          "type": "uint256"
        }
      ],
      "name": "withdraw",
      "outputs": [],
      "stateMutability": "nonpayable",
      "type": "function"
    }
  ],
  "bytecode": {
    "object": "0x6101006040526008805460ff60401b1916680100000000000000001790553480156200002a57600080fd5b504660805262000103604080518082018252601d81527f4e756d6f656e205265706c69636174696e67204465726976617469766500000060209182015281517f8b73c3c69bb8fe3d512ecc4cf759cc79239f7b179b0ffacaa9a75d522b39400f818301527fe0aacc3a18ef84f81cc6ccd9ffda212f4a39a80cf42fda9f7c775397b63887b6818401527fc89efdaa54c0f20c7adf612882df0950f5a951637e0307cdcb4c672f298b8bc660608201524660808201523060a0808301919091528351808303909101815260c0909101909252815191012090565b60a0523360c08190526040805163a8aa1b3160e01b8152905163a8aa1b31916004808201926020929091908290030181865afa15801562000148573d6000803e3d6000fd5b505050506040513d601f19601f820116820180604052508101906200016e919062000180565b6001600160a01b031660e052620001b2565b6000602082840312156200019357600080fd5b81516001600160a01b0381168114620001ab57600080fd5b9392505050565b60805160a05160c05160e051612dd762000232600039600081816104ed015281816106d701528181610b3001528181610e9d01528181610fa9015281816112bd01528181611333015281816115ea015281816117b401528181611e660152611f880152600061057901526000610d1901526000610c200152612dd76000f3fe608060405234801561001057600080fd5b506004361061025c5760003560e01c80637a52b93711610145578063a9059cbb116100bd578063d98026f11161008c578063dd62ed3e11610071578063dd62ed3e146105c0578063f340fa01146105eb578063fd2da339146105fe57600080fd5b8063d98026f1146105ae578063d9832154146105b757600080fd5b8063a9059cbb14610534578063c046371114610547578063c45a015514610574578063d505accf1461059b57600080fd5b806395d89b4111610114578063a5cdfa94116100f9578063a5cdfa94146104cd578063a6afed95146104e0578063a8aa1b31146104e857600080fd5b806395d89b411461047e5780639ff47dc3146104ba57600080fd5b80637a52b937146104305780637ecebe001461043857806389afcb441461045857806394d008ef1461046b57600080fd5b80632e5e549e116101d85780633b7cf699116101a757806355f575101161018c57806355f57510146103b35780636b8357ac146103fd57806370a082311461041057600080fd5b80633b7cf699146103985780634fd9b90a146103ab57600080fd5b80632e5e549e14610353578063313ce567146103665780633644e51514610380578063375259281461038857600080fd5b806318160ddd1161022f57806323b872dd1161021457806323b872dd146103185780632a11a8a01461032b5780632e1a7d4d1461033e57600080fd5b806318160ddd146103005780631b3ed7221461030957600080fd5b806306fdde0314610261578063095ea7b3146102b357806312fb162d146102d657806315770f92146102f7575b600080fd5b61029d6040518060400160405280601d81526020017f4e756d6f656e205265706c69636174696e67204465726976617469766500000081525081565b6040516102aa9190612979565b60405180910390f35b6102c66102c13660046129ef565b61060d565b60405190151581526020016102aa565b6102e96102e4366004612a1b565b6106cf565b6040519081526020016102aa565b6102e960055481565b6102e960005481565b6102e9671314fb370629800081565b6102c6610326366004612a34565b610774565b6102e9610339366004612a75565b61092a565b61035161034c366004612a1b565b61096d565b005b6102e9610361366004612a1b565b610bf7565b61036e601281565b60405160ff90911681526020016102aa565b6102e9610c1c565b6102e96802698fc23a98e2000081565b6102e96103a6366004612a1b565b610d3b565b610351610d4c565b6103e26103c1366004612a97565b60046020526000908152604090208054600182015460029092015490919083565b604080519384526020840192909252908201526060016102aa565b6102e961040b3660046129ef565b610de4565b6102e961041e366004612a97565b60016020526000908152604090205481565b6102e9610fa2565b6102e9610446366004612a97565b60036020526000908152604090205481565b6102e9610466366004612a97565b61119a565b6102e9610479366004612ab4565b611446565b61029d6040518060400160405280600381526020017f4e5244000000000000000000000000000000000000000000000000000000000081525081565b6102e96104c8366004612a1b565b6117ac565b6102e96104db366004612a75565b611851565b61035161191e565b61050f7f000000000000000000000000000000000000000000000000000000000000000081565b60405173ffffffffffffffffffffffffffffffffffffffff90911681526020016102aa565b6102c66105423660046129ef565b61198e565b60085461055b9067ffffffffffffffff1681565b60405167ffffffffffffffff90911681526020016102aa565b61050f7f000000000000000000000000000000000000000000000000000000000000000081565b6103516105a9366004612b3d565b611a60565b6102e960075481565b6102e960065481565b6102e96105ce366004612bb4565b600260209081526000928352604080842090915290825290205481565b6103516105f9366004612a97565b611df2565b6102e9670b1a2bc2ec50000081565b600073ffffffffffffffffffffffffffffffffffffffff831661065c576040517f3efa09af00000000000000000000000000000000000000000000000000000000815260040160405180910390fd5b33600081815260026020908152604080832073ffffffffffffffffffffffffffffffffffffffff881680855290835292819020869055518581529192917f8c5be1e5ebec7d5bd14f71427d1e84f3dd0314c0f7b2291e5b200ac8c7c3b92591015b60405180910390a35060015b92915050565b60006106c9827f000000000000000000000000000000000000000000000000000000000000000073ffffffffffffffffffffffffffffffffffffffff1663b09ad8a06040518163ffffffff1660e01b8152600401602060405180830381865afa158015610740573d6000803e3d6000fd5b505050506040513d601f19601f820116820180604052508101906107649190612bed565b61076f906002612c35565b612067565b600073ffffffffffffffffffffffffffffffffffffffff841615806107ad575073ffffffffffffffffffffffffffffffffffffffff8316155b156107e4576040517f3efa09af00000000000000000000000000000000000000000000000000000000815260040160405180910390fd5b73ffffffffffffffffffffffffffffffffffffffff841660009081526002602090815260408083203384529091529020547fffffffffffffffffffffffffffffffffffffffffffffffffffffffffffffffff8114610878576108468382612c4c565b73ffffffffffffffffffffffffffffffffffffffff861660009081526002602090815260408083203384529091529020555b73ffffffffffffffffffffffffffffffffffffffff8516600090815260016020526040812080548592906108ad908490612c4c565b909155505073ffffffffffffffffffffffffffffffffffffffff808516600081815260016020526040908190208054870190555190918716907fddf252ad1be2c89b69c2b068fc378daa952ba7f163c4a11628f55a4df523b3ef906109159087815260200190565b60405180910390a360019150505b9392505050565b6000806109378484612073565b905060006109458585611851565b9050670de0b6b3a764000061095a8383612c35565b6109649190612c8e565b95945050505050565b60085468010000000000000000900460ff166001146109b8576040517f29f745a700000000000000000000000000000000000000000000000000000000815260040160405180910390fd5b6008805468ff00000000000000001916680200000000000000001790556109dd6120a2565b80600003610a17576040517fd5ab59fe00000000000000000000000000000000000000000000000000000000815260040160405180910390fd5b33600090815260046020526040812060408051606081018252825480825260018401546020830152600290930154918101919091529150821115610a87576040517fe8ffb44c00000000000000000000000000000000000000000000000000000000815260040160405180910390fd5b81600554610a959190612c4c565b6006541115610ad0576040517f088c327000000000000000000000000000000000000000000000000000000000815260040160405180910390fd5b610aea33610add84612cc9565b6007546004929190612228565b8160056000828254610afc9190612c4c565b90915550506040517f22cf1989000000000000000000000000000000000000000000000000000000008152600481018390527f000000000000000000000000000000000000000000000000000000000000000073ffffffffffffffffffffffffffffffffffffffff16906322cf198990602401600060405180830381600087803b158015610b8957600080fd5b505af1158015610b9d573d6000803e3d6000fd5b50506040518481523392507f884edad9ce6fa2440d8a54cc123490eb96d2768479d49ff9c7366125a9424364915060200160405180910390a250506008805468ff0000000000000000191668010000000000000000179055565b6006546000908015610c1557610c10836000548361231b565b610923565b5090919050565b60007f00000000000000000000000000000000000000000000000000000000000000004614610d165750604080518082018252601d81527f4e756d6f656e205265706c69636174696e67204465726976617469766500000060209182015281517f8b73c3c69bb8fe3d512ecc4cf759cc79239f7b179b0ffacaa9a75d522b39400f818301527fe0aacc3a18ef84f81cc6ccd9ffda212f4a39a80cf42fda9f7c775397b63887b6818401527fc89efdaa54c0f20c7adf612882df0950f5a951637e0307cdcb4c672f298b8bc660608201524660808201523060a0808301919091528351808303909101815260c0909101909252815191012090565b507f000000000000000000000000000000000000000000000000000000000000000090565b60006106c96006548360005461231b565b60085468010000000000000000900460ff16600114610d97576040517f29f745a700000000000000000000000000000000000000000000000000000000815260040160405180910390fd5b6008805468ff0000000000000000191668020000000000000000179055610dbc6120a2565b610dc53361241f565b6008805468ff0000000000000000191668010000000000000000179055565b600060088054906101000a900460ff1660ff16600114610e30576040517f29f745a700000000000000000000000000000000000000000000000000000000815260040160405180910390fd5b6008805468ff0000000000000000191668020000000000000000179055336000908152600460205260408120905080600201548311610e6f5782610e75565b80600201545b91508115610f315781816002016000828254610e919190612c4c565b92505081905550610f317f000000000000000000000000000000000000000000000000000000000000000073ffffffffffffffffffffffffffffffffffffffff1663ee1f21d86040518163ffffffff1660e01b8152600401602060405180830381865afa158015610f06573d6000803e3d6000fd5b505050506040513d601f19601f82011682018060405250810190610f2a9190612d01565b8584612484565b60405182815273ffffffffffffffffffffffffffffffffffffffff85169033907f1314fd112a381beea61539dbd21ec04afcff2662ac7d1b83273aade1f53d1b979060200160405180910390a3506008805468ff000000000000000019166801000000000000000017905592915050565b60008060607f000000000000000000000000000000000000000000000000000000000000000073ffffffffffffffffffffffffffffffffffffffff1663ee1f21d86040518163ffffffff1660e01b8152600401602060405180830381865afa158015611012573d6000803e3d6000fd5b505050506040513d601f19601f820116820180604052508101906110369190612d01565b604080518082018252601281527f62616c616e63654f662861646472657373290000000000000000000000000000602091820152815130602480830191909152835180830390910181526044909101835290810180517bffffffffffffffffffffffffffffffffffffffffffffffffffffffff167f70a0823100000000000000000000000000000000000000000000000000000000179052905173ffffffffffffffffffffffffffffffffffffffff92909216916110f49190612d1e565b600060405180830381855afa9150503d806000811461112f576040519150601f19603f3d011682016040523d82523d6000602084013e611134565b606091505b509092509050811580611148575060208151105b1561117f576040517f7613bc8900000000000000000000000000000000000000000000000000000000815260040160405180910390fd5b808060200190518101906111939190612bed565b9250505090565b600060088054906101000a900460ff1660ff166001146111e6576040517f29f745a700000000000000000000000000000000000000000000000000000000815260040160405180910390fd5b6008805468ff000000000000000019166802000000000000000017905561120b6120a2565b306000908152600160205260408120549061122582610d3b565b9050611230816106cf565b92508060000361126c576040517fd5ab59fe00000000000000000000000000000000000000000000000000000000815260040160405180910390fd5b806006600082825461127e9190612c4c565b9091555061128e90503083612521565b6040517fbb9a5908000000000000000000000000000000000000000000000000000000008152600481018290527f000000000000000000000000000000000000000000000000000000000000000073ffffffffffffffffffffffffffffffffffffffff169063bb9a590890602401600060405180830381600087803b15801561131657600080fd5b505af115801561132a573d6000803e3d6000fd5b505050506113c77f000000000000000000000000000000000000000000000000000000000000000073ffffffffffffffffffffffffffffffffffffffff1663ee1f21d86040518163ffffffff1660e01b8152600401602060405180830381865afa15801561139c573d6000803e3d6000fd5b505050506040513d601f19601f820116820180604052508101906113c09190612d01565b8585612484565b604080518481526020810184905290810182905273ffffffffffffffffffffffffffffffffffffffff85169033907fd175a80c109434bb89948928ab2475a6647c94244cb70002197896423c8833639060600160405180910390a350506008805468ff0000000000000000191668010000000000000000179055919050565b600060088054906101000a900460ff1660ff16600114611492576040517f29f745a700000000000000000000000000000000000000000000000000000000815260040160405180910390fd5b6008805468ff00000000000000001916680200000000000000001790556114b76120a2565b60006114c2856117ac565b90506114cd81610bf7565b915081600003611509576040517fd5ab59fe00000000000000000000000000000000000000000000000000000000815260040160405180910390fd5b6005546006546115199083612d3a565b1115611551576040517f088c327000000000000000000000000000000000000000000000000000000000815260040160405180910390fd5b600080541180156115625750600654155b15611599576040517f088c327000000000000000000000000000000000000000000000000000000000815260040160405180910390fd5b80600660008282546115ab9190612d3a565b909155506115bb90508683612601565b6040517f22cf1989000000000000000000000000000000000000000000000000000000008152600481018290527f000000000000000000000000000000000000000000000000000000000000000073ffffffffffffffffffffffffffffffffffffffff16906322cf198990602401600060405180830381600087803b15801561164357600080fd5b505af1158015611657573d6000803e3d6000fd5b505050506000611665610fa2565b6040517f019e868b000000000000000000000000000000000000000000000000000000008152909150339063019e868b906116a890899089908990600401612d4d565b600060405180830381600087803b1580156116c257600080fd5b505af11580156116d6573d6000803e3d6000fd5b5050505060006116e4610fa2565b90506116f08783612d3a565b811015611729576040517fee30a99300000000000000000000000000000000000000000000000000000000815260040160405180910390fd5b604080518881526020810186905290810184905273ffffffffffffffffffffffffffffffffffffffff89169033907fa8137fff86647d8a402117b9c5dbda627f721d3773338fb9678c83e54ed390809060600160405180910390a350506008805468ff000000000000000019166801000000000000000017905550949350505050565b60006106c9827f000000000000000000000000000000000000000000000000000000000000000073ffffffffffffffffffffffffffffffffffffffff1663b09ad8a06040518163ffffffff1660e01b8152600401602060405180830381865afa15801561181d573d6000803e3d6000fd5b505050506040513d601f19601f820116820180604052508101906118419190612bed565b61184c906002612c35565b6126be565b60008061185e8484612073565b9050670b1a2bc2ec500000811161189c57670de0b6b3a764000061188a671314fb370629800083612c35565b6118949190612c8e565b9150506106c9565b6000670de0b6b3a76400006118c1671314fb3706298000670b1a2bc2ec500000612c35565b6118cb9190612c8e565b905060006118e1670b1a2bc2ec50000084612c4c565b905081670de0b6b3a76400006119006802698fc23a98e2000084612c35565b61190a9190612c8e565b6119149190612d3a565b93505050506106c9565b60085468010000000000000000900460ff16600114611969576040517f29f745a700000000000000000000000000000000000000000000000000000000815260040160405180910390fd5b6008805468ff0000000000000000191668020000000000000000179055610dc56120a2565b600073ffffffffffffffffffffffffffffffffffffffff83166119dd576040517f3efa09af00000000000000000000000000000000000000000000000000000000815260040160405180910390fd5b33600090815260016020526040812080548492906119fc908490612c4c565b909155505073ffffffffffffffffffffffffffffffffffffffff8316600081815260016020526040908190208054850190555133907fddf252ad1be2c89b69c2b068fc378daa952ba7f163c4a11628f55a4df523b3ef906106bd9086815260200190565b73ffffffffffffffffffffffffffffffffffffffff87161580611a97575073ffffffffffffffffffffffffffffffffffffffff8616155b15611ace576040517f3efa09af00000000000000000000000000000000000000000000000000000000815260040160405180910390fd5b42841015611b3d576040517f08c379a000000000000000000000000000000000000000000000000000000000815260206004820152601760248201527f5045524d49545f444541444c494e455f4558504952454400000000000000000060448201526064015b60405180910390fd5b60006001611b49610c1c565b73ffffffffffffffffffffffffffffffffffffffff8a811660008181526003602090815260409182902080546001810190915582517f6e71edae12b1b97f4d1f60370fef10105fa2faae0126114a169c64845d6126c98184015280840194909452938d166060840152608083018c905260a083019390935260c08083018b90528151808403909101815260e0830190915280519201919091207f190100000000000000000000000000000000000000000000000000000000000061010083015261010282019290925261012281019190915261014201604080517fffffffffffffffffffffffffffffffffffffffffffffffffffffffffffffffe08184030181528282528051602091820120600084529083018083525260ff871690820152606081018590526080810184905260a0016020604051602081039080840390855afa158015611c9b573d6000803e3d6000fd5b50506040517fffffffffffffffffffffffffffffffffffffffffffffffffffffffffffffffe0015191505073ffffffffffffffffffffffffffffffffffffffff811615801590611d1657508773ffffffffffffffffffffffffffffffffffffffff168173ffffffffffffffffffffffffffffffffffffffff16145b611d7c576040517f08c379a000000000000000000000000000000000000000000000000000000000815260206004820152600e60248201527f494e56414c49445f5349474e45520000000000000000000000000000000000006044820152606401611b34565b73ffffffffffffffffffffffffffffffffffffffff90811660009081526002602090815260408083208a8516808552908352928190208990555188815291928a16917f8c5be1e5ebec7d5bd14f71427d1e84f3dd0314c0f7b2291e5b200ac8c7c3b925910160405180910390a350505050505050565b60085468010000000000000000900460ff16600114611e3d576040517f29f745a700000000000000000000000000000000000000000000000000000000815260040160405180910390fd5b6008805468ff0000000000000000191668020000000000000000179055611e626120a2565b60007f000000000000000000000000000000000000000000000000000000000000000073ffffffffffffffffffffffffffffffffffffffff1663edaafe206040518163ffffffff1660e01b8152600401602060405180830381865afa158015611ecf573d6000803e3d6000fd5b505050506040513d601f19601f82011682018060405250810190611ef39190612bed565b905080600003611f2f576040517fd5ab59fe00000000000000000000000000000000000000000000000000000000815260040160405180910390fd5b600754611f429060049084908490612228565b8060056000828254611f549190612d3a565b90915550506040517fbb9a5908000000000000000000000000000000000000000000000000000000008152600481018290527f000000000000000000000000000000000000000000000000000000000000000073ffffffffffffffffffffffffffffffffffffffff169063bb9a590890602401600060405180830381600087803b158015611fe157600080fd5b505af1158015611ff5573d6000803e3d6000fd5b505060405183815273ffffffffffffffffffffffffffffffffffffffff851692503391507fe31c7b8d08ee7db0afa68782e1028ef92305caeea8626633ad44d413e30f6b2f9060200160405180910390a350506008805468ff0000000000000000191668010000000000000000179055565b600061092383836126d3565b600081600003612085575060006106c9565b8161209884670de0b6b3a7640000612c35565b6109239190612c8e565b60005415806120b15750600654155b156120ec57600880547fffffffffffffffffffffffffffffffffffffffffffffffff0000000000000000164267ffffffffffffffff16179055565b60065460055460085460009061210c9067ffffffffffffffff1642612c4c565b90508060000361211b57505050565b60006121278484611851565b905060006301e133808361213b8488612067565b6121459190612c35565b61214f9190612c8e565b905060008582116121605781612162565b855b9050600061216f826106cf565b905061217b81876126be565b6007600082825461218c9190612d3a565b9091555061219c90508288612c4c565b600655600880547fffffffffffffffffffffffffffffffffffffffffffffffff0000000000000000164267ffffffffffffffff16179055600754604080518781526020810184905290810184905260608101919091527f4dec04e750ca11537cabcd8a9eab06494de08da3735bc8871cd41250e190bc049060800160405180910390a150505050505050565b73ffffffffffffffffffffffffffffffffffffffff831660009081526020858152604080832081516060810183528154808252600183015494820194909452600282015492810192909252929091156122885761228582856127ea565b90505b6000856000036122d55782516000036122cd576040517f351c1cda00000000000000000000000000000000000000000000000000000000815260040160405180910390fd5b5081516122e4565b82516122e1908761280d565b90505b85156122ee578084555b6001840185905581156123115781836040015161230b9190612d3a565b60028501555b5050505050505050565b600080807fffffffffffffffffffffffffffffffffffffffffffffffffffffffffffffffff858709858702925082811083820303915050806000036123735783828161236957612369612c5f565b0492505050610923565b8381106123b6576040517f773cc18c0000000000000000000000000000000000000000000000000000000081526004810182905260248101859052604401611b34565b60008486880960026001871981018816978890046003810283188082028403028082028403028082028403028082028403028082028403029081029092039091026000889003889004909101858311909403939093029303949094049190911702949350505050565b600754612430600483600084612228565b8173ffffffffffffffffffffffffffffffffffffffff167f79f93060adb031972743fb83706d3b89328ac521188de43641a8709999fef7ff8260405161247891815260200190565b60405180910390a25050565b60006040517fa9059cbb00000000000000000000000000000000000000000000000000000000815273ffffffffffffffffffffffffffffffffffffffff841660048201528260248201526000806044836000895af19150506124e581612910565b61251b576040517fbfa871c500000000000000000000000000000000000000000000000000000000815260040160405180910390fd5b50505050565b73ffffffffffffffffffffffffffffffffffffffff821661256e576040517f3efa09af00000000000000000000000000000000000000000000000000000000815260040160405180910390fd5b73ffffffffffffffffffffffffffffffffffffffff8216600090815260016020526040812080548392906125a3908490612c4c565b909155505060008054829003815560405182815273ffffffffffffffffffffffffffffffffffffffff8416907fddf252ad1be2c89b69c2b068fc378daa952ba7f163c4a11628f55a4df523b3ef906020015b60405180910390a35050565b73ffffffffffffffffffffffffffffffffffffffff821661264e576040517f3efa09af00000000000000000000000000000000000000000000000000000000815260040160405180910390fd5b8060008082825461265f9190612d3a565b909155505073ffffffffffffffffffffffffffffffffffffffff82166000818152600160209081526040808320805486019055518481527fddf252ad1be2c89b69c2b068fc378daa952ba7f163c4a11628f55a4df523b3ef91016125f5565b600061092383670de0b6b3a76400008461231b565b600080807fffffffffffffffffffffffffffffffffffffffffffffffffffffffffffffffff848609848602925082811083820303915050670de0b6b3a7640000811061274e576040517fd31b340200000000000000000000000000000000000000000000000000000000815260048101829052602401611b34565b600080670de0b6b3a764000086880991506706f05b59d3b1ffff821190508260000361278c5780670de0b6b3a76400008504019450505050506106c9565b6204000082850304939091119091037d40000000000000000000000000000000000000000000000000000000000002919091177faccb18165bd6fe31ae1cf318dc5b51eee0e1ba569b88cd74c1773b91fac106690201905092915050565b815160208301516000919061280590829061076f9086612c4c565b949350505050565b60008082121561289a578261282183612cc9565b61282b9085612c4c565b91508110612895576040517f08c379a000000000000000000000000000000000000000000000000000000000815260206004820152600260248201527f4c530000000000000000000000000000000000000000000000000000000000006044820152606401611b34565b6106c9565b826128a58382612d3a565b91508110156106c9576040517f08c379a000000000000000000000000000000000000000000000000000000000815260206004820152600260248201527f4c410000000000000000000000000000000000000000000000000000000000006044820152606401611b34565b600081612921573d6000803e3d6000fd5b3d6020811461293957801561294a576000915061294f565b3d6000803e6000511515915061294f565b600191505b50919050565b60005b83811015612970578181015183820152602001612958565b50506000910152565b6020815260008251806020840152612998816040850160208701612955565b601f017fffffffffffffffffffffffffffffffffffffffffffffffffffffffffffffffe0169190910160400192915050565b73ffffffffffffffffffffffffffffffffffffffff811681146129ec57600080fd5b50565b60008060408385031215612a0257600080fd5b8235612a0d816129ca565b946020939093013593505050565b600060208284031215612a2d57600080fd5b5035919050565b600080600060608486031215612a4957600080fd5b8335612a54816129ca565b92506020840135612a64816129ca565b929592945050506040919091013590565b60008060408385031215612a8857600080fd5b50508035926020909101359150565b600060208284031215612aa957600080fd5b8135610923816129ca565b60008060008060608587031215612aca57600080fd5b8435612ad5816129ca565b935060208501359250604085013567ffffffffffffffff80821115612af957600080fd5b818701915087601f830112612b0d57600080fd5b813581811115612b1c57600080fd5b886020828501011115612b2e57600080fd5b95989497505060200194505050565b600080600080600080600060e0888a031215612b5857600080fd5b8735612b63816129ca565b96506020880135612b73816129ca565b95506040880135945060608801359350608088013560ff81168114612b9757600080fd5b9699959850939692959460a0840135945060c09093013592915050565b60008060408385031215612bc757600080fd5b8235612bd2816129ca565b91506020830135612be2816129ca565b809150509250929050565b600060208284031215612bff57600080fd5b5051919050565b7f4e487b7100000000000000000000000000000000000000000000000000000000600052601160045260246000fd5b80820281158282048414176106c9576106c9612c06565b818103818111156106c9576106c9612c06565b7f4e487b7100000000000000000000000000000000000000000000000000000000600052601260045260246000fd5b600082612cc4577f4e487b7100000000000000000000000000000000000000000000000000000000600052601260045260246000fd5b500490565b60007f80000000000000000000000000000000000000000000000000000000000000008203612cfa57612cfa612c06565b5060000390565b600060208284031215612d1357600080fd5b8151610923816129ca565b60008251612d30818460208701612955565b9190910192915050565b808201808211156106c9576106c9612c06565b83815260406020820152816040820152818360608301376000818301606090810191909152601f9092017fffffffffffffffffffffffffffffffffffffffffffffffffffffffffffffffe01601019291505056fea26469706673582212208ff5a24af90b9627e0c9b5238ee2d289845efbc00c673538966d637445bf862664736f6c63430008110033",
    "linkReferences": {}
  },
  "methodIdentifiers": {
    "DOMAIN_SEPARATOR()": "3644e515",
    "accrueInterest()": "a6afed95",
    "accruePositionInterest()": "4fd9b90a",
    "allowance(address,address)": "dd62ed3e",
    "approve(address,uint256)": "095ea7b3",
    "balanceOf(address)": "70a08231",
    "balanceSpeculative()": "7a52b937",
    "burn(address)": "89afcb44",
    "collect(address,uint256)": "6b8357ac",
    "convertAssetToLiquidity(uint256)": "9ff47dc3",
    "convertLiquidityToAsset(uint256)": "12fb162d",
    "convertLiquidityToShare(uint256)": "2e5e549e",
    "convertShareToLiquidity(uint256)": "3b7cf699",
    "decimals()": "313ce567",
    "deposit(address)": "f340fa01",
    "factory()": "c45a0155",
    "getBorrowRate(uint256,uint256)": "a5cdfa94",
    "getSupplyRate(uint256,uint256)": "2a11a8a0",
    "jumpMultiplier()": "37525928",
    "kink()": "fd2da339",
    "lastUpdate()": "c0463711",
    "mint(address,uint256,bytes)": "94d008ef",
    "multiplier()": "1b3ed722",
    "name()": "06fdde03",
    "nonces(address)": "7ecebe00",
    "pair()": "a8aa1b31",
    "permit(address,address,uint256,uint256,uint8,bytes32,bytes32)": "d505accf",
    "positions(address)": "55f57510",
    "rewardPerLiquidityStored()": "d98026f1",
    "symbol()": "95d89b41",
    "totalLiquidity()": "15770f92",
    "totalLiquidityBorrowed()": "d9832154",
    "totalSupply()": "18160ddd",
    "transfer(address,uint256)": "a9059cbb",
    "transferFrom(address,address,uint256)": "23b872dd",
    "withdraw(uint256)": "2e1a7d4d"
  },
  "id": 22
}