{
  "abi": [
    {
      "inputs": [
        {
          "internalType": "address",
          "name": "_factory",
          "type": "address"
        },
        {
          "internalType": "address",
          "name": "_uniFactory",
          "type": "address"
        }
      ],
      "stateMutability": "nonpayable",
      "type": "constructor"
    },
    {
      "inputs": [],
      "name": "FailedTransfer",
      "type": "error"
    },
    {
      "inputs": [],
      "name": "FailedTransferFrom",
      "type": "error"
    },
    {
      "inputs": [],
      "name": "LivelinessError",
      "type": "error"
    },
    {
      "inputs": [
        {
          "internalType": "uint256",
          "name": "prod1",
          "type": "uint256"
        }
      ],
      "name": "PRBMath__MulDivFixedPointOverflow",
      "type": "error"
    },
    {
      "inputs": [
        {
          "internalType": "uint256",
          "name": "prod1",
          "type": "uint256"
        },
        {
          "internalType": "uint256",
          "name": "denominator",
          "type": "uint256"
        }
      ],
      "name": "PRBMath__MulDivOverflow",
      "type": "error"
    },
    {
      "inputs": [],
      "name": "SlippageError",
      "type": "error"
    },
    {
      "inputs": [],
      "name": "UnauthorizedError",
      "type": "error"
    },
    {
      "inputs": [],
      "name": "VerifyError",
      "type": "error"
    },
    {
      "anonymous": false,
      "inputs": [
        {
          "indexed": true,
          "internalType": "address",
          "name": "payer",
          "type": "address"
        },
        {
          "indexed": true,
          "internalType": "address",
          "name": "lendgine",
          "type": "address"
        },
        {
          "indexed": false,
          "internalType": "uint256",
          "name": "shares",
          "type": "uint256"
        },
        {
          "indexed": false,
          "internalType": "uint256",
          "name": "liquidity",
          "type": "uint256"
        }
      ],
      "name": "Burn",
      "type": "event"
    },
    {
      "anonymous": false,
      "inputs": [
        {
          "indexed": true,
          "internalType": "address",
          "name": "recipient",
          "type": "address"
        },
        {
          "indexed": true,
          "internalType": "address",
          "name": "lendgine",
          "type": "address"
        },
        {
          "indexed": false,
          "internalType": "uint256",
          "name": "shares",
          "type": "uint256"
        },
        {
          "indexed": false,
          "internalType": "uint256",
          "name": "liquidity",
          "type": "uint256"
        }
      ],
      "name": "Mint",
      "type": "event"
    },
    {
      "inputs": [
        {
          "internalType": "uint256",
          "name": "amountS",
          "type": "uint256"
        },
        {
          "internalType": "bytes",
          "name": "data",
          "type": "bytes"
        }
      ],
      "name": "MintCallback",
      "outputs": [],
      "stateMutability": "nonpayable",
      "type": "function"
    },
    {
      "inputs": [
        {
          "components": [
            {
              "internalType": "address",
              "name": "base",
              "type": "address"
            },
            {
              "internalType": "address",
              "name": "speculative",
              "type": "address"
            },
            {
              "internalType": "uint256",
              "name": "baseScaleFactor",
              "type": "uint256"
            },
            {
              "internalType": "uint256",
              "name": "speculativeScaleFactor",
              "type": "uint256"
            },
            {
              "internalType": "uint256",
              "name": "upperBound",
              "type": "uint256"
            },
            {
              "internalType": "uint256",
              "name": "shares",
              "type": "uint256"
            },
            {
              "internalType": "uint256",
              "name": "liquidityMax",
              "type": "uint256"
            },
            {
              "internalType": "address",
              "name": "recipient",
              "type": "address"
            },
            {
              "internalType": "uint256",
              "name": "deadline",
              "type": "uint256"
            }
          ],
          "internalType": "struct LendgineRouter.BurnParams",
          "name": "params",
          "type": "tuple"
        }
      ],
      "name": "burn",
      "outputs": [
        {
          "internalType": "address",
          "name": "lendgine",
          "type": "address"
        }
      ],
      "stateMutability": "nonpayable",
      "type": "function"
    },
    {
      "inputs": [],
      "name": "factory",
      "outputs": [
        {
          "internalType": "address",
          "name": "",
          "type": "address"
        }
      ],
      "stateMutability": "view",
      "type": "function"
    },
    {
      "inputs": [
        {
          "components": [
            {
              "internalType": "address",
              "name": "base",
              "type": "address"
            },
            {
              "internalType": "address",
              "name": "speculative",
              "type": "address"
            },
            {
              "internalType": "uint256",
              "name": "baseScaleFactor",
              "type": "uint256"
            },
            {
              "internalType": "uint256",
              "name": "speculativeScaleFactor",
              "type": "uint256"
            },
            {
              "internalType": "uint256",
              "name": "upperBound",
              "type": "uint256"
            },
            {
              "internalType": "uint256",
              "name": "liquidity",
              "type": "uint256"
            },
            {
              "internalType": "uint256",
              "name": "borrowAmount",
              "type": "uint256"
            },
            {
              "internalType": "uint256",
              "name": "sharesMin",
              "type": "uint256"
            },
            {
              "internalType": "address",
              "name": "recipient",
              "type": "address"
            },
            {
              "internalType": "uint256",
              "name": "deadline",
              "type": "uint256"
            }
          ],
          "internalType": "struct LendgineRouter.MintParams",
          "name": "params",
          "type": "tuple"
        }
      ],
      "name": "mint",
      "outputs": [
        {
          "internalType": "address",
          "name": "lendgine",
          "type": "address"
        },
        {
          "internalType": "uint256",
          "name": "shares",
          "type": "uint256"
        }
      ],
      "stateMutability": "nonpayable",
      "type": "function"
    },
    {
      "inputs": [],
      "name": "uniFactory",
      "outputs": [
        {
          "internalType": "address",
          "name": "",
          "type": "address"
        }
      ],
      "stateMutability": "view",
      "type": "function"
    },
    {
      "inputs": [
        {
          "internalType": "address",
          "name": "",
          "type": "address"
        },
        {
          "internalType": "uint256",
          "name": "amount0",
          "type": "uint256"
        },
        {
          "internalType": "uint256",
          "name": "amount1",
          "type": "uint256"
        },
        {
          "internalType": "bytes",
          "name": "data",
          "type": "bytes"
        }
      ],
      "name": "uniswapV2Call",
      "outputs": [],
      "stateMutability": "nonpayable",
      "type": "function"
    }
  ],
  "bytecode": {
    "object": "0x60c06040523480156200001157600080fd5b506040516200234538038062002345833981016040819052620000349162000069565b6001600160a01b039182166080521660a052620000a1565b80516001600160a01b03811681146200006457600080fd5b919050565b600080604083850312156200007d57600080fd5b62000088836200004c565b915062000098602084016200004c565b90509250929050565b60805160a051612255620000f06000396000818160da015281816102630152610e6c01526000818161012c015281816101ff0152818161058f01528181610b270152610b8001526122556000f3fe608060405234801561001057600080fd5b50600436106100715760003560e01c806376771d4b1161005057806376771d4b146100d5578063a85d522514610114578063c45a01551461012757600080fd5b8062ee087a14610076578063019e868b146100ad57806310d1e85c146100c2575b600080fd5b610089610084366004611bea565b61014e565b604080516001600160a01b0390931683526020830191909152015b60405180910390f35b6100c06100bb366004611c46565b61057a565b005b6100c06100d0366004611cba565b6108a2565b6100fc7f000000000000000000000000000000000000000000000000000000000000000081565b6040516001600160a01b0390911681526020016100a4565b6100fc610122366004611d24565b610ae0565b6100fc7f000000000000000000000000000000000000000000000000000000000000000081565b60008082610120013542811015610191576040517f0756982f00000000000000000000000000000000000000000000000000000000815260040160405180910390fd5b6040805160a08101909152600090806101ad6020880188611d37565b6001600160a01b031681526020018660200160208101906101ce9190611d37565b6001600160a01b031681526020018660400135815260200186606001358152602001866080013581525090506102557f00000000000000000000000000000000000000000000000000000000000000008660000160208101906102319190611d37565b6102416040890160208a01611d37565b886040013589606001358a608001356113f1565b935060006001600160a01b037f00000000000000000000000000000000000000000000000000000000000000001663e6a439056102956020890189611d37565b6102a560408a0160208b01611d37565b6040517fffffffff0000000000000000000000000000000000000000000000000000000060e085901b1681526001600160a01b03928316600482015291166024820152604401602060405180830381865afa158015610308573d6000803e3d6000fd5b505050506040513d601f19601f8201168201806040525081019061032c9190611d54565b6040517f12fb162d00000000000000000000000000000000000000000000000000000000815260a088013560048201529091506000906001600160a01b038716906312fb162d90602401602060405180830381865afa158015610393573d6000803e3d6000fd5b505050506040513d601f19601f820116820180604052508101906103b79190611d71565b90506001600160a01b0386166394d008ef6103da6101208a016101008b01611d37565b6103e860c08b013585611db9565b60408051606080820183528982526001600160a01b0389811660208085019182523394860194855285518d51841681830152908d0151831681870152948c015185840152918b01516080808601919091528b015160a08501529051811660c084015290511660e0820152610100016040516020818303038152906040526040518463ffffffff1660e01b815260040161048393929190611e30565b6020604051808303816000875af11580156104a2573d6000803e3d6000fd5b505050506040513d601f19601f820116820180604052508101906104c69190611d71565b94508660e00135851015610506576040517f1a840b4200000000000000000000000000000000000000000000000000000000815260040160405180910390fd5b6001600160a01b03861661052261012089016101008a01611d37565b6001600160a01b03167f2f00e3cdd69a77be7ed215ec7b2a36784dd158f921fca79ac29deffa353fe6ee878a60a00135604051610569929190918252602082015260400190565b60405180910390a350505050915091565b600061058882840184611efb565b90506105b87f00000000000000000000000000000000000000000000000000000000000000008260000151611533565b506040517f9ff47dc3000000000000000000000000000000000000000000000000000000008152600481018590526000903390639ff47dc390602401602060405180830381865afa158015610611573d6000803e3d6000fd5b505050506040513d601f19601f820116820180604052508101906106359190611d71565b9050600080336001600160a01b031663a8aa1b316040518163ffffffff1660e01b8152600401602060405180830381865afa158015610678573d6000803e3d6000fd5b505050506040513d601f19601f8201168201806040525081019061069c9190611d54565b6040517f9dc29fac000000000000000000000000000000000000000000000000000000008152306004820152602481018590526001600160a01b039190911690639dc29fac9060440160408051808303816000875af1158015610703573d6000803e3d6000fd5b505050506040513d601f19601f820116820180604052508101906107279190611f9b565b855151602087015192945090925061073f91846115a1565b60006107748386602001518760000151602001516001600160a01b03168860000151600001516001600160a01b031610611631565b905084602001516001600160a01b031663022c0d9f8660000151602001516001600160a01b03168760000151600001516001600160a01b0316106107b857826107bb565b60005b8751602081015190516001600160a01b039182169116106107dd5760006107df565b835b604080516020810182526000815290517fffffffff0000000000000000000000000000000000000000000000000000000060e086901b1681526108289392913391600401611fbf565b600060405180830381600087803b15801561084257600080fd5b505af1158015610856573d6000803e3d6000fd5b5050505061086d85600001516020015133846115a1565b845160200151604086015161089891903385610889868e611ff7565b6108939190611ff7565b611733565b5050505050505050565b60006108b08284018461200a565b90506108ed8160600151826020015183604001516001600160a01b031684606001516001600160a01b0316106108e657866115a1565b875b6115a1565b6109278160400151826020015183604001516001600160a01b031684606001516001600160a01b03161061092157876115a1565b866115a1565b602081015160808201516040517fa0712d680000000000000000000000000000000000000000000000000000000081526001600160a01b039092169163a0712d68916109799160040190815260200190565b600060405180830381600087803b15801561099357600080fd5b505af11580156109a7573d6000803e3d6000fd5b505082516040517f89afcb440000000000000000000000000000000000000000000000000000000081523060048201526001600160a01b0390911692506389afcb4491506024016020604051808303816000875af1158015610a0d573d6000803e3d6000fd5b505050506040513d601f19601f82011682018060405250810190610a319190611d71565b50610a458160400151338360a001516115a1565b610ad881604001518260c001518360a0015184600001516001600160a01b03166312fb162d86608001516040518263ffffffff1660e01b8152600401610a8d91815260200190565b602060405180830381865afa158015610aaa573d6000803e3d6000fd5b505050506040513d601f19601f82011682018060405250810190610ace9190611d71565b6108e89190611ff7565b505050505050565b600081610100013542811015610b22576040517f0756982f00000000000000000000000000000000000000000000000000000000815260040160405180910390fd5b610b777f0000000000000000000000000000000000000000000000000000000000000000610b536020860186611d37565b610b636040870160208801611d37565b8660400135876060013588608001356113f1565b91506000610bd07f0000000000000000000000000000000000000000000000000000000000000000610bac6020870187611d37565b610bbc6040880160208901611d37565b8760400135886060013589608001356117d3565b9050826001600160a01b031663a6afed956040518163ffffffff1660e01b8152600401600060405180830381600087803b158015610c0d57600080fd5b505af1158015610c21573d6000803e3d6000fd5b50506040517f3b7cf69900000000000000000000000000000000000000000000000000000000815260a08701356004820152600092506001600160a01b0386169150633b7cf69990602401602060405180830381865afa158015610c89573d6000803e3d6000fd5b505050506040513d601f19601f82011682018060405250810190610cad9190611d71565b90508460c00135811115610ced576040517f1a840b4200000000000000000000000000000000000000000000000000000000815260040160405180910390fd5b600080600080856001600160a01b031663443cb4bc6040518163ffffffff1660e01b8152600401602060405180830381865afa158015610d31573d6000803e3d6000fd5b505050506040513d601f19601f82011682018060405250810190610d5591906120dd565b866001600160a01b0316635a76f25e6040518163ffffffff1660e01b8152600401602060405180830381865afa158015610d93573d6000803e3d6000fd5b505050506040513d601f19601f82011682018060405250810190610db791906120dd565b6effffffffffffffffffffffffffffff1691506effffffffffffffffffffffffffffff1691506000866001600160a01b03166318160ddd6040518163ffffffff1660e01b8152600401602060405180830381865afa158015610e1d573d6000803e3d6000fd5b505050506040513d601f19601f82011682018060405250810190610e419190611d71565b9050610e4e8387836118d3565b9450610e5b8287836118d3565b935060009250506001600160a01b037f000000000000000000000000000000000000000000000000000000000000000016905063e6a43905610ea060208b018b611d37565b610eb060408c0160208d01611d37565b6040517fffffffff0000000000000000000000000000000000000000000000000000000060e085901b1681526001600160a01b03928316600482015291166024820152604401602060405180830381865afa158015610f13573d6000803e3d6000fd5b505050506040513d601f19601f82011682018060405250810190610f379190611d54565b90506000806000836001600160a01b0316630902f1ac6040518163ffffffff1660e01b8152600401606060405180830381865afa158015610f7c573d6000803e3d6000fd5b505050506040513d601f19601f82011682018060405250810190610fa0919061212c565b506dffffffffffffffffffffffffffff1691506dffffffffffffffffffffffffffff1691506110856040518060c001604052808981526020018d6080013581526020018881526020018781526020018d60200160208101906110029190611d37565b6001600160a01b03168e600001602081019061101e9190611d37565b6001600160a01b0316106110325783611034565b845b81526020018d602001602081019061104c9190611d37565b6001600160a01b03168e60000160208101906110689190611d37565b6001600160a01b03161061107c578461107e565b835b90526119dc565b6040517f23b872dd0000000000000000000000000000000000000000000000000000000081523360048201526001600160a01b038c166024820181905260a08e013560448301529194509092506323b872dd91506064016020604051808303816000875af11580156110fb573d6000803e3d6000fd5b505050506040513d601f19601f8201168201806040525081019061111f919061217c565b506001600160a01b03861663bc25cf776111406101008c0160e08d01611d37565b6040517fffffffff0000000000000000000000000000000000000000000000000000000060e084901b1681526001600160a01b039091166004820152602401600060405180830381600087803b15801561119957600080fd5b505af11580156111ad573d6000803e3d6000fd5b5050506001600160a01b038316905063022c0d9f6111d160408c0160208d01611d37565b6001600160a01b03166111e760208d018d611d37565b6001600160a01b0316106111fb57846111fd565b855b61120d60408d0160208e01611d37565b6001600160a01b031661122360208e018e611d37565b6001600160a01b0316106112375786611239565b855b306040518060e001604052808e6001600160a01b031681526020018c6001600160a01b031681526020018f60200160208101906112769190611d37565b6001600160a01b031681526020018f60000160208101906112979190611d37565b6001600160a01b031681526020018b81526020018781526020018f60e00160208101906112c49190611d37565b6001600160a01b0316905260405161133b9190602001600060e0820190506001600160a01b038084511683528060208501511660208401528060408501511660408401528060608501511660608401526080840151608084015260a084015160a08401528060c08501511660c08401525092915050565b6040516020818303038152906040526040518563ffffffff1660e01b81526004016113699493929190611fbf565b600060405180830381600087803b15801561138357600080fd5b505af1158015611397573d6000803e3d6000fd5b50506040805160a08d01358152602081018990526001600160a01b038c1693503392507f5d624aa9c148153ab3446c1b154f660ee7701e549fe9b62dab7171b1c80e6fa2910160405180910390a350505050505050919050565b604080516001600160a01b038088166020830152861691810191909152606081018490526080810183905260a081018290526000908190889060c001604080517fffffffffffffffffffffffffffffffffffffffffffffffffffffffffffffffe08184030181529082905280516020918201206114f1939290917f9101404c2fc5bb57420f46e13e779f8dec42472e5a39a8efe14ae9ef59cb116d91017fff00000000000000000000000000000000000000000000000000000000000000815260609390931b7fffffffffffffffffffffffffffffffffffffffff0000000000000000000000001660018401526015830191909152603582015260550190565b604080518083037fffffffffffffffffffffffffffffffffffffffffffffffffffffffffffffffe0018152919052805160209091012098975050505050505050565b600061155783836000015184602001518560400151866060015187608001516113f1565b9050336001600160a01b0382161461159b576040517f4fbee53800000000000000000000000000000000000000000000000000000000815260040160405180910390fd5b92915050565b60006040517fa9059cbb0000000000000000000000000000000000000000000000000000000081526001600160a01b03841660048201528260248201526000806044836000895af19150506115f581611a6d565b61162b576040517fbfa871c500000000000000000000000000000000000000000000000000000000815260040160405180910390fd5b50505050565b6000806000846001600160a01b0316630902f1ac6040518163ffffffff1660e01b8152600401606060405180830381865afa158015611674573d6000803e3d6000fd5b505050506040513d601f19601f82011682018060405250810190611698919061212c565b506dffffffffffffffffffffffffffff1691506dffffffffffffffffffffffffffff1691506000846116ca57816116cc565b825b90506000856116db57836116dd565b825b905060006116ed896103e561219e565b905060006116fb838361219e565b905060008261170c866103e861219e565b6117169190611db9565b905061172281836121e4565b9750505050505050505b9392505050565b60006040517f23b872dd0000000000000000000000000000000000000000000000000000000081526001600160a01b03851660048201526001600160a01b038416602482015282604482015260008060648360008a5af191505061179681611a6d565b6117cc576040517fa83c475400000000000000000000000000000000000000000000000000000000815260040160405180910390fd5b5050505050565b604080516001600160a01b038088166020830152861691810191909152606081018490526080810183905260a081018290526000908190889060c001604080517fffffffffffffffffffffffffffffffffffffffffffffffffffffffffffffffe08184030181529082905280516020918201206114f1939290917fae887163957dc6a8f4e27cb5de5e2a224a23e9cd702eefaecb4b753b9b4d299791017fff00000000000000000000000000000000000000000000000000000000000000815260609390931b7fffffffffffffffffffffffffffffffffffffffff0000000000000000000000001660018401526015830191909152603582015260550190565b600080807fffffffffffffffffffffffffffffffffffffffffffffffffffffffffffffffff8587098587029250828110838203039150508060000361192b57838281611921576119216121b5565b049250505061172c565b838110611973576040517f773cc18c00000000000000000000000000000000000000000000000000000000815260048101829052602481018590526044015b60405180910390fd5b60008486880960026001871981018816978890046003810283188082028403028082028403028082028403028082028403028082028403029081029092039091026000889003889004909101858311909403939093029303949094049190911702949350505050565b6000806119f183604001518460600151611ab2565b611a038460a001518560400151611ab2565b611a1585608001518660600151611ab2565b611a1f9190611db9565b611a299190611db9565b611a35906103e861219e565b9050600083604001518460800151611a4d9190611ff7565b611a59906103e561219e565b9050611a658282611abe565b949350505050565b600081611a7e573d6000803e3d6000fd5b3d60208114611a96578015611aa75760009150611aac565b3d6000803e60005115159150611aac565b600191505b50919050565b600061172c8383611ad3565b600061172c83670de0b6b3a7640000846118d3565b600080807fffffffffffffffffffffffffffffffffffffffffffffffffffffffffffffffff848609848602925082811083820303915050670de0b6b3a76400008110611b4e576040517fd31b34020000000000000000000000000000000000000000000000000000000081526004810182905260240161196a565b600080670de0b6b3a764000086880991506706f05b59d3b1ffff8211905082600003611b8c5780670de0b6b3a764000085040194505050505061159b565b6204000082850304939091119091037d40000000000000000000000000000000000000000000000000000000000002919091177faccb18165bd6fe31ae1cf318dc5b51eee0e1ba569b88cd74c1773b91fac106690201905092915050565b60006101408284031215611aac57600080fd5b60008083601f840112611c0f57600080fd5b50813567ffffffffffffffff811115611c2757600080fd5b602083019150836020828501011115611c3f57600080fd5b9250929050565b600080600060408486031215611c5b57600080fd5b83359250602084013567ffffffffffffffff811115611c7957600080fd5b611c8586828701611bfd565b9497909650939450505050565b6001600160a01b0381168114611ca757600080fd5b50565b8035611cb581611c92565b919050565b600080600080600060808688031215611cd257600080fd5b8535611cdd81611c92565b94506020860135935060408601359250606086013567ffffffffffffffff811115611d0757600080fd5b611d1388828901611bfd565b969995985093965092949392505050565b60006101208284031215611aac57600080fd5b600060208284031215611d4957600080fd5b813561172c81611c92565b600060208284031215611d6657600080fd5b815161172c81611c92565b600060208284031215611d8357600080fd5b5051919050565b7f4e487b7100000000000000000000000000000000000000000000000000000000600052601160045260246000fd5b8082018082111561159b5761159b611d8a565b6000815180845260005b81811015611df257602081850181015186830182015201611dd6565b5060006020828601015260207fffffffffffffffffffffffffffffffffffffffffffffffffffffffffffffffe0601f83011685010191505092915050565b6001600160a01b0384168152826020820152606060408201526000611e586060830184611dcc565b95945050505050565b6040516060810167ffffffffffffffff81118282101715611eab577f4e487b7100000000000000000000000000000000000000000000000000000000600052604160045260246000fd5b60405290565b60405160a0810167ffffffffffffffff81118282101715611eab577f4e487b7100000000000000000000000000000000000000000000000000000000600052604160045260246000fd5b600081830360e0811215611f0e57600080fd5b611f16611e61565b60a0821215611f2457600080fd5b611f2c611eb1565b91508335611f3981611c92565b82526020840135611f4981611c92565b80602084015250604084013560408301526060840135606083015260808401356080830152818152611f7d60a08501611caa565b6020820152611f8e60c08501611caa565b6040820152949350505050565b60008060408385031215611fae57600080fd5b505080516020909101519092909150565b8481528360208201526001600160a01b0383166040820152608060608201526000611fed6080830184611dcc565b9695505050505050565b8181038181111561159b5761159b611d8a565b600060e0828403121561201c57600080fd5b60405160e0810181811067ffffffffffffffff82111715612066577f4e487b7100000000000000000000000000000000000000000000000000000000600052604160045260246000fd5b604052823561207481611c92565b8152602083013561208481611c92565b6020820152604083013561209781611c92565b604082015260608301356120aa81611c92565b806060830152506080830135608082015260a083013560a08201526120d160c08401611caa565b60c08201529392505050565b6000602082840312156120ef57600080fd5b81516effffffffffffffffffffffffffffff8116811461172c57600080fd5b80516dffffffffffffffffffffffffffff81168114611cb557600080fd5b60008060006060848603121561214157600080fd5b61214a8461210e565b92506121586020850161210e565b9150604084015163ffffffff8116811461217157600080fd5b809150509250925092565b60006020828403121561218e57600080fd5b8151801515811461172c57600080fd5b808202811582820484141761159b5761159b611d8a565b7f4e487b7100000000000000000000000000000000000000000000000000000000600052601260045260246000fd5b60008261221a577f4e487b7100000000000000000000000000000000000000000000000000000000600052601260045260246000fd5b50049056fea2646970667358221220e7370f86f58cb5f9ac003c25599dba09667b41b7a89eefe7f7e3db5db722472964736f6c63430008110033",
    "linkReferences": {}
  },
  "methodIdentifiers": {
    "MintCallback(uint256,bytes)": "019e868b",
    "burn((address,address,uint256,uint256,uint256,uint256,uint256,address,uint256))": "a85d5225",
    "factory()": "c45a0155",
    "mint((address,address,uint256,uint256,uint256,uint256,uint256,uint256,address,uint256))": "00ee087a",
    "uniFactory()": "76771d4b",
    "uniswapV2Call(address,uint256,uint256,bytes)": "10d1e85c"
  },
  "id": 39
}