{
  "abi": [
    {
      "inputs": [
        {
          "internalType": "address",
          "name": "_factory",
          "type": "address"
        },
        {
          "internalType": "address",
          "name": "_weth9",
          "type": "address"
        }
      ],
      "stateMutability": "nonpayable",
      "type": "constructor"
    },
    {
      "inputs": [],
      "name": "CollectError",
      "type": "error"
    },
    {
      "inputs": [],
      "name": "FailedTransfer",
      "type": "error"
    },
    {
      "inputs": [],
      "name": "FailedTransferETH",
      "type": "error"
    },
    {
      "inputs": [],
      "name": "FailedTransferFrom",
      "type": "error"
    },
    {
      "inputs": [],
      "name": "LivelinessError",
      "type": "error"
    },
    {
      "inputs": [
        {
          "internalType": "uint256",
          "name": "prod1",
          "type": "uint256"
        }
      ],
      "name": "PRBMath__MulDivFixedPointOverflow",
      "type": "error"
    },
    {
      "inputs": [
        {
          "internalType": "uint256",
          "name": "prod1",
          "type": "uint256"
        },
        {
          "internalType": "uint256",
          "name": "denominator",
          "type": "uint256"
        }
      ],
      "name": "PRBMath__MulDivOverflow",
      "type": "error"
    },
    {
      "inputs": [],
      "name": "PositionInvalidError",
      "type": "error"
    },
    {
      "inputs": [],
      "name": "SlippageError",
      "type": "error"
    },
    {
      "inputs": [],
      "name": "UnauthorizedError",
      "type": "error"
    },
    {
      "anonymous": false,
      "inputs": [
        {
          "indexed": true,
          "internalType": "uint256",
          "name": "tokenID",
          "type": "uint256"
        },
        {
          "indexed": false,
          "internalType": "uint256",
          "name": "amount",
          "type": "uint256"
        }
      ],
      "name": "Collect",
      "type": "event"
    },
    {
      "anonymous": false,
      "inputs": [
        {
          "indexed": true,
          "internalType": "uint256",
          "name": "tokenID",
          "type": "uint256"
        },
        {
          "indexed": false,
          "internalType": "uint256",
          "name": "liquidity",
          "type": "uint256"
        }
      ],
      "name": "DecreaseLiquidity",
      "type": "event"
    },
    {
      "anonymous": false,
      "inputs": [
        {
          "indexed": true,
          "internalType": "uint256",
          "name": "tokenID",
          "type": "uint256"
        },
        {
          "indexed": false,
          "internalType": "uint256",
          "name": "liquidity",
          "type": "uint256"
        },
        {
          "indexed": false,
          "internalType": "uint256",
          "name": "amount0",
          "type": "uint256"
        },
        {
          "indexed": false,
          "internalType": "uint256",
          "name": "amount1",
          "type": "uint256"
        }
      ],
      "name": "IncreaseLiquidity",
      "type": "event"
    },
    {
      "anonymous": false,
      "inputs": [
        {
          "indexed": true,
          "internalType": "address",
          "name": "operator",
          "type": "address"
        },
        {
          "indexed": true,
          "internalType": "uint256",
          "name": "tokenID",
          "type": "uint256"
        },
        {
          "indexed": false,
          "internalType": "uint256",
          "name": "liquidity",
          "type": "uint256"
        },
        {
          "indexed": false,
          "internalType": "uint256",
          "name": "amount0",
          "type": "uint256"
        },
        {
          "indexed": false,
          "internalType": "uint256",
          "name": "amount1",
          "type": "uint256"
        }
      ],
      "name": "Mint",
      "type": "event"
    },
    {
      "inputs": [],
      "name": "WETH9",
      "outputs": [
        {
          "internalType": "address",
          "name": "",
          "type": "address"
        }
      ],
      "stateMutability": "view",
      "type": "function"
    },
    {
      "inputs": [
        {
          "components": [
            {
              "internalType": "uint256",
              "name": "tokenID",
              "type": "uint256"
            },
            {
              "internalType": "address",
              "name": "recipient",
              "type": "address"
            },
            {
              "internalType": "uint256",
              "name": "amountRequested",
              "type": "uint256"
            }
          ],
          "internalType": "struct LiquidityManager.CollectParams",
          "name": "params",
          "type": "tuple"
        }
      ],
      "name": "collect",
      "outputs": [
        {
          "internalType": "uint256",
          "name": "amount",
          "type": "uint256"
        }
      ],
      "stateMutability": "payable",
      "type": "function"
    },
    {
      "inputs": [
        {
          "components": [
            {
              "internalType": "uint256",
              "name": "tokenID",
              "type": "uint256"
            },
            {
              "internalType": "uint256",
              "name": "liquidity",
              "type": "uint256"
            },
            {
              "internalType": "uint256",
              "name": "amount0Min",
              "type": "uint256"
            },
            {
              "internalType": "uint256",
              "name": "amount1Min",
              "type": "uint256"
            },
            {
              "internalType": "address",
              "name": "recipient",
              "type": "address"
            },
            {
              "internalType": "uint256",
              "name": "deadline",
              "type": "uint256"
            }
          ],
          "internalType": "struct LiquidityManager.DecreaseLiquidityParams",
          "name": "params",
          "type": "tuple"
        }
      ],
      "name": "decreaseLiquidity",
      "outputs": [],
      "stateMutability": "payable",
      "type": "function"
    },
    {
      "inputs": [],
      "name": "factory",
      "outputs": [
        {
          "internalType": "address",
          "name": "",
          "type": "address"
        }
      ],
      "stateMutability": "view",
      "type": "function"
    },
    {
      "inputs": [
        {
          "internalType": "uint256",
          "name": "tokenID",
          "type": "uint256"
        }
      ],
      "name": "getPosition",
      "outputs": [
        {
          "internalType": "address",
          "name": "operator",
          "type": "address"
        },
        {
          "internalType": "address",
          "name": "base",
          "type": "address"
        },
        {
          "internalType": "address",
          "name": "speculative",
          "type": "address"
        },
        {
          "internalType": "uint256",
          "name": "baseScaleFactor",
          "type": "uint256"
        },
        {
          "internalType": "uint256",
          "name": "speculativeScaleFactor",
          "type": "uint256"
        },
        {
          "internalType": "uint256",
          "name": "upperBound",
          "type": "uint256"
        },
        {
          "internalType": "uint256",
          "name": "liquidity",
          "type": "uint256"
        },
        {
          "internalType": "uint256",
          "name": "rewardPerLiquidityPaid",
          "type": "uint256"
        },
        {
          "internalType": "uint256",
          "name": "tokensOwed",
          "type": "uint256"
        }
      ],
      "stateMutability": "view",
      "type": "function"
    },
    {
      "inputs": [
        {
          "components": [
            {
              "internalType": "uint256",
              "name": "tokenID",
              "type": "uint256"
            },
            {
              "internalType": "uint256",
              "name": "amount0Min",
              "type": "uint256"
            },
            {
              "internalType": "uint256",
              "name": "amount1Min",
              "type": "uint256"
            },
            {
              "internalType": "uint256",
              "name": "liquidity",
              "type": "uint256"
            },
            {
              "internalType": "uint256",
              "name": "deadline",
              "type": "uint256"
            }
          ],
          "internalType": "struct LiquidityManager.IncreaseLiquidityParams",
          "name": "params",
          "type": "tuple"
        }
      ],
      "name": "increaseLiquidity",
      "outputs": [],
      "stateMutability": "payable",
      "type": "function"
    },
    {
      "inputs": [
        {
          "components": [
            {
              "internalType": "address",
              "name": "base",
              "type": "address"
            },
            {
              "internalType": "address",
              "name": "speculative",
              "type": "address"
            },
            {
              "internalType": "uint256",
              "name": "baseScaleFactor",
              "type": "uint256"
            },
            {
              "internalType": "uint256",
              "name": "speculativeScaleFactor",
              "type": "uint256"
            },
            {
              "internalType": "uint256",
              "name": "upperBound",
              "type": "uint256"
            },
            {
              "internalType": "uint256",
              "name": "amount0Min",
              "type": "uint256"
            },
            {
              "internalType": "uint256",
              "name": "amount1Min",
              "type": "uint256"
            },
            {
              "internalType": "uint256",
              "name": "liquidity",
              "type": "uint256"
            },
            {
              "internalType": "address",
              "name": "recipient",
              "type": "address"
            },
            {
              "internalType": "uint256",
              "name": "deadline",
              "type": "uint256"
            }
          ],
          "internalType": "struct LiquidityManager.MintParams",
          "name": "params",
          "type": "tuple"
        }
      ],
      "name": "mint",
      "outputs": [
        {
          "internalType": "uint256",
          "name": "tokenID",
          "type": "uint256"
        }
      ],
      "stateMutability": "payable",
      "type": "function"
    },
    {
      "inputs": [
        {
          "internalType": "bytes[]",
          "name": "data",
          "type": "bytes[]"
        }
      ],
      "name": "multicall",
      "outputs": [
        {
          "internalType": "bytes[]",
          "name": "results",
          "type": "bytes[]"
        }
      ],
      "stateMutability": "payable",
      "type": "function"
    },
    {
      "inputs": [],
      "name": "refundETH",
      "outputs": [],
      "stateMutability": "payable",
      "type": "function"
    },
    {
      "inputs": [
        {
          "components": [
            {
              "internalType": "address",
              "name": "base",
              "type": "address"
            },
            {
              "internalType": "address",
              "name": "speculative",
              "type": "address"
            },
            {
              "internalType": "uint256",
              "name": "baseScaleFactor",
              "type": "uint256"
            },
            {
              "internalType": "uint256",
              "name": "speculativeScaleFactor",
              "type": "uint256"
            },
            {
              "internalType": "uint256",
              "name": "upperBound",
              "type": "uint256"
            },
            {
              "internalType": "address",
              "name": "recipient",
              "type": "address"
            }
          ],
          "internalType": "struct LiquidityManager.SkimParams",
          "name": "params",
          "type": "tuple"
        }
      ],
      "name": "skim",
      "outputs": [],
      "stateMutability": "payable",
      "type": "function"
    },
    {
      "inputs": [
        {
          "internalType": "address",
          "name": "token",
          "type": "address"
        },
        {
          "internalType": "uint256",
          "name": "amountMinimum",
          "type": "uint256"
        },
        {
          "internalType": "address",
          "name": "recipient",
          "type": "address"
        }
      ],
      "name": "sweepToken",
      "outputs": [],
      "stateMutability": "payable",
      "type": "function"
    },
    {
      "inputs": [
        {
          "internalType": "uint256",
          "name": "amountMinimum",
          "type": "uint256"
        },
        {
          "internalType": "address",
          "name": "recipient",
          "type": "address"
        }
      ],
      "name": "unwrapWETH9",
      "outputs": [],
      "stateMutability": "payable",
      "type": "function"
    },
    {
      "stateMutability": "payable",
      "type": "receive"
    }
  ],
  "bytecode": {
    "object": "0x60c06040527601000000000000000000000000000000000000000000016003553480156200002c57600080fd5b5060405162002ff338038062002ff38339810160408190526200004f9162000084565b6001600160a01b039081166080521660a052620000bc565b80516001600160a01b03811681146200007f57600080fd5b919050565b600080604083850312156200009857600080fd5b620000a38362000067565b9150620000b36020840162000067565b90509250929050565b60805160a051612eb062000143600039600081816102520152818161045c015281816104bb01528181610d290152818161114d0152818161117f015281816115e201528181611845015261187901526000818160da015281816101c001528181610a4601528181610b5a015281816122c00152818161230601526123b40152612eb06000f3fe6080604052600436106100ca5760003560e01c8063ac9650d811610074578063dbd198481161004e578063dbd1984814610287578063df2ab5bb1461029a578063eb02c301146102ad57600080fd5b8063ac9650d814610220578063c45a015514610240578063cd321b401461027457600080fd5b80634aa4a4fc116100a55780634aa4a4fc146101ae5780637cbf88aa146101fa5780638b874f761461020d57600080fd5b8062ee087a1461016d57806312210e8a1461019357806349404b7c1461019b57600080fd5b3661016857336001600160a01b037f00000000000000000000000000000000000000000000000000000000000000001614610166576040517f08c379a000000000000000000000000000000000000000000000000000000000815260206004820152600960248201527f4e6f74205745544839000000000000000000000000000000000000000000000060448201526064015b60405180910390fd5b005b600080fd5b61018061017b366004612874565b610322565b6040519081526020015b60405180910390f35b610166610a03565b6101666101a93660046128a3565b610a15565b3480156101ba57600080fd5b506101e27f000000000000000000000000000000000000000000000000000000000000000081565b6040516001600160a01b03909116815260200161018a565b6101806102083660046128cf565b610bcd565b61016661021b3660046128f3565b610fb2565b61023361022e36600461290f565b611469565b60405161018a91906129f2565b34801561024c57600080fd5b506101e27f000000000000000000000000000000000000000000000000000000000000000081565b6101666102823660046128f3565b6115db565b610166610295366004612a72565b6116e9565b6101666102a8366004612a84565b611cb3565b3480156102b957600080fd5b506102cd6102c8366004612ac0565b611dba565b604080516001600160a01b039a8b168152988a1660208a015296909816958701959095526060860193909352608085019190915260a084015260c083015260e08201526101008101919091526101200161018a565b600081610120013542811015610364576040517f0756982f00000000000000000000000000000000000000000000000000000000815260040160405180910390fd5b6003805475ffffffffffffffffffffffffffffffffffffffffffff1690600061038c83612b08565b91906101000a81548175ffffffffffffffffffffffffffffffffffffffffffff021916908375ffffffffffffffffffffffffffffffffffffffffffff16021790555075ffffffffffffffffffffffffffffffffffffffffffff16915060006040518060a001604052808560000160208101906104089190612b3d565b6001600160a01b031681526020018560200160208101906104299190612b3d565b6001600160a01b0316815260200185604001358152602001856060013581526020018560800135815250905060006104b27f000000000000000000000000000000000000000000000000000000000000000086600001602081019061048e9190612b3d565b61049e6040890160208a01612b3d565b886040013589606001358a60800135611f72565b9050600061050b7f00000000000000000000000000000000000000000000000000000000000000006104e76020890189612b3d565b6104f760408a0160208b01612b3d565b89604001358a606001358b608001356120b4565b9050600080826001600160a01b031663443cb4bc6040518163ffffffff1660e01b8152600401602060405180830381865afa15801561054e573d6000803e3d6000fd5b505050506040513d601f19601f820116820180604052508101906105729190612b58565b836001600160a01b0316635a76f25e6040518163ffffffff1660e01b8152600401602060405180830381865afa1580156105b0573d6000803e3d6000fd5b505050506040513d601f19601f820116820180604052508101906105d49190612b58565b6effffffffffffffffffffffffffffff1691506effffffffffffffffffffffffffffff1691506000836001600160a01b03166318160ddd6040518163ffffffff1660e01b8152600401602060405180830381865afa15801561063a573d6000803e3d6000fd5b505050506040513d601f19601f8201168201806040525081019061065e9190612b89565b90506000808260000361067c57505060a089013560c08a013561069f565b61068b858c60e00135856121b4565b915061069c848c60e00135856121b4565b90505b8a60a001358210806106b457508a60c0013581105b156106eb576040517f1a840b4200000000000000000000000000000000000000000000000000000000815260040160405180910390fd5b6107036106fb60208d018d612b3d565b3388856122be565b61071e61071660408d0160208e01612b3d565b3388846122be565b6040517fa0712d6800000000000000000000000000000000000000000000000000000000815260e08c013560048201526001600160a01b0387169063a0712d6890602401600060405180830381600087803b15801561077c57600080fd5b505af1158015610790573d6000803e3d6000fd5b50506040517ff340fa010000000000000000000000000000000000000000000000000000000081523060048201526001600160a01b038a16925063f340fa019150602401600060405180830381600087803b1580156107ee57600080fd5b505af1158015610802573d6000803e3d6000fd5b505050506000610812888a612457565b6040517f55f575100000000000000000000000000000000000000000000000000000000081523060048201529091506000906001600160a01b038a16906355f5751090602401606060405180830381865afa158015610875573d6000803e3d6000fd5b505050506040513d601f19601f820116820180604052508101906108999190612ba2565b509150506040518060a001604052808e60e001358152602001828152602001600081526020018369ffffffffffffffffffff1681526020018e6101000160208101906108e59190612b3d565b6001600160a01b0316815250600260008e815260200190815260200160002060008201518160000155602082015181600101556040820151816002015560608201518160030160006101000a81548169ffffffffffffffffffff021916908369ffffffffffffffffffff160217905550608082015181600301600a6101000a8154816001600160a01b0302191690836001600160a01b031602179055509050508b8d61010001602081019061099a9190612b3d565b6001600160a01b03167f94c792774c59479f7bd68442f3af3691c02123a5aabee8b6f9116d8af8aa66698f60e0013587876040516109eb939291909283526020830191909152604082015260600190565b60405180910390a35050505050505050505050919050565b4715610a1357610a13334761259d565b565b6040517f70a082310000000000000000000000000000000000000000000000000000000081523060048201526000907f00000000000000000000000000000000000000000000000000000000000000006001600160a01b0316906370a0823190602401602060405180830381865afa158015610a95573d6000803e3d6000fd5b505050506040513d601f19601f82011682018060405250810190610ab99190612b89565b905082811015610b25576040517f08c379a000000000000000000000000000000000000000000000000000000000815260206004820152601260248201527f496e73756666696369656e742057455448390000000000000000000000000000604482015260640161015d565b8015610bc8576040517f2e1a7d4d000000000000000000000000000000000000000000000000000000008152600481018290527f00000000000000000000000000000000000000000000000000000000000000006001600160a01b031690632e1a7d4d90602401600060405180830381600087803b158015610ba657600080fd5b505af1158015610bba573d6000803e3d6000fd5b50505050610bc8828261259d565b505050565b8035600090815260026020526040812060038101546a010000000000000000000090046001600160a01b03163314610c31576040517f8b5701f700000000000000000000000000000000000000000000000000000000815260040160405180910390fd5b600381015469ffffffffffffffffffff16600003610c7b576040517f6a4de01900000000000000000000000000000000000000000000000000000000815260040160405180910390fd5b600080610c8e6040860160208701612b3d565b6001600160a01b031614610cb157610cac6040850160208601612b3d565b610cb3565b305b60038084015469ffffffffffffffffffff166000908152600160208181526040808420815160a08101835281546001600160a01b039081168083529583015416938101849052600282015492810183905295810154606087018190526004909101546080870181905296975094959394610d52947f00000000000000000000000000000000000000000000000000000000000000009493929190611f72565b9050806001600160a01b0316634fd9b90a6040518163ffffffff1660e01b8152600401600060405180830381600087803b158015610d8f57600080fd5b505af1158015610da3573d6000803e3d6000fd5b50506040517f55f57510000000000000000000000000000000000000000000000000000000008152306004820152600092506001600160a01b03841691506355f5751090602401606060405180830381865afa158015610e07573d6000803e3d6000fd5b505050506040513d601f19601f82011682018060405250810190610e2b9190612ba2565b50915050610e4c8560000154866001015483610e479190612bd0565b6125e2565b856002016000828254610e5f9190612be3565b9091555050600185018190556002850154604088013511610e84578660400135610e8a565b84600201545b955085856002016000828254610ea09190612bd0565b90915550506040517f6b8357ac0000000000000000000000000000000000000000000000000000000081526001600160a01b0385811660048301526024820188905260009190841690636b8357ac906044016020604051808303816000875af1158015610f11573d6000803e3d6000fd5b505050506040513d601f19601f82011682018060405250810190610f359190612b89565b905086811015610f71576040517f8ad721cb00000000000000000000000000000000000000000000000000000000815260040160405180910390fd5b6040518781528835907f44ac423abde78f781d0bdf82a76bbe38aa71b9fa09289d4269e8e053bc532a899060200160405180910390a2505050505050919050565b8060a0013542811015610ff1576040517f0756982f00000000000000000000000000000000000000000000000000000000815260040160405180910390fd5b8135600090815260026020526040902060038101546a010000000000000000000090046001600160a01b03163314611055576040517f8b5701f700000000000000000000000000000000000000000000000000000000815260040160405180910390fd5b600381015469ffffffffffffffffffff1660000361109f576040517f6a4de01900000000000000000000000000000000000000000000000000000000815260040160405180910390fd5b6000806110b260a0860160808701612b3d565b6001600160a01b0316146110d5576110d060a0850160808601612b3d565b6110d7565b305b60038084015469ffffffffffffffffffff166000908152600160208181526040808420815160a08101835281546001600160a01b039081168083529583015416938101849052600282015492810183905295810154606087018190526004909101546080870181905296975094959394611176947f00000000000000000000000000000000000000000000000000000000000000009493929190611f72565b905060006111bc7f0000000000000000000000000000000000000000000000000000000000000000846000015185602001518660400151876060015188608001516120b4565b6040517f2e1a7d4d000000000000000000000000000000000000000000000000000000008152602089013560048201529091506001600160a01b03831690632e1a7d4d90602401600060405180830381600087803b15801561121d57600080fd5b505af1158015611231573d6000803e3d6000fd5b50506040517f9dc29fac0000000000000000000000000000000000000000000000000000000081526001600160a01b03878116600483015260208b0135602483015260009350839250841690639dc29fac9060440160408051808303816000875af11580156112a4573d6000803e3d6000fd5b505050506040513d601f19601f820116820180604052508101906112c89190612bf6565b91509150886040013582101561130a576040517f1a840b4200000000000000000000000000000000000000000000000000000000815260040160405180910390fd5b8860600135811015611348576040517f1a840b4200000000000000000000000000000000000000000000000000000000815260040160405180910390fd5b6040517f55f575100000000000000000000000000000000000000000000000000000000081523060048201526000906001600160a01b038616906355f5751090602401606060405180830381865afa1580156113a8573d6000803e3d6000fd5b505050506040513d601f19601f820116820180604052508101906113cc9190612ba2565b509150506113e88860000154896001015483610e479190612bd0565b8860020160008282546113fb9190612be3565b909155505060018801819055875460208b013590899060009061141f908490612bd0565b90915550506040516020808c013582528b35917fdef4f5c5c7516369cb5aaa162fdf3f2c750a1c81c0fe3dfd9a47a97393cdafcf910160405180910390a250505050505050505050565b60608167ffffffffffffffff81111561148457611484612c1a565b6040519080825280602002602001820160405280156114b757816020015b60608152602001906001900390816114a25790505b50905060005b828110156115d457600080308686858181106114db576114db612c49565b90506020028101906114ed9190612c78565b6040516114fb929190612ce4565b600060405180830381855af49150503d8060008114611536576040519150601f19603f3d011682016040523d82523d6000602084013e61153b565b606091505b5091509150816115a15760448151101561155457600080fd5b6004810190508080602001905181019061156e9190612cf4565b6040517f08c379a000000000000000000000000000000000000000000000000000000000815260040161015d9190612dbf565b808484815181106115b4576115b4612c49565b6020026020010181905250505080806115cc90612dd2565b9150506114bd565b5092915050565b60006116327f000000000000000000000000000000000000000000000000000000000000000061160e6020850185612b3d565b61161e6040860160208701612b3d565b8560400135866060013587608001356120b4565b905060008061164760c0850160a08601612b3d565b6001600160a01b03161461166a5761166560c0840160a08501612b3d565b61166c565b305b6040517fbc25cf770000000000000000000000000000000000000000000000000000000081526001600160a01b0380831660048301529192509083169063bc25cf7790602401600060405180830381600087803b1580156116cc57600080fd5b505af11580156116e0573d6000803e3d6000fd5b50505050505050565b806080013542811015611728576040517f0756982f00000000000000000000000000000000000000000000000000000000815260040160405180910390fd5b8135600090815260026020526040902060038101546a010000000000000000000090046001600160a01b0316331461178c576040517f8b5701f700000000000000000000000000000000000000000000000000000000815260040160405180910390fd5b600381015469ffffffffffffffffffff166000036117d6576040517f6a4de01900000000000000000000000000000000000000000000000000000000815260040160405180910390fd5b60038082015469ffffffffffffffffffff166000908152600160208181526040808420815160a08101835281546001600160a01b0390811680835295830154169381018490526002820154928101839052958101546060870181905260049091015460808701819052611870947f000000000000000000000000000000000000000000000000000000000000000094909390929091611f72565b905060006118b67f0000000000000000000000000000000000000000000000000000000000000000846000015185602001518660400151876060015188608001516120b4565b9050600080826001600160a01b031663443cb4bc6040518163ffffffff1660e01b8152600401602060405180830381865afa1580156118f9573d6000803e3d6000fd5b505050506040513d601f19601f8201168201806040525081019061191d9190612b58565b836001600160a01b0316635a76f25e6040518163ffffffff1660e01b8152600401602060405180830381865afa15801561195b573d6000803e3d6000fd5b505050506040513d601f19601f8201168201806040525081019061197f9190612b58565b6effffffffffffffffffffffffffffff1691506effffffffffffffffffffffffffffff1691506000836001600160a01b03166318160ddd6040518163ffffffff1660e01b8152600401602060405180830381865afa1580156119e5573d6000803e3d6000fd5b505050506040513d601f19601f82011682018060405250810190611a099190612b89565b9050600080611a1d858c60600135856121b4565b9150611a2e848c60600135856121b4565b90508a60200135821080611a4557508a6040013581105b15611a7c576040517f1a840b4200000000000000000000000000000000000000000000000000000000815260040160405180910390fd5b8751611a8a903388856122be565b611a9a88602001513388846122be565b6040517fa0712d6800000000000000000000000000000000000000000000000000000000815260608c013560048201526001600160a01b0387169063a0712d6890602401600060405180830381600087803b158015611af857600080fd5b505af1158015611b0c573d6000803e3d6000fd5b50506040517ff340fa010000000000000000000000000000000000000000000000000000000081523060048201526001600160a01b038a16925063f340fa019150602401600060405180830381600087803b158015611b6a57600080fd5b505af1158015611b7e573d6000803e3d6000fd5b50506040517f55f57510000000000000000000000000000000000000000000000000000000008152306004820152600092506001600160a01b038a1691506355f5751090602401606060405180830381865afa158015611be2573d6000803e3d6000fd5b505050506040513d601f19601f82011682018060405250810190611c069190612ba2565b50915050611c228a600001548b6001015483610e479190612bd0565b8a6002016000828254611c359190612be3565b909155505060018a01819055895460608d0135908b90600090611c59908490612be3565b9091555050604080516060808f01358252602082018690529181018490528d35917f2e7dc27fb130f4de8353da093b20c59786d52d4dc125134574eb8ddf23c033c5910160405180910390a2505050505050505050505050565b6040517f70a082310000000000000000000000000000000000000000000000000000000081523060048201526000906001600160a01b038516906370a0823190602401602060405180830381865afa158015611d13573d6000803e3d6000fd5b505050506040513d601f19601f82011682018060405250810190611d379190612b89565b905082811015611da3576040517f08c379a000000000000000000000000000000000000000000000000000000000815260206004820152601260248201527f496e73756666696369656e7420746f6b656e0000000000000000000000000000604482015260640161015d565b8015611db457611db48483836125ee565b50505050565b6000818152600260208181526040808420815160a08101835281548152600182015493810193909352928301549082015260039091015469ffffffffffffffffffff8116606083018190526a01000000000000000000009091046001600160a01b03166080830152829182918291829182918291829182918203611e6a576040517f6a4de01900000000000000000000000000000000000000000000000000000000815260040160405180910390fd5b600060016000836060015169ffffffffffffffffffff1669ffffffffffffffffffff1681526020019081526020016000206040518060a00160405290816000820160009054906101000a90046001600160a01b03166001600160a01b03166001600160a01b031681526020016001820160009054906101000a90046001600160a01b03166001600160a01b03166001600160a01b03168152602001600282015481526020016003820154815260200160048201548152505090508160800151816000015182602001518360400151846060015185608001518760000151886020015189604001519a509a509a509a509a509a509a509a509a5050509193959799909294969850565b604080516001600160a01b038088166020830152861691810191909152606081018490526080810183905260a081018290526000908190889060c001604080517fffffffffffffffffffffffffffffffffffffffffffffffffffffffffffffffe0818403018152908290528051602091820120612072939290917f11ceb9d82bdf98ab99122a293108e759ec7ab7cf17614a7ff0ffc1089c0bebe191017fff00000000000000000000000000000000000000000000000000000000000000815260609390931b7fffffffffffffffffffffffffffffffffffffffff0000000000000000000000001660018401526015830191909152603582015260550190565b604080518083037fffffffffffffffffffffffffffffffffffffffffffffffffffffffffffffffe0018152919052805160209091012098975050505050505050565b604080516001600160a01b038088166020830152861691810191909152606081018490526080810183905260a081018290526000908190889060c001604080517fffffffffffffffffffffffffffffffffffffffffffffffffffffffffffffffe0818403018152908290528051602091820120612072939290917fba59e66da6e30acad747dab8573e8ea9bf48d4a594b392458f6fb279561dab0f91017fff00000000000000000000000000000000000000000000000000000000000000815260609390931b7fffffffffffffffffffffffffffffffffffffffff0000000000000000000000001660018401526015830191909152603582015260550190565b600080807fffffffffffffffffffffffffffffffffffffffffffffffffffffffffffffffff8587098587029250828110838203039150508060000361220c5783828161220257612202612e0a565b04925050506122b7565b83811061224f576040517f773cc18c000000000000000000000000000000000000000000000000000000008152600481018290526024810185905260440161015d565b600084868809851960019081018716968790049682860381900495909211909303600082900391909104909201919091029190911760038402600290811880860282030280860282030280860282030280860282030280860282030280860290910302029150505b9392505050565b7f00000000000000000000000000000000000000000000000000000000000000006001600160a01b0316846001600160a01b03161480156122ff5750804710155b1561242b577f00000000000000000000000000000000000000000000000000000000000000006001600160a01b031663d0e30db0826040518263ffffffff1660e01b81526004016000604051808303818588803b15801561235f57600080fd5b505af1158015612373573d6000803e3d6000fd5b50506040517fa9059cbb0000000000000000000000000000000000000000000000000000000081526001600160a01b038681166004830152602482018690527f000000000000000000000000000000000000000000000000000000000000000016935063a9059cbb925060440190506020604051808303816000875af1158015612401573d6000803e3d6000fd5b505050506040513d601f19601f820116820180604052508101906124259190612e39565b50611db4565b306001600160a01b0384160361244b576124468483836125ee565b611db4565b611db484848484612678565b6001600160a01b03821660009081526020819052604081205469ffffffffffffffffffff16908190036125975760038054760100000000000000000000000000000000000000000000900469ffffffffffffffffffff169060166124ba83612e5b565b82546101009290920a69ffffffffffffffffffff8181021990931691831602179091556001600160a01b0385811660009081526020818152604080832080547fffffffffffffffffffffffffffffffffffffffffffff00000000000000000000169587169586179055938252600180825291849020875181547fffffffffffffffffffffffff00000000000000000000000000000000000000009081169186169190911782559188015192810180549092169290931691909117905590840151600282015560608401516003820155608084015160049091015590505b92915050565b600080600080600085875af1905080610bc8576040517fe293b56b00000000000000000000000000000000000000000000000000000000815260040160405180910390fd5b60006122b78383612718565b60006040517fa9059cbb0000000000000000000000000000000000000000000000000000000081526001600160a01b03841660048201528260248201526000806044836000895af19150506126428161282f565b611db4576040517fbfa871c500000000000000000000000000000000000000000000000000000000815260040160405180910390fd5b60006040517f23b872dd0000000000000000000000000000000000000000000000000000000081526001600160a01b03851660048201526001600160a01b038416602482015282604482015260008060648360008a5af19150506126db8161282f565b612711576040517fa83c475400000000000000000000000000000000000000000000000000000000815260040160405180910390fd5b5050505050565b600080807fffffffffffffffffffffffffffffffffffffffffffffffffffffffffffffffff848609848602925082811083820303915050670de0b6b3a76400008110612793576040517fd31b34020000000000000000000000000000000000000000000000000000000081526004810182905260240161015d565b600080670de0b6b3a764000086880991506706f05b59d3b1ffff82119050826000036127d15780670de0b6b3a7640000850401945050505050612597565b6204000082850304939091119091037d40000000000000000000000000000000000000000000000000000000000002919091177faccb18165bd6fe31ae1cf318dc5b51eee0e1ba569b88cd74c1773b91fac106690201905092915050565b600081612840573d6000803e3d6000fd5b3d60208114612858578015612869576000915061286e565b3d6000803e6000511515915061286e565b600191505b50919050565b6000610140828403121561286e57600080fd5b80356001600160a01b038116811461289e57600080fd5b919050565b600080604083850312156128b657600080fd5b823591506128c660208401612887565b90509250929050565b60006060828403121561286e57600080fd5b600060c0828403121561286e57600080fd5b600060c0828403121561290557600080fd5b6122b783836128e1565b6000806020838503121561292257600080fd5b823567ffffffffffffffff8082111561293a57600080fd5b818501915085601f83011261294e57600080fd5b81358181111561295d57600080fd5b8660208260051b850101111561297257600080fd5b60209290920196919550909350505050565b60005b8381101561299f578181015183820152602001612987565b50506000910152565b600081518084526129c0816020860160208601612984565b601f017fffffffffffffffffffffffffffffffffffffffffffffffffffffffffffffffe0169290920160200192915050565b6000602080830181845280855180835260408601915060408160051b870101925083870160005b82811015612a65577fffffffffffffffffffffffffffffffffffffffffffffffffffffffffffffffc0888603018452612a538583516129a8565b94509285019290850190600101612a19565b5092979650505050505050565b600060a0828403121561286e57600080fd5b600080600060608486031215612a9957600080fd5b612aa284612887565b925060208401359150612ab760408501612887565b90509250925092565b600060208284031215612ad257600080fd5b5035919050565b7f4e487b7100000000000000000000000000000000000000000000000000000000600052601160045260246000fd5b600075ffffffffffffffffffffffffffffffffffffffffffff808316818103612b3357612b33612ad9565b6001019392505050565b600060208284031215612b4f57600080fd5b6122b782612887565b600060208284031215612b6a57600080fd5b81516effffffffffffffffffffffffffffff811681146122b757600080fd5b600060208284031215612b9b57600080fd5b5051919050565b600080600060608486031215612bb757600080fd5b8351925060208401519150604084015190509250925092565b8181038181111561259757612597612ad9565b8082018082111561259757612597612ad9565b60008060408385031215612c0957600080fd5b505080516020909101519092909150565b7f4e487b7100000000000000000000000000000000000000000000000000000000600052604160045260246000fd5b7f4e487b7100000000000000000000000000000000000000000000000000000000600052603260045260246000fd5b60008083357fffffffffffffffffffffffffffffffffffffffffffffffffffffffffffffffe1843603018112612cad57600080fd5b83018035915067ffffffffffffffff821115612cc857600080fd5b602001915036819003821315612cdd57600080fd5b9250929050565b8183823760009101908152919050565b600060208284031215612d0657600080fd5b815167ffffffffffffffff80821115612d1e57600080fd5b818401915084601f830112612d3257600080fd5b815181811115612d4457612d44612c1a565b604051601f82017fffffffffffffffffffffffffffffffffffffffffffffffffffffffffffffffe0908116603f01168101908382118183101715612d8a57612d8a612c1a565b81604052828152876020848701011115612da357600080fd5b612db4836020830160208801612984565b979650505050505050565b6020815260006122b760208301846129a8565b60007fffffffffffffffffffffffffffffffffffffffffffffffffffffffffffffffff8203612e0357612e03612ad9565b5060010190565b7f4e487b7100000000000000000000000000000000000000000000000000000000600052601260045260246000fd5b600060208284031215612e4b57600080fd5b815180151581146122b757600080fd5b600069ffffffffffffffffffff808316818103612b3357612b33612ad956fea26469706673582212203ba3b38b50c2e5344dbfc57dbf67e92eaa06d2a57c3007bbbb5b84ce6d8f510164736f6c63430008110033",
    "linkReferences": {}
  },
  "methodIdentifiers": {
    "WETH9()": "4aa4a4fc",
    "collect((uint256,address,uint256))": "7cbf88aa",
    "decreaseLiquidity((uint256,uint256,uint256,uint256,address,uint256))": "8b874f76",
    "factory()": "c45a0155",
    "getPosition(uint256)": "eb02c301",
    "increaseLiquidity((uint256,uint256,uint256,uint256,uint256))": "dbd19848",
    "mint((address,address,uint256,uint256,uint256,uint256,uint256,uint256,address,uint256))": "00ee087a",
    "multicall(bytes[])": "ac9650d8",
    "refundETH()": "12210e8a",
    "skim((address,address,uint256,uint256,uint256,address))": "cd321b40",
    "sweepToken(address,uint256,address)": "df2ab5bb",
    "unwrapWETH9(uint256,address)": "49404b7c"
  },
  "id": 37
}