{
  "abi": [
    {
      "inputs": [
        {
          "internalType": "address",
          "name": "_factory",
          "type": "address"
        }
      ],
      "stateMutability": "nonpayable",
      "type": "constructor"
    },
    {
      "inputs": [],
      "name": "CollectError",
      "type": "error"
    },
    {
      "inputs": [],
      "name": "FailedTransferFrom",
      "type": "error"
    },
    {
      "inputs": [],
      "name": "LivelinessError",
      "type": "error"
    },
    {
      "inputs": [
        {
          "internalType": "uint256",
          "name": "prod1",
          "type": "uint256"
        }
      ],
      "name": "PRBMath__MulDivFixedPointOverflow",
      "type": "error"
    },
    {
      "inputs": [
        {
          "internalType": "uint256",
          "name": "prod1",
          "type": "uint256"
        },
        {
          "internalType": "uint256",
          "name": "denominator",
          "type": "uint256"
        }
      ],
      "name": "PRBMath__MulDivOverflow",
      "type": "error"
    },
    {
      "inputs": [],
      "name": "PositionInvalidError",
      "type": "error"
    },
    {
      "inputs": [],
      "name": "SlippageError",
      "type": "error"
    },
    {
      "inputs": [],
      "name": "UnauthorizedError",
      "type": "error"
    },
    {
      "anonymous": false,
      "inputs": [
        {
          "indexed": true,
          "internalType": "uint256",
          "name": "tokenID",
          "type": "uint256"
        },
        {
          "indexed": false,
          "internalType": "uint256",
          "name": "amount",
          "type": "uint256"
        }
      ],
      "name": "Collect",
      "type": "event"
    },
    {
      "anonymous": false,
      "inputs": [
        {
          "indexed": true,
          "internalType": "uint256",
          "name": "tokenID",
          "type": "uint256"
        },
        {
          "indexed": false,
          "internalType": "uint256",
          "name": "liquidity",
          "type": "uint256"
        }
      ],
      "name": "DecreaseLiquidity",
      "type": "event"
    },
    {
      "anonymous": false,
      "inputs": [
        {
          "indexed": true,
          "internalType": "uint256",
          "name": "tokenID",
          "type": "uint256"
        },
        {
          "indexed": false,
          "internalType": "uint256",
          "name": "liquidity",
          "type": "uint256"
        },
        {
          "indexed": false,
          "internalType": "uint256",
          "name": "amount0",
          "type": "uint256"
        },
        {
          "indexed": false,
          "internalType": "uint256",
          "name": "amount1",
          "type": "uint256"
        }
      ],
      "name": "IncreaseLiquidity",
      "type": "event"
    },
    {
      "anonymous": false,
      "inputs": [
        {
          "indexed": true,
          "internalType": "address",
          "name": "operator",
          "type": "address"
        },
        {
          "indexed": true,
          "internalType": "uint256",
          "name": "tokenID",
          "type": "uint256"
        },
        {
          "indexed": false,
          "internalType": "uint256",
          "name": "liquidity",
          "type": "uint256"
        },
        {
          "indexed": false,
          "internalType": "uint256",
          "name": "amount0",
          "type": "uint256"
        },
        {
          "indexed": false,
          "internalType": "uint256",
          "name": "amount1",
          "type": "uint256"
        }
      ],
      "name": "Mint",
      "type": "event"
    },
    {
      "inputs": [
        {
          "components": [
            {
              "internalType": "uint256",
              "name": "tokenID",
              "type": "uint256"
            },
            {
              "internalType": "address",
              "name": "recipient",
              "type": "address"
            },
            {
              "internalType": "uint256",
              "name": "amountRequested",
              "type": "uint256"
            }
          ],
          "internalType": "struct LiquidityManager.CollectParams",
          "name": "params",
          "type": "tuple"
        }
      ],
      "name": "collect",
      "outputs": [
        {
          "internalType": "uint256",
          "name": "amount",
          "type": "uint256"
        }
      ],
      "stateMutability": "nonpayable",
      "type": "function"
    },
    {
      "inputs": [
        {
          "components": [
            {
              "internalType": "uint256",
              "name": "tokenID",
              "type": "uint256"
            },
            {
              "internalType": "uint256",
              "name": "liquidity",
              "type": "uint256"
            },
            {
              "internalType": "uint256",
              "name": "amount0Min",
              "type": "uint256"
            },
            {
              "internalType": "uint256",
              "name": "amount1Min",
              "type": "uint256"
            },
            {
              "internalType": "address",
              "name": "recipient",
              "type": "address"
            },
            {
              "internalType": "uint256",
              "name": "deadline",
              "type": "uint256"
            }
          ],
          "internalType": "struct LiquidityManager.DecreaseLiquidityParams",
          "name": "params",
          "type": "tuple"
        }
      ],
      "name": "decreaseLiquidity",
      "outputs": [],
      "stateMutability": "nonpayable",
      "type": "function"
    },
    {
      "inputs": [],
      "name": "factory",
      "outputs": [
        {
          "internalType": "address",
          "name": "",
          "type": "address"
        }
      ],
      "stateMutability": "view",
      "type": "function"
    },
    {
      "inputs": [
        {
          "internalType": "uint256",
          "name": "tokenID",
          "type": "uint256"
        }
      ],
      "name": "getPosition",
      "outputs": [
        {
          "internalType": "address",
          "name": "operator",
          "type": "address"
        },
        {
          "internalType": "address",
          "name": "base",
          "type": "address"
        },
        {
          "internalType": "address",
          "name": "speculative",
          "type": "address"
        },
        {
          "internalType": "uint256",
          "name": "baseScaleFactor",
          "type": "uint256"
        },
        {
          "internalType": "uint256",
          "name": "speculativeScaleFactor",
          "type": "uint256"
        },
        {
          "internalType": "uint256",
          "name": "upperBound",
          "type": "uint256"
        },
        {
          "internalType": "uint256",
          "name": "liquidity",
          "type": "uint256"
        },
        {
          "internalType": "uint256",
          "name": "rewardPerLiquidityPaid",
          "type": "uint256"
        },
        {
          "internalType": "uint256",
          "name": "tokensOwed",
          "type": "uint256"
        }
      ],
      "stateMutability": "view",
      "type": "function"
    },
    {
      "inputs": [
        {
          "components": [
            {
              "internalType": "uint256",
              "name": "tokenID",
              "type": "uint256"
            },
            {
              "internalType": "uint256",
              "name": "amount0Min",
              "type": "uint256"
            },
            {
              "internalType": "uint256",
              "name": "amount1Min",
              "type": "uint256"
            },
            {
              "internalType": "uint256",
              "name": "liquidity",
              "type": "uint256"
            },
            {
              "internalType": "uint256",
              "name": "deadline",
              "type": "uint256"
            }
          ],
          "internalType": "struct LiquidityManager.IncreaseLiquidityParams",
          "name": "params",
          "type": "tuple"
        }
      ],
      "name": "increaseLiquidity",
      "outputs": [],
      "stateMutability": "nonpayable",
      "type": "function"
    },
    {
      "inputs": [
        {
          "components": [
            {
              "internalType": "address",
              "name": "base",
              "type": "address"
            },
            {
              "internalType": "address",
              "name": "speculative",
              "type": "address"
            },
            {
              "internalType": "uint256",
              "name": "baseScaleFactor",
              "type": "uint256"
            },
            {
              "internalType": "uint256",
              "name": "speculativeScaleFactor",
              "type": "uint256"
            },
            {
              "internalType": "uint256",
              "name": "upperBound",
              "type": "uint256"
            },
            {
              "internalType": "uint256",
              "name": "amount0Min",
              "type": "uint256"
            },
            {
              "internalType": "uint256",
              "name": "amount1Min",
              "type": "uint256"
            },
            {
              "internalType": "uint256",
              "name": "liquidity",
              "type": "uint256"
            },
            {
              "internalType": "address",
              "name": "recipient",
              "type": "address"
            },
            {
              "internalType": "uint256",
              "name": "deadline",
              "type": "uint256"
            }
          ],
          "internalType": "struct LiquidityManager.MintParams",
          "name": "params",
          "type": "tuple"
        }
      ],
      "name": "mint",
      "outputs": [
        {
          "internalType": "uint256",
          "name": "tokenID",
          "type": "uint256"
        }
      ],
      "stateMutability": "nonpayable",
      "type": "function"
    }
  ],
  "bytecode": {
    "object": "0x60a060405276010000000000000000000000000000000000000000000160035534801561002b57600080fd5b50604051620023033803806200230383398101604081905261004c9161005d565b6001600160a01b031660805261008d565b60006020828403121561006f57600080fd5b81516001600160a01b038116811461008657600080fd5b9392505050565b60805161222a620000d96000396000818160c9015281816102b80152818161031701528181610a1001528181610e1101528181610e45015281816112a601526112da015261222a6000f3fe608060405234801561001057600080fd5b50600436106100715760003560e01c8063c45a015511610050578063c45a0155146100c4578063dbd1984814610103578063eb02c3011461011657600080fd5b8062ee087a146100765780637cbf88aa1461009c5780638b874f76146100af575b600080fd5b610089610084366004611ff5565b61017e565b6040519081526020015b60405180910390f35b6100896100aa366004612008565b6108f3565b6100c26100bd36600461201a565b610cb5565b005b6100eb7f000000000000000000000000000000000000000000000000000000000000000081565b6040516001600160a01b039091168152602001610093565b6100c261011136600461202c565b61114a565b61012961012436600461203e565b61179e565b604080516001600160a01b039a8b168152988a1660208a015296909816958701959095526060860193909352608085019190915260a084015260c083015260e082015261010081019190915261012001610093565b6000816101200135428110156101c0576040517f0756982f00000000000000000000000000000000000000000000000000000000815260040160405180910390fd5b6003805475ffffffffffffffffffffffffffffffffffffffffffff169060006101e883612086565b91906101000a81548175ffffffffffffffffffffffffffffffffffffffffffff021916908375ffffffffffffffffffffffffffffffffffffffffffff16021790555075ffffffffffffffffffffffffffffffffffffffffffff16915060006040518060a0016040528085600001602081019061026491906120bb565b6001600160a01b0316815260200185602001602081019061028591906120bb565b6001600160a01b03168152602001856040013581526020018560600135815260200185608001358152509050600061030e7f00000000000000000000000000000000000000000000000000000000000000008660000160208101906102ea91906120bb565b6102fa6040890160208a016120bb565b886040013589606001358a60800135611956565b905060006103677f000000000000000000000000000000000000000000000000000000000000000061034360208901896120bb565b61035360408a0160208b016120bb565b89604001358a606001358b60800135611a98565b9050600080826001600160a01b031663443cb4bc6040518163ffffffff1660e01b8152600401602060405180830381865afa1580156103aa573d6000803e3d6000fd5b505050506040513d601f19601f820116820180604052508101906103ce91906120e4565b836001600160a01b0316635a76f25e6040518163ffffffff1660e01b8152600401602060405180830381865afa15801561040c573d6000803e3d6000fd5b505050506040513d601f19601f8201168201806040525081019061043091906120e4565b6effffffffffffffffffffffffffffff1691506effffffffffffffffffffffffffffff1691506000836001600160a01b03166318160ddd6040518163ffffffff1660e01b8152600401602060405180830381865afa158015610496573d6000803e3d6000fd5b505050506040513d601f19601f820116820180604052508101906104ba9190612115565b9050600080826000036104d857505060a089013560c08a01356104fb565b6104e7858c60e0013585611b98565b91506104f8848c60e0013585611b98565b90505b8a60a0013582108061051057508a60c0013581105b15610547576040517f1a840b4200000000000000000000000000000000000000000000000000000000815260040160405180910390fd5b6001600160a01b03861663bc25cf776105686101208e016101008f016120bb565b6040517fffffffff0000000000000000000000000000000000000000000000000000000060e084901b1681526001600160a01b039091166004820152602401600060405180830381600087803b1580156105c157600080fd5b505af11580156105d5573d6000803e3d6000fd5b506105f392506105eb91505060208d018d6120bb565b338885611ca7565b61060e61060660408d0160208e016120bb565b338884611ca7565b6040517fa0712d6800000000000000000000000000000000000000000000000000000000815260e08c013560048201526001600160a01b0387169063a0712d6890602401600060405180830381600087803b15801561066c57600080fd5b505af1158015610680573d6000803e3d6000fd5b50506040517ff340fa010000000000000000000000000000000000000000000000000000000081523060048201526001600160a01b038a16925063f340fa019150602401600060405180830381600087803b1580156106de57600080fd5b505af11580156106f2573d6000803e3d6000fd5b505050506000610702888a611d47565b6040517f55f575100000000000000000000000000000000000000000000000000000000081523060048201529091506000906001600160a01b038a16906355f5751090602401606060405180830381865afa158015610765573d6000803e3d6000fd5b505050506040513d601f19601f82011682018060405250810190610789919061212e565b509150506040518060a001604052808e60e001358152602001828152602001600081526020018369ffffffffffffffffffff1681526020018e6101000160208101906107d591906120bb565b6001600160a01b0316815250600260008e815260200190815260200160002060008201518160000155602082015181600101556040820151816002015560608201518160030160006101000a81548169ffffffffffffffffffff021916908369ffffffffffffffffffff160217905550608082015181600301600a6101000a8154816001600160a01b0302191690836001600160a01b031602179055509050508b8d61010001602081019061088a91906120bb565b6001600160a01b03167f94c792774c59479f7bd68442f3af3691c02123a5aabee8b6f9116d8af8aa66698f60e0013587876040516108db939291909283526020830191909152604082015260600190565b60405180910390a35050505050505050505050919050565b8035600090815260026020526040812060038101546a010000000000000000000090046001600160a01b03163314610957576040517f8b5701f700000000000000000000000000000000000000000000000000000000815260040160405180910390fd5b600381015469ffffffffffffffffffff166000036109a1576040517f6a4de01900000000000000000000000000000000000000000000000000000000815260040160405180910390fd5b60038082015469ffffffffffffffffffff166000908152600160208181526040808420815160a08101835281546001600160a01b0390811680835295830154169381018490526002820154928101839052958101546060870181905260049091015460808701819052610a3b947f000000000000000000000000000000000000000000000000000000000000000094909390929091611956565b9050806001600160a01b0316634fd9b90a6040518163ffffffff1660e01b8152600401600060405180830381600087803b158015610a7857600080fd5b505af1158015610a8c573d6000803e3d6000fd5b50506040517f55f57510000000000000000000000000000000000000000000000000000000008152306004820152600092506001600160a01b03841691506355f5751090602401606060405180830381865afa158015610af0573d6000803e3d6000fd5b505050506040513d601f19601f82011682018060405250810190610b14919061212e565b50915050610b358460000154856001015483610b30919061215c565b611e8d565b846002016000828254610b48919061216f565b9091555050600184018190556002840154604087013511610b6d578560400135610b73565b83600201545b945084846002016000828254610b89919061215c565b90915550600090506001600160a01b038316636b8357ac610bb060408a0160208b016120bb565b6040517fffffffff0000000000000000000000000000000000000000000000000000000060e084901b1681526001600160a01b039091166004820152602481018990526044016020604051808303816000875af1158015610c15573d6000803e3d6000fd5b505050506040513d601f19601f82011682018060405250810190610c399190612115565b905085811015610c75576040517f8ad721cb00000000000000000000000000000000000000000000000000000000815260040160405180910390fd5b6040518681528735907f44ac423abde78f781d0bdf82a76bbe38aa71b9fa09289d4269e8e053bc532a899060200160405180910390a25050505050919050565b8060a0013542811015610cf4576040517f0756982f00000000000000000000000000000000000000000000000000000000815260040160405180910390fd5b8135600090815260026020526040902060038101546a010000000000000000000090046001600160a01b03163314610d58576040517f8b5701f700000000000000000000000000000000000000000000000000000000815260040160405180910390fd5b600381015469ffffffffffffffffffff16600003610da2576040517f6a4de01900000000000000000000000000000000000000000000000000000000815260040160405180910390fd5b60038082015469ffffffffffffffffffff166000908152600160208181526040808420815160a08101835281546001600160a01b0390811680835295830154169381018490526002820154928101839052958101546060870181905260049091015460808701819052610e3c947f000000000000000000000000000000000000000000000000000000000000000094909390929091611956565b90506000610e827f000000000000000000000000000000000000000000000000000000000000000084600001518560200151866040015187606001518860800151611a98565b6040517f2e1a7d4d000000000000000000000000000000000000000000000000000000008152602088013560048201529091506001600160a01b03831690632e1a7d4d90602401600060405180830381600087803b158015610ee357600080fd5b505af1158015610ef7573d6000803e3d6000fd5b5060009250829150506001600160a01b038316639dc29fac610f1f60a08b0160808c016120bb565b6040517fffffffff0000000000000000000000000000000000000000000000000000000060e084901b1681526001600160a01b03909116600482015260208b0135602482015260440160408051808303816000875af1158015610f86573d6000803e3d6000fd5b505050506040513d601f19601f82011682018060405250810190610faa9190612182565b915091508760400135821015610fec576040517f1a840b4200000000000000000000000000000000000000000000000000000000815260040160405180910390fd5b876060013581101561102a576040517f1a840b4200000000000000000000000000000000000000000000000000000000815260040160405180910390fd5b6040517f55f575100000000000000000000000000000000000000000000000000000000081523060048201526000906001600160a01b038616906355f5751090602401606060405180830381865afa15801561108a573d6000803e3d6000fd5b505050506040513d601f19601f820116820180604052508101906110ae919061212e565b509150506110ca8760000154886001015483610b30919061215c565b8760020160008282546110dd919061216f565b909155505060018701819055865460208a013590889060009061110190849061215c565b90915550506040516020808b013582528a35917fdef4f5c5c7516369cb5aaa162fdf3f2c750a1c81c0fe3dfd9a47a97393cdafcf910160405180910390a2505050505050505050565b806080013542811015611189576040517f0756982f00000000000000000000000000000000000000000000000000000000815260040160405180910390fd5b8135600090815260026020526040902060038101546a010000000000000000000090046001600160a01b031633146111ed576040517f8b5701f700000000000000000000000000000000000000000000000000000000815260040160405180910390fd5b600381015469ffffffffffffffffffff16600003611237576040517f6a4de01900000000000000000000000000000000000000000000000000000000815260040160405180910390fd5b60038082015469ffffffffffffffffffff166000908152600160208181526040808420815160a08101835281546001600160a01b03908116808352958301541693810184905260028201549281018390529581015460608701819052600490910154608087018190526112d1947f000000000000000000000000000000000000000000000000000000000000000094909390929091611956565b905060006113177f000000000000000000000000000000000000000000000000000000000000000084600001518560200151866040015187606001518860800151611a98565b9050600080826001600160a01b031663443cb4bc6040518163ffffffff1660e01b8152600401602060405180830381865afa15801561135a573d6000803e3d6000fd5b505050506040513d601f19601f8201168201806040525081019061137e91906120e4565b836001600160a01b0316635a76f25e6040518163ffffffff1660e01b8152600401602060405180830381865afa1580156113bc573d6000803e3d6000fd5b505050506040513d601f19601f820116820180604052508101906113e091906120e4565b6effffffffffffffffffffffffffffff1691506effffffffffffffffffffffffffffff1691506000836001600160a01b03166318160ddd6040518163ffffffff1660e01b8152600401602060405180830381865afa158015611446573d6000803e3d6000fd5b505050506040513d601f19601f8201168201806040525081019061146a9190612115565b905060008061147e858c6060013585611b98565b915061148f848c6060013585611b98565b90508a602001358210806114a657508a6040013581105b156114dd576040517f1a840b4200000000000000000000000000000000000000000000000000000000815260040160405180910390fd5b60038901546040517fbc25cf770000000000000000000000000000000000000000000000000000000081526a01000000000000000000009091046001600160a01b03908116600483015287169063bc25cf7790602401600060405180830381600087803b15801561154d57600080fd5b505af1158015611561573d6000803e3d6000fd5b505050506115758860000151338885611ca7565b6115858860200151338884611ca7565b6040517fa0712d6800000000000000000000000000000000000000000000000000000000815260608c013560048201526001600160a01b0387169063a0712d6890602401600060405180830381600087803b1580156115e357600080fd5b505af11580156115f7573d6000803e3d6000fd5b50506040517ff340fa010000000000000000000000000000000000000000000000000000000081523060048201526001600160a01b038a16925063f340fa019150602401600060405180830381600087803b15801561165557600080fd5b505af1158015611669573d6000803e3d6000fd5b50506040517f55f57510000000000000000000000000000000000000000000000000000000008152306004820152600092506001600160a01b038a1691506355f5751090602401606060405180830381865afa1580156116cd573d6000803e3d6000fd5b505050506040513d601f19601f820116820180604052508101906116f1919061212e565b5091505061170d8a600001548b6001015483610b30919061215c565b8a6002016000828254611720919061216f565b909155505060018a01819055895460608d0135908b9060009061174490849061216f565b9091555050604080516060808f01358252602082018690529181018490528d35917f2e7dc27fb130f4de8353da093b20c59786d52d4dc125134574eb8ddf23c033c5910160405180910390a2505050505050505050505050565b6000818152600260208181526040808420815160a08101835281548152600182015493810193909352928301549082015260039091015469ffffffffffffffffffff8116606083018190526a01000000000000000000009091046001600160a01b0316608083015282918291829182918291829182918291820361184e576040517f6a4de01900000000000000000000000000000000000000000000000000000000815260040160405180910390fd5b600060016000836060015169ffffffffffffffffffff1669ffffffffffffffffffff1681526020019081526020016000206040518060a00160405290816000820160009054906101000a90046001600160a01b03166001600160a01b03166001600160a01b031681526020016001820160009054906101000a90046001600160a01b03166001600160a01b03166001600160a01b03168152602001600282015481526020016003820154815260200160048201548152505090508160800151816000015182602001518360400151846060015185608001518760000151886020015189604001519a509a509a509a509a509a509a509a509a5050509193959799909294969850565b604080516001600160a01b038088166020830152861691810191909152606081018490526080810183905260a081018290526000908190889060c001604080517fffffffffffffffffffffffffffffffffffffffffffffffffffffffffffffffe0818403018152908290528051602091820120611a56939290917f9101404c2fc5bb57420f46e13e779f8dec42472e5a39a8efe14ae9ef59cb116d91017fff00000000000000000000000000000000000000000000000000000000000000815260609390931b7fffffffffffffffffffffffffffffffffffffffff0000000000000000000000001660018401526015830191909152603582015260550190565b604080518083037fffffffffffffffffffffffffffffffffffffffffffffffffffffffffffffffe0018152919052805160209091012098975050505050505050565b604080516001600160a01b038088166020830152861691810191909152606081018490526080810183905260a081018290526000908190889060c001604080517fffffffffffffffffffffffffffffffffffffffffffffffffffffffffffffffe0818403018152908290528051602091820120611a56939290917fae887163957dc6a8f4e27cb5de5e2a224a23e9cd702eefaecb4b753b9b4d299791017fff00000000000000000000000000000000000000000000000000000000000000815260609390931b7fffffffffffffffffffffffffffffffffffffffff0000000000000000000000001660018401526015830191909152603582015260550190565b600080807fffffffffffffffffffffffffffffffffffffffffffffffffffffffffffffffff85870985870292508281108382030391505080600003611bf057838281611be657611be66121a6565b0492505050611ca0565b838110611c38576040517f773cc18c00000000000000000000000000000000000000000000000000000000815260048101829052602481018590526044015b60405180910390fd5b600084868809851960019081018716968790049682860381900495909211909303600082900391909104909201919091029190911760038402600290811880860282030280860282030280860282030280860282030280860282030280860290910302029150505b9392505050565b60006040517f23b872dd0000000000000000000000000000000000000000000000000000000081526001600160a01b03851660048201526001600160a01b038416602482015282604482015260008060648360008a5af1915050611d0a81611e99565b611d40576040517fa83c475400000000000000000000000000000000000000000000000000000000815260040160405180910390fd5b5050505050565b6001600160a01b03821660009081526020819052604081205469ffffffffffffffffffff1690819003611e875760038054760100000000000000000000000000000000000000000000900469ffffffffffffffffffff16906016611daa836121d5565b82546101009290920a69ffffffffffffffffffff8181021990931691831602179091556001600160a01b0385811660009081526020818152604080832080547fffffffffffffffffffffffffffffffffffffffffffff00000000000000000000169587169586179055938252600180825291849020875181547fffffffffffffffffffffffff00000000000000000000000000000000000000009081169186169190911782559188015192810180549092169290931691909117905590840151600282015560608401516003820155608084015160049091015590505b92915050565b6000611ca08383611ede565b600081611eaa573d6000803e3d6000fd5b3d60208114611ec2578015611ed35760009150611ed8565b3d6000803e60005115159150611ed8565b600191505b50919050565b600080807fffffffffffffffffffffffffffffffffffffffffffffffffffffffffffffffff848609848602925082811083820303915050670de0b6b3a76400008110611f59576040517fd31b340200000000000000000000000000000000000000000000000000000000815260048101829052602401611c2f565b600080670de0b6b3a764000086880991506706f05b59d3b1ffff8211905082600003611f975780670de0b6b3a7640000850401945050505050611e87565b6204000082850304939091119091037d40000000000000000000000000000000000000000000000000000000000002919091177faccb18165bd6fe31ae1cf318dc5b51eee0e1ba569b88cd74c1773b91fac106690201905092915050565b60006101408284031215611ed857600080fd5b600060608284031215611ed857600080fd5b600060c08284031215611ed857600080fd5b600060a08284031215611ed857600080fd5b60006020828403121561205057600080fd5b5035919050565b7f4e487b7100000000000000000000000000000000000000000000000000000000600052601160045260246000fd5b600075ffffffffffffffffffffffffffffffffffffffffffff8083168181036120b1576120b1612057565b6001019392505050565b6000602082840312156120cd57600080fd5b81356001600160a01b0381168114611ca057600080fd5b6000602082840312156120f657600080fd5b81516effffffffffffffffffffffffffffff81168114611ca057600080fd5b60006020828403121561212757600080fd5b5051919050565b60008060006060848603121561214357600080fd5b8351925060208401519150604084015190509250925092565b81810381811115611e8757611e87612057565b80820180821115611e8757611e87612057565b6000806040838503121561219557600080fd5b505080516020909101519092909150565b7f4e487b7100000000000000000000000000000000000000000000000000000000600052601260045260246000fd5b600069ffffffffffffffffffff8083168181036120b1576120b161205756fea2646970667358221220e60410bc8f4431e2db062c7d57e2226fcb4a3252239e3a376d4ae796fc4e780064736f6c63430008110033",
    "linkReferences": {}
  },
  "methodIdentifiers": {
    "collect((uint256,address,uint256))": "7cbf88aa",
    "decreaseLiquidity((uint256,uint256,uint256,uint256,address,uint256))": "8b874f76",
    "factory()": "c45a0155",
    "getPosition(uint256)": "eb02c301",
    "increaseLiquidity((uint256,uint256,uint256,uint256,uint256))": "dbd19848",
    "mint((address,address,uint256,uint256,uint256,uint256,uint256,uint256,address,uint256))": "00ee087a"
  },
  "id": 39
}