{
  "abi": [
    {
      "inputs": [
        {
          "internalType": "address",
          "name": "_factory",
          "type": "address"
        },
        {
          "internalType": "address",
          "name": "_weth9",
          "type": "address"
        }
      ],
      "stateMutability": "nonpayable",
      "type": "constructor"
    },
    {
      "inputs": [],
      "name": "CollectError",
      "type": "error"
    },
    {
      "inputs": [],
      "name": "FailedTransfer",
      "type": "error"
    },
    {
      "inputs": [],
      "name": "FailedTransferETH",
      "type": "error"
    },
    {
      "inputs": [],
      "name": "FailedTransferFrom",
      "type": "error"
    },
    {
      "inputs": [],
      "name": "LivelinessError",
      "type": "error"
    },
    {
      "inputs": [
        {
          "internalType": "uint256",
          "name": "prod1",
          "type": "uint256"
        }
      ],
      "name": "PRBMath__MulDivFixedPointOverflow",
      "type": "error"
    },
    {
      "inputs": [
        {
          "internalType": "uint256",
          "name": "prod1",
          "type": "uint256"
        },
        {
          "internalType": "uint256",
          "name": "denominator",
          "type": "uint256"
        }
      ],
      "name": "PRBMath__MulDivOverflow",
      "type": "error"
    },
    {
      "inputs": [],
      "name": "PositionInvalidError",
      "type": "error"
    },
    {
      "inputs": [],
      "name": "SlippageError",
      "type": "error"
    },
    {
      "inputs": [],
      "name": "UnauthorizedError",
      "type": "error"
    },
    {
      "anonymous": false,
      "inputs": [
        {
          "indexed": true,
          "internalType": "uint256",
          "name": "tokenID",
          "type": "uint256"
        },
        {
          "indexed": false,
          "internalType": "uint256",
          "name": "amount",
          "type": "uint256"
        }
      ],
      "name": "Collect",
      "type": "event"
    },
    {
      "anonymous": false,
      "inputs": [
        {
          "indexed": true,
          "internalType": "uint256",
          "name": "tokenID",
          "type": "uint256"
        },
        {
          "indexed": false,
          "internalType": "uint256",
          "name": "liquidity",
          "type": "uint256"
        }
      ],
      "name": "DecreaseLiquidity",
      "type": "event"
    },
    {
      "anonymous": false,
      "inputs": [
        {
          "indexed": true,
          "internalType": "uint256",
          "name": "tokenID",
          "type": "uint256"
        },
        {
          "indexed": false,
          "internalType": "uint256",
          "name": "liquidity",
          "type": "uint256"
        },
        {
          "indexed": false,
          "internalType": "uint256",
          "name": "amount0",
          "type": "uint256"
        },
        {
          "indexed": false,
          "internalType": "uint256",
          "name": "amount1",
          "type": "uint256"
        }
      ],
      "name": "IncreaseLiquidity",
      "type": "event"
    },
    {
      "anonymous": false,
      "inputs": [
        {
          "indexed": true,
          "internalType": "address",
          "name": "operator",
          "type": "address"
        },
        {
          "indexed": true,
          "internalType": "uint256",
          "name": "tokenID",
          "type": "uint256"
        },
        {
          "indexed": false,
          "internalType": "uint256",
          "name": "liquidity",
          "type": "uint256"
        },
        {
          "indexed": false,
          "internalType": "uint256",
          "name": "amount0",
          "type": "uint256"
        },
        {
          "indexed": false,
          "internalType": "uint256",
          "name": "amount1",
          "type": "uint256"
        }
      ],
      "name": "Mint",
      "type": "event"
    },
    {
      "inputs": [],
      "name": "WETH9",
      "outputs": [
        {
          "internalType": "address",
          "name": "",
          "type": "address"
        }
      ],
      "stateMutability": "view",
      "type": "function"
    },
    {
      "inputs": [
        {
          "components": [
            {
              "internalType": "uint256",
              "name": "tokenID",
              "type": "uint256"
            },
            {
              "internalType": "address",
              "name": "recipient",
              "type": "address"
            },
            {
              "internalType": "uint256",
              "name": "amountRequested",
              "type": "uint256"
            }
          ],
          "internalType": "struct LiquidityManager.CollectParams",
          "name": "params",
          "type": "tuple"
        }
      ],
      "name": "collect",
      "outputs": [
        {
          "internalType": "uint256",
          "name": "amount",
          "type": "uint256"
        }
      ],
      "stateMutability": "payable",
      "type": "function"
    },
    {
      "inputs": [
        {
          "components": [
            {
              "internalType": "uint256",
              "name": "tokenID",
              "type": "uint256"
            },
            {
              "internalType": "uint256",
              "name": "liquidity",
              "type": "uint256"
            },
            {
              "internalType": "uint256",
              "name": "amount0Min",
              "type": "uint256"
            },
            {
              "internalType": "uint256",
              "name": "amount1Min",
              "type": "uint256"
            },
            {
              "internalType": "address",
              "name": "recipient",
              "type": "address"
            },
            {
              "internalType": "uint256",
              "name": "deadline",
              "type": "uint256"
            }
          ],
          "internalType": "struct LiquidityManager.DecreaseLiquidityParams",
          "name": "params",
          "type": "tuple"
        }
      ],
      "name": "decreaseLiquidity",
      "outputs": [],
      "stateMutability": "payable",
      "type": "function"
    },
    {
      "inputs": [],
      "name": "factory",
      "outputs": [
        {
          "internalType": "address",
          "name": "",
          "type": "address"
        }
      ],
      "stateMutability": "view",
      "type": "function"
    },
    {
      "inputs": [
        {
          "internalType": "uint256",
          "name": "tokenID",
          "type": "uint256"
        }
      ],
      "name": "getPosition",
      "outputs": [
        {
          "internalType": "address",
          "name": "operator",
          "type": "address"
        },
        {
          "internalType": "address",
          "name": "base",
          "type": "address"
        },
        {
          "internalType": "address",
          "name": "speculative",
          "type": "address"
        },
        {
          "internalType": "uint256",
          "name": "baseScaleFactor",
          "type": "uint256"
        },
        {
          "internalType": "uint256",
          "name": "speculativeScaleFactor",
          "type": "uint256"
        },
        {
          "internalType": "uint256",
          "name": "upperBound",
          "type": "uint256"
        },
        {
          "internalType": "uint256",
          "name": "liquidity",
          "type": "uint256"
        },
        {
          "internalType": "uint256",
          "name": "rewardPerLiquidityPaid",
          "type": "uint256"
        },
        {
          "internalType": "uint256",
          "name": "tokensOwed",
          "type": "uint256"
        }
      ],
      "stateMutability": "view",
      "type": "function"
    },
    {
      "inputs": [
        {
          "components": [
            {
              "internalType": "uint256",
              "name": "tokenID",
              "type": "uint256"
            },
            {
              "internalType": "uint256",
              "name": "amount0Min",
              "type": "uint256"
            },
            {
              "internalType": "uint256",
              "name": "amount1Min",
              "type": "uint256"
            },
            {
              "internalType": "uint256",
              "name": "liquidity",
              "type": "uint256"
            },
            {
              "internalType": "uint256",
              "name": "deadline",
              "type": "uint256"
            }
          ],
          "internalType": "struct LiquidityManager.IncreaseLiquidityParams",
          "name": "params",
          "type": "tuple"
        }
      ],
      "name": "increaseLiquidity",
      "outputs": [],
      "stateMutability": "payable",
      "type": "function"
    },
    {
      "inputs": [
        {
          "components": [
            {
              "internalType": "address",
              "name": "base",
              "type": "address"
            },
            {
              "internalType": "address",
              "name": "speculative",
              "type": "address"
            },
            {
              "internalType": "uint256",
              "name": "baseScaleFactor",
              "type": "uint256"
            },
            {
              "internalType": "uint256",
              "name": "speculativeScaleFactor",
              "type": "uint256"
            },
            {
              "internalType": "uint256",
              "name": "upperBound",
              "type": "uint256"
            },
            {
              "internalType": "uint256",
              "name": "amount0Min",
              "type": "uint256"
            },
            {
              "internalType": "uint256",
              "name": "amount1Min",
              "type": "uint256"
            },
            {
              "internalType": "uint256",
              "name": "liquidity",
              "type": "uint256"
            },
            {
              "internalType": "address",
              "name": "recipient",
              "type": "address"
            },
            {
              "internalType": "uint256",
              "name": "deadline",
              "type": "uint256"
            }
          ],
          "internalType": "struct LiquidityManager.MintParams",
          "name": "params",
          "type": "tuple"
        }
      ],
      "name": "mint",
      "outputs": [
        {
          "internalType": "uint256",
          "name": "tokenID",
          "type": "uint256"
        }
      ],
      "stateMutability": "payable",
      "type": "function"
    },
    {
      "inputs": [
        {
          "internalType": "bytes[]",
          "name": "data",
          "type": "bytes[]"
        }
      ],
      "name": "multicall",
      "outputs": [
        {
          "internalType": "bytes[]",
          "name": "results",
          "type": "bytes[]"
        }
      ],
      "stateMutability": "payable",
      "type": "function"
    },
    {
      "inputs": [],
      "name": "refundETH",
      "outputs": [],
      "stateMutability": "payable",
      "type": "function"
    },
    {
      "inputs": [
        {
          "components": [
            {
              "internalType": "address",
              "name": "base",
              "type": "address"
            },
            {
              "internalType": "address",
              "name": "speculative",
              "type": "address"
            },
            {
              "internalType": "uint256",
              "name": "baseScaleFactor",
              "type": "uint256"
            },
            {
              "internalType": "uint256",
              "name": "speculativeScaleFactor",
              "type": "uint256"
            },
            {
              "internalType": "uint256",
              "name": "upperBound",
              "type": "uint256"
            },
            {
              "internalType": "address",
              "name": "recipient",
              "type": "address"
            }
          ],
          "internalType": "struct LiquidityManager.SkimParams",
          "name": "params",
          "type": "tuple"
        }
      ],
      "name": "skim",
      "outputs": [],
      "stateMutability": "payable",
      "type": "function"
    },
    {
      "inputs": [
        {
          "internalType": "address",
          "name": "token",
          "type": "address"
        },
        {
          "internalType": "uint256",
          "name": "amountMinimum",
          "type": "uint256"
        },
        {
          "internalType": "address",
          "name": "recipient",
          "type": "address"
        }
      ],
      "name": "sweepToken",
      "outputs": [],
      "stateMutability": "payable",
      "type": "function"
    },
    {
      "inputs": [
        {
          "internalType": "uint256",
          "name": "amountMinimum",
          "type": "uint256"
        },
        {
          "internalType": "address",
          "name": "recipient",
          "type": "address"
        }
      ],
      "name": "unwrapWETH9",
      "outputs": [],
      "stateMutability": "payable",
      "type": "function"
    },
    {
      "stateMutability": "payable",
      "type": "receive"
    }
  ],
  "bytecode": {
    "object": "0x60c06040527601000000000000000000000000000000000000000000016003553480156200002c57600080fd5b5060405162003039380380620030398339810160408190526200004f9162000084565b6001600160a01b039081166080521660a052620000bc565b80516001600160a01b03811681146200007f57600080fd5b919050565b600080604083850312156200009857600080fd5b620000a38362000067565b9150620000b36020840162000067565b90509250929050565b60805160a051612ef662000143600039600081816102520152818161045c015281816104bb01528181610d3f0152818161116301528181611195015281816115f80152818161185b015261188f01526000818160da015281816101c001528181610a5c01528181610b70015281816123060152818161234c01526123fa0152612ef66000f3fe6080604052600436106100ca5760003560e01c8063ac9650d811610074578063dbd198481161004e578063dbd1984814610287578063df2ab5bb1461029a578063eb02c301146102ad57600080fd5b8063ac9650d814610220578063c45a015514610240578063cd321b401461027457600080fd5b80634aa4a4fc116100a55780634aa4a4fc146101ae5780637cbf88aa146101fa5780638b874f761461020d57600080fd5b8062ee087a1461016d57806312210e8a1461019357806349404b7c1461019b57600080fd5b3661016857336001600160a01b037f00000000000000000000000000000000000000000000000000000000000000001614610166576040517f08c379a000000000000000000000000000000000000000000000000000000000815260206004820152600960248201527f4e6f74205745544839000000000000000000000000000000000000000000000060448201526064015b60405180910390fd5b005b600080fd5b61018061017b3660046128ba565b610322565b6040519081526020015b60405180910390f35b610166610a19565b6101666101a93660046128e9565b610a2b565b3480156101ba57600080fd5b506101e27f000000000000000000000000000000000000000000000000000000000000000081565b6040516001600160a01b03909116815260200161018a565b610180610208366004612915565b610be3565b61016661021b366004612939565b610fc8565b61023361022e366004612955565b61147f565b60405161018a9190612a38565b34801561024c57600080fd5b506101e27f000000000000000000000000000000000000000000000000000000000000000081565b610166610282366004612939565b6115f1565b610166610295366004612ab8565b6116ff565b6101666102a8366004612aca565b611cf9565b3480156102b957600080fd5b506102cd6102c8366004612b06565b611e00565b604080516001600160a01b039a8b168152988a1660208a015296909816958701959095526060860193909352608085019190915260a084015260c083015260e08201526101008101919091526101200161018a565b600081610120013542811015610364576040517f0756982f00000000000000000000000000000000000000000000000000000000815260040160405180910390fd5b6003805475ffffffffffffffffffffffffffffffffffffffffffff1690600061038c83612b4e565b91906101000a81548175ffffffffffffffffffffffffffffffffffffffffffff021916908375ffffffffffffffffffffffffffffffffffffffffffff16021790555075ffffffffffffffffffffffffffffffffffffffffffff16915060006040518060a001604052808560000160208101906104089190612b83565b6001600160a01b031681526020018560200160208101906104299190612b83565b6001600160a01b0316815260200185604001358152602001856060013581526020018560800135815250905060006104b27f000000000000000000000000000000000000000000000000000000000000000086600001602081019061048e9190612b83565b61049e6040890160208a01612b83565b886040013589606001358a60800135611fb8565b9050600061050b7f00000000000000000000000000000000000000000000000000000000000000006104e76020890189612b83565b6104f760408a0160208b01612b83565b89604001358a606001358b608001356120fa565b9050600080826001600160a01b031663443cb4bc6040518163ffffffff1660e01b8152600401602060405180830381865afa15801561054e573d6000803e3d6000fd5b505050506040513d601f19601f820116820180604052508101906105729190612b9e565b836001600160a01b0316635a76f25e6040518163ffffffff1660e01b8152600401602060405180830381865afa1580156105b0573d6000803e3d6000fd5b505050506040513d601f19601f820116820180604052508101906105d49190612b9e565b6effffffffffffffffffffffffffffff1691506effffffffffffffffffffffffffffff1691506000836001600160a01b03166318160ddd6040518163ffffffff1660e01b8152600401602060405180830381865afa15801561063a573d6000803e3d6000fd5b505050506040513d601f19601f8201168201806040525081019061065e9190612bcf565b90506000808260000361067c57505060a089013560c08a01356106b5565b61068b858c60e00135856121fa565b610696906001612be8565b91506106a7848c60e00135856121fa565b6106b2906001612be8565b90505b8a60a001358210806106ca57508a60c0013581105b15610701576040517f1a840b4200000000000000000000000000000000000000000000000000000000815260040160405180910390fd5b61071961071160208d018d612b83565b338885612304565b61073461072c60408d0160208e01612b83565b338884612304565b6040517fa0712d6800000000000000000000000000000000000000000000000000000000815260e08c013560048201526001600160a01b0387169063a0712d6890602401600060405180830381600087803b15801561079257600080fd5b505af11580156107a6573d6000803e3d6000fd5b50506040517ff340fa010000000000000000000000000000000000000000000000000000000081523060048201526001600160a01b038a16925063f340fa019150602401600060405180830381600087803b15801561080457600080fd5b505af1158015610818573d6000803e3d6000fd5b505050506000610828888a61249d565b6040517f55f575100000000000000000000000000000000000000000000000000000000081523060048201529091506000906001600160a01b038a16906355f5751090602401606060405180830381865afa15801561088b573d6000803e3d6000fd5b505050506040513d601f19601f820116820180604052508101906108af9190612bfb565b509150506040518060a001604052808e60e001358152602001828152602001600081526020018369ffffffffffffffffffff1681526020018e6101000160208101906108fb9190612b83565b6001600160a01b0316815250600260008e815260200190815260200160002060008201518160000155602082015181600101556040820151816002015560608201518160030160006101000a81548169ffffffffffffffffffff021916908369ffffffffffffffffffff160217905550608082015181600301600a6101000a8154816001600160a01b0302191690836001600160a01b031602179055509050508b8d6101000160208101906109b09190612b83565b6001600160a01b03167f94c792774c59479f7bd68442f3af3691c02123a5aabee8b6f9116d8af8aa66698f60e001358787604051610a01939291909283526020830191909152604082015260600190565b60405180910390a35050505050505050505050919050565b4715610a2957610a2933476125e3565b565b6040517f70a082310000000000000000000000000000000000000000000000000000000081523060048201526000907f00000000000000000000000000000000000000000000000000000000000000006001600160a01b0316906370a0823190602401602060405180830381865afa158015610aab573d6000803e3d6000fd5b505050506040513d601f19601f82011682018060405250810190610acf9190612bcf565b905082811015610b3b576040517f08c379a000000000000000000000000000000000000000000000000000000000815260206004820152601260248201527f496e73756666696369656e742057455448390000000000000000000000000000604482015260640161015d565b8015610bde576040517f2e1a7d4d000000000000000000000000000000000000000000000000000000008152600481018290527f00000000000000000000000000000000000000000000000000000000000000006001600160a01b031690632e1a7d4d90602401600060405180830381600087803b158015610bbc57600080fd5b505af1158015610bd0573d6000803e3d6000fd5b50505050610bde82826125e3565b505050565b8035600090815260026020526040812060038101546a010000000000000000000090046001600160a01b03163314610c47576040517f8b5701f700000000000000000000000000000000000000000000000000000000815260040160405180910390fd5b600381015469ffffffffffffffffffff16600003610c91576040517f6a4de01900000000000000000000000000000000000000000000000000000000815260040160405180910390fd5b600080610ca46040860160208701612b83565b6001600160a01b031614610cc757610cc26040850160208601612b83565b610cc9565b305b60038084015469ffffffffffffffffffff166000908152600160208181526040808420815160a08101835281546001600160a01b039081168083529583015416938101849052600282015492810183905295810154606087018190526004909101546080870181905296975094959394610d68947f00000000000000000000000000000000000000000000000000000000000000009493929190611fb8565b9050806001600160a01b0316634fd9b90a6040518163ffffffff1660e01b8152600401600060405180830381600087803b158015610da557600080fd5b505af1158015610db9573d6000803e3d6000fd5b50506040517f55f57510000000000000000000000000000000000000000000000000000000008152306004820152600092506001600160a01b03841691506355f5751090602401606060405180830381865afa158015610e1d573d6000803e3d6000fd5b505050506040513d601f19601f82011682018060405250810190610e419190612bfb565b50915050610e628560000154866001015483610e5d9190612c29565b612628565b856002016000828254610e759190612be8565b9091555050600185018190556002850154604088013511610e9a578660400135610ea0565b84600201545b955085856002016000828254610eb69190612c29565b90915550506040517f6b8357ac0000000000000000000000000000000000000000000000000000000081526001600160a01b0385811660048301526024820188905260009190841690636b8357ac906044016020604051808303816000875af1158015610f27573d6000803e3d6000fd5b505050506040513d601f19601f82011682018060405250810190610f4b9190612bcf565b905086811015610f87576040517f8ad721cb00000000000000000000000000000000000000000000000000000000815260040160405180910390fd5b6040518781528835907f44ac423abde78f781d0bdf82a76bbe38aa71b9fa09289d4269e8e053bc532a899060200160405180910390a2505050505050919050565b8060a0013542811015611007576040517f0756982f00000000000000000000000000000000000000000000000000000000815260040160405180910390fd5b8135600090815260026020526040902060038101546a010000000000000000000090046001600160a01b0316331461106b576040517f8b5701f700000000000000000000000000000000000000000000000000000000815260040160405180910390fd5b600381015469ffffffffffffffffffff166000036110b5576040517f6a4de01900000000000000000000000000000000000000000000000000000000815260040160405180910390fd5b6000806110c860a0860160808701612b83565b6001600160a01b0316146110eb576110e660a0850160808601612b83565b6110ed565b305b60038084015469ffffffffffffffffffff166000908152600160208181526040808420815160a08101835281546001600160a01b03908116808352958301541693810184905260028201549281018390529581015460608701819052600490910154608087018190529697509495939461118c947f00000000000000000000000000000000000000000000000000000000000000009493929190611fb8565b905060006111d27f0000000000000000000000000000000000000000000000000000000000000000846000015185602001518660400151876060015188608001516120fa565b6040517f2e1a7d4d000000000000000000000000000000000000000000000000000000008152602089013560048201529091506001600160a01b03831690632e1a7d4d90602401600060405180830381600087803b15801561123357600080fd5b505af1158015611247573d6000803e3d6000fd5b50506040517f9dc29fac0000000000000000000000000000000000000000000000000000000081526001600160a01b03878116600483015260208b0135602483015260009350839250841690639dc29fac9060440160408051808303816000875af11580156112ba573d6000803e3d6000fd5b505050506040513d601f19601f820116820180604052508101906112de9190612c3c565b915091508860400135821015611320576040517f1a840b4200000000000000000000000000000000000000000000000000000000815260040160405180910390fd5b886060013581101561135e576040517f1a840b4200000000000000000000000000000000000000000000000000000000815260040160405180910390fd5b6040517f55f575100000000000000000000000000000000000000000000000000000000081523060048201526000906001600160a01b038616906355f5751090602401606060405180830381865afa1580156113be573d6000803e3d6000fd5b505050506040513d601f19601f820116820180604052508101906113e29190612bfb565b509150506113fe8860000154896001015483610e5d9190612c29565b8860020160008282546114119190612be8565b909155505060018801819055875460208b0135908990600090611435908490612c29565b90915550506040516020808c013582528b35917fdef4f5c5c7516369cb5aaa162fdf3f2c750a1c81c0fe3dfd9a47a97393cdafcf910160405180910390a250505050505050505050565b60608167ffffffffffffffff81111561149a5761149a612c60565b6040519080825280602002602001820160405280156114cd57816020015b60608152602001906001900390816114b85790505b50905060005b828110156115ea57600080308686858181106114f1576114f1612c8f565b90506020028101906115039190612cbe565b604051611511929190612d2a565b600060405180830381855af49150503d806000811461154c576040519150601f19603f3d011682016040523d82523d6000602084013e611551565b606091505b5091509150816115b75760448151101561156a57600080fd5b600481019050808060200190518101906115849190612d3a565b6040517f08c379a000000000000000000000000000000000000000000000000000000000815260040161015d9190612e05565b808484815181106115ca576115ca612c8f565b6020026020010181905250505080806115e290612e18565b9150506114d3565b5092915050565b60006116487f00000000000000000000000000000000000000000000000000000000000000006116246020850185612b83565b6116346040860160208701612b83565b8560400135866060013587608001356120fa565b905060008061165d60c0850160a08601612b83565b6001600160a01b0316146116805761167b60c0840160a08501612b83565b611682565b305b6040517fbc25cf770000000000000000000000000000000000000000000000000000000081526001600160a01b0380831660048301529192509083169063bc25cf7790602401600060405180830381600087803b1580156116e257600080fd5b505af11580156116f6573d6000803e3d6000fd5b50505050505050565b80608001354281101561173e576040517f0756982f00000000000000000000000000000000000000000000000000000000815260040160405180910390fd5b8135600090815260026020526040902060038101546a010000000000000000000090046001600160a01b031633146117a2576040517f8b5701f700000000000000000000000000000000000000000000000000000000815260040160405180910390fd5b600381015469ffffffffffffffffffff166000036117ec576040517f6a4de01900000000000000000000000000000000000000000000000000000000815260040160405180910390fd5b60038082015469ffffffffffffffffffff166000908152600160208181526040808420815160a08101835281546001600160a01b0390811680835295830154169381018490526002820154928101839052958101546060870181905260049091015460808701819052611886947f000000000000000000000000000000000000000000000000000000000000000094909390929091611fb8565b905060006118cc7f0000000000000000000000000000000000000000000000000000000000000000846000015185602001518660400151876060015188608001516120fa565b9050600080826001600160a01b031663443cb4bc6040518163ffffffff1660e01b8152600401602060405180830381865afa15801561190f573d6000803e3d6000fd5b505050506040513d601f19601f820116820180604052508101906119339190612b9e565b836001600160a01b0316635a76f25e6040518163ffffffff1660e01b8152600401602060405180830381865afa158015611971573d6000803e3d6000fd5b505050506040513d601f19601f820116820180604052508101906119959190612b9e565b6effffffffffffffffffffffffffffff1691506effffffffffffffffffffffffffffff1691506000836001600160a01b03166318160ddd6040518163ffffffff1660e01b8152600401602060405180830381865afa1580156119fb573d6000803e3d6000fd5b505050506040513d601f19601f82011682018060405250810190611a1f9190612bcf565b905060008082600003611a3d575050602089013560408a0135611a76565b611a4c858c60600135856121fa565b611a57906001612be8565b9150611a68848c60600135856121fa565b611a73906001612be8565b90505b8a60200135821080611a8b57508a6040013581105b15611ac2576040517f1a840b4200000000000000000000000000000000000000000000000000000000815260040160405180910390fd5b8751611ad090338885612304565b611ae08860200151338884612304565b6040517fa0712d6800000000000000000000000000000000000000000000000000000000815260608c013560048201526001600160a01b0387169063a0712d6890602401600060405180830381600087803b158015611b3e57600080fd5b505af1158015611b52573d6000803e3d6000fd5b50506040517ff340fa010000000000000000000000000000000000000000000000000000000081523060048201526001600160a01b038a16925063f340fa019150602401600060405180830381600087803b158015611bb057600080fd5b505af1158015611bc4573d6000803e3d6000fd5b50506040517f55f57510000000000000000000000000000000000000000000000000000000008152306004820152600092506001600160a01b038a1691506355f5751090602401606060405180830381865afa158015611c28573d6000803e3d6000fd5b505050506040513d601f19601f82011682018060405250810190611c4c9190612bfb565b50915050611c688a600001548b6001015483610e5d9190612c29565b8a6002016000828254611c7b9190612be8565b909155505060018a01819055895460608d0135908b90600090611c9f908490612be8565b9091555050604080516060808f01358252602082018690529181018490528d35917f2e7dc27fb130f4de8353da093b20c59786d52d4dc125134574eb8ddf23c033c5910160405180910390a2505050505050505050505050565b6040517f70a082310000000000000000000000000000000000000000000000000000000081523060048201526000906001600160a01b038516906370a0823190602401602060405180830381865afa158015611d59573d6000803e3d6000fd5b505050506040513d601f19601f82011682018060405250810190611d7d9190612bcf565b905082811015611de9576040517f08c379a000000000000000000000000000000000000000000000000000000000815260206004820152601260248201527f496e73756666696369656e7420746f6b656e0000000000000000000000000000604482015260640161015d565b8015611dfa57611dfa848383612634565b50505050565b6000818152600260208181526040808420815160a08101835281548152600182015493810193909352928301549082015260039091015469ffffffffffffffffffff8116606083018190526a01000000000000000000009091046001600160a01b03166080830152829182918291829182918291829182918203611eb0576040517f6a4de01900000000000000000000000000000000000000000000000000000000815260040160405180910390fd5b600060016000836060015169ffffffffffffffffffff1669ffffffffffffffffffff1681526020019081526020016000206040518060a00160405290816000820160009054906101000a90046001600160a01b03166001600160a01b03166001600160a01b031681526020016001820160009054906101000a90046001600160a01b03166001600160a01b03166001600160a01b03168152602001600282015481526020016003820154815260200160048201548152505090508160800151816000015182602001518360400151846060015185608001518760000151886020015189604001519a509a509a509a509a509a509a509a509a5050509193959799909294969850565b604080516001600160a01b038088166020830152861691810191909152606081018490526080810183905260a081018290526000908190889060c001604080517fffffffffffffffffffffffffffffffffffffffffffffffffffffffffffffffe08184030181529082905280516020918201206120b8939290917f489fbe59416f17c10f25751d18927fc407d6587491b66f2634b9068470c227bc91017fff00000000000000000000000000000000000000000000000000000000000000815260609390931b7fffffffffffffffffffffffffffffffffffffffff0000000000000000000000001660018401526015830191909152603582015260550190565b604080518083037fffffffffffffffffffffffffffffffffffffffffffffffffffffffffffffffe0018152919052805160209091012098975050505050505050565b604080516001600160a01b038088166020830152861691810191909152606081018490526080810183905260a081018290526000908190889060c001604080517fffffffffffffffffffffffffffffffffffffffffffffffffffffffffffffffe08184030181529082905280516020918201206120b8939290917f540dbc5265a46985a192ce701e6ceb46ad6944994803a036288976c72c25260391017fff00000000000000000000000000000000000000000000000000000000000000815260609390931b7fffffffffffffffffffffffffffffffffffffffff0000000000000000000000001660018401526015830191909152603582015260550190565b600080807fffffffffffffffffffffffffffffffffffffffffffffffffffffffffffffffff858709858702925082811083820303915050806000036122525783828161224857612248612e50565b04925050506122fd565b838110612295576040517f773cc18c000000000000000000000000000000000000000000000000000000008152600481018290526024810185905260440161015d565b600084868809851960019081018716968790049682860381900495909211909303600082900391909104909201919091029190911760038402600290811880860282030280860282030280860282030280860282030280860282030280860290910302029150505b9392505050565b7f00000000000000000000000000000000000000000000000000000000000000006001600160a01b0316846001600160a01b03161480156123455750804710155b15612471577f00000000000000000000000000000000000000000000000000000000000000006001600160a01b031663d0e30db0826040518263ffffffff1660e01b81526004016000604051808303818588803b1580156123a557600080fd5b505af11580156123b9573d6000803e3d6000fd5b50506040517fa9059cbb0000000000000000000000000000000000000000000000000000000081526001600160a01b038681166004830152602482018690527f000000000000000000000000000000000000000000000000000000000000000016935063a9059cbb925060440190506020604051808303816000875af1158015612447573d6000803e3d6000fd5b505050506040513d601f19601f8201168201806040525081019061246b9190612e7f565b50611dfa565b306001600160a01b038416036124915761248c848383612634565b611dfa565b611dfa848484846126be565b6001600160a01b03821660009081526020819052604081205469ffffffffffffffffffff16908190036125dd5760038054760100000000000000000000000000000000000000000000900469ffffffffffffffffffff1690601661250083612ea1565b82546101009290920a69ffffffffffffffffffff8181021990931691831602179091556001600160a01b0385811660009081526020818152604080832080547fffffffffffffffffffffffffffffffffffffffffffff00000000000000000000169587169586179055938252600180825291849020875181547fffffffffffffffffffffffff00000000000000000000000000000000000000009081169186169190911782559188015192810180549092169290931691909117905590840151600282015560608401516003820155608084015160049091015590505b92915050565b600080600080600085875af1905080610bde576040517fe293b56b00000000000000000000000000000000000000000000000000000000815260040160405180910390fd5b60006122fd838361275e565b60006040517fa9059cbb0000000000000000000000000000000000000000000000000000000081526001600160a01b03841660048201528260248201526000806044836000895af191505061268881612875565b611dfa576040517fbfa871c500000000000000000000000000000000000000000000000000000000815260040160405180910390fd5b60006040517f23b872dd0000000000000000000000000000000000000000000000000000000081526001600160a01b03851660048201526001600160a01b038416602482015282604482015260008060648360008a5af191505061272181612875565b612757576040517fa83c475400000000000000000000000000000000000000000000000000000000815260040160405180910390fd5b5050505050565b600080807fffffffffffffffffffffffffffffffffffffffffffffffffffffffffffffffff848609848602925082811083820303915050670de0b6b3a764000081106127d9576040517fd31b34020000000000000000000000000000000000000000000000000000000081526004810182905260240161015d565b600080670de0b6b3a764000086880991506706f05b59d3b1ffff82119050826000036128175780670de0b6b3a76400008504019450505050506125dd565b6204000082850304939091119091037d40000000000000000000000000000000000000000000000000000000000002919091177faccb18165bd6fe31ae1cf318dc5b51eee0e1ba569b88cd74c1773b91fac106690201905092915050565b600081612886573d6000803e3d6000fd5b3d6020811461289e5780156128af57600091506128b4565b3d6000803e600051151591506128b4565b600191505b50919050565b600061014082840312156128b457600080fd5b80356001600160a01b03811681146128e457600080fd5b919050565b600080604083850312156128fc57600080fd5b8235915061290c602084016128cd565b90509250929050565b6000606082840312156128b457600080fd5b600060c082840312156128b457600080fd5b600060c0828403121561294b57600080fd5b6122fd8383612927565b6000806020838503121561296857600080fd5b823567ffffffffffffffff8082111561298057600080fd5b818501915085601f83011261299457600080fd5b8135818111156129a357600080fd5b8660208260051b85010111156129b857600080fd5b60209290920196919550909350505050565b60005b838110156129e55781810151838201526020016129cd565b50506000910152565b60008151808452612a068160208601602086016129ca565b601f017fffffffffffffffffffffffffffffffffffffffffffffffffffffffffffffffe0169290920160200192915050565b6000602080830181845280855180835260408601915060408160051b870101925083870160005b82811015612aab577fffffffffffffffffffffffffffffffffffffffffffffffffffffffffffffffc0888603018452612a998583516129ee565b94509285019290850190600101612a5f565b5092979650505050505050565b600060a082840312156128b457600080fd5b600080600060608486031215612adf57600080fd5b612ae8846128cd565b925060208401359150612afd604085016128cd565b90509250925092565b600060208284031215612b1857600080fd5b5035919050565b7f4e487b7100000000000000000000000000000000000000000000000000000000600052601160045260246000fd5b600075ffffffffffffffffffffffffffffffffffffffffffff808316818103612b7957612b79612b1f565b6001019392505050565b600060208284031215612b9557600080fd5b6122fd826128cd565b600060208284031215612bb057600080fd5b81516effffffffffffffffffffffffffffff811681146122fd57600080fd5b600060208284031215612be157600080fd5b5051919050565b808201808211156125dd576125dd612b1f565b600080600060608486031215612c1057600080fd5b8351925060208401519150604084015190509250925092565b818103818111156125dd576125dd612b1f565b60008060408385031215612c4f57600080fd5b505080516020909101519092909150565b7f4e487b7100000000000000000000000000000000000000000000000000000000600052604160045260246000fd5b7f4e487b7100000000000000000000000000000000000000000000000000000000600052603260045260246000fd5b60008083357fffffffffffffffffffffffffffffffffffffffffffffffffffffffffffffffe1843603018112612cf357600080fd5b83018035915067ffffffffffffffff821115612d0e57600080fd5b602001915036819003821315612d2357600080fd5b9250929050565b8183823760009101908152919050565b600060208284031215612d4c57600080fd5b815167ffffffffffffffff80821115612d6457600080fd5b818401915084601f830112612d7857600080fd5b815181811115612d8a57612d8a612c60565b604051601f82017fffffffffffffffffffffffffffffffffffffffffffffffffffffffffffffffe0908116603f01168101908382118183101715612dd057612dd0612c60565b81604052828152876020848701011115612de957600080fd5b612dfa8360208301602088016129ca565b979650505050505050565b6020815260006122fd60208301846129ee565b60007fffffffffffffffffffffffffffffffffffffffffffffffffffffffffffffffff8203612e4957612e49612b1f565b5060010190565b7f4e487b7100000000000000000000000000000000000000000000000000000000600052601260045260246000fd5b600060208284031215612e9157600080fd5b815180151581146122fd57600080fd5b600069ffffffffffffffffffff808316818103612b7957612b79612b1f56fea26469706673582212200f74cd448cc99859dbaa062abcc642c3df00f981245d39cf54c53936ecdc734c64736f6c63430008110033",
    "linkReferences": {}
  },
  "methodIdentifiers": {
    "WETH9()": "4aa4a4fc",
    "collect((uint256,address,uint256))": "7cbf88aa",
    "decreaseLiquidity((uint256,uint256,uint256,uint256,address,uint256))": "8b874f76",
    "factory()": "c45a0155",
    "getPosition(uint256)": "eb02c301",
    "increaseLiquidity((uint256,uint256,uint256,uint256,uint256))": "dbd19848",
    "mint((address,address,uint256,uint256,uint256,uint256,uint256,uint256,address,uint256))": "00ee087a",
    "multicall(bytes[])": "ac9650d8",
    "refundETH()": "12210e8a",
    "skim((address,address,uint256,uint256,uint256,address))": "cd321b40",
    "sweepToken(address,uint256,address)": "df2ab5bb",
    "unwrapWETH9(uint256,address)": "49404b7c"
  },
  "id": 37
}