{
  "abi": [
    {
      "inputs": [],
      "stateMutability": "nonpayable",
      "type": "constructor"
    },
    {
      "inputs": [],
      "name": "BalanceReturnError",
      "type": "error"
    },
    {
      "inputs": [],
      "name": "BufferError",
      "type": "error"
    },
    {
      "inputs": [],
      "name": "FailedTransfer",
      "type": "error"
    },
    {
      "inputs": [],
      "name": "InsufficientInputError",
      "type": "error"
    },
    {
      "inputs": [],
      "name": "InsufficientOutputError",
      "type": "error"
    },
    {
      "inputs": [],
      "name": "InvariantError",
      "type": "error"
    },
    {
      "inputs": [],
      "name": "LendgineError",
      "type": "error"
    },
    {
      "inputs": [
        {
          "internalType": "uint256",
          "name": "prod1",
          "type": "uint256"
        }
      ],
      "name": "PRBMath__MulDivFixedPointOverflow",
      "type": "error"
    },
    {
      "inputs": [
        {
          "internalType": "uint256",
          "name": "prod1",
          "type": "uint256"
        },
        {
          "internalType": "uint256",
          "name": "denominator",
          "type": "uint256"
        }
      ],
      "name": "PRBMath__MulDivOverflow",
      "type": "error"
    },
    {
      "inputs": [],
      "name": "ReentrancyError",
      "type": "error"
    },
    {
      "inputs": [],
      "name": "SpeculativeInvariantError",
      "type": "error"
    },
    {
      "anonymous": false,
      "inputs": [
        {
          "indexed": true,
          "internalType": "address",
          "name": "sender",
          "type": "address"
        },
        {
          "indexed": false,
          "internalType": "uint256",
          "name": "amount0",
          "type": "uint256"
        },
        {
          "indexed": false,
          "internalType": "uint256",
          "name": "amount1",
          "type": "uint256"
        },
        {
          "indexed": false,
          "internalType": "uint256",
          "name": "liquidity",
          "type": "uint256"
        },
        {
          "indexed": true,
          "internalType": "address",
          "name": "to",
          "type": "address"
        }
      ],
      "name": "Burn",
      "type": "event"
    },
    {
      "anonymous": false,
      "inputs": [
        {
          "indexed": true,
          "internalType": "address",
          "name": "sender",
          "type": "address"
        },
        {
          "indexed": false,
          "internalType": "uint256",
          "name": "liquidity",
          "type": "uint256"
        }
      ],
      "name": "Mint",
      "type": "event"
    },
    {
      "anonymous": false,
      "inputs": [
        {
          "indexed": true,
          "internalType": "address",
          "name": "sender",
          "type": "address"
        },
        {
          "indexed": false,
          "internalType": "uint256",
          "name": "amount0Out",
          "type": "uint256"
        },
        {
          "indexed": false,
          "internalType": "uint256",
          "name": "amount1Out",
          "type": "uint256"
        },
        {
          "indexed": true,
          "internalType": "address",
          "name": "to",
          "type": "address"
        }
      ],
      "name": "Swap",
      "type": "event"
    },
    {
      "inputs": [
        {
          "internalType": "uint256",
          "name": "amount",
          "type": "uint256"
        }
      ],
      "name": "addBuffer",
      "outputs": [],
      "stateMutability": "nonpayable",
      "type": "function"
    },
    {
      "inputs": [],
      "name": "base",
      "outputs": [
        {
          "internalType": "address",
          "name": "",
          "type": "address"
        }
      ],
      "stateMutability": "view",
      "type": "function"
    },
    {
      "inputs": [],
      "name": "baseScaleFactor",
      "outputs": [
        {
          "internalType": "uint256",
          "name": "",
          "type": "uint256"
        }
      ],
      "stateMutability": "view",
      "type": "function"
    },
    {
      "inputs": [],
      "name": "buffer",
      "outputs": [
        {
          "internalType": "uint256",
          "name": "",
          "type": "uint256"
        }
      ],
      "stateMutability": "view",
      "type": "function"
    },
    {
      "inputs": [
        {
          "internalType": "address",
          "name": "to",
          "type": "address"
        },
        {
          "internalType": "uint256",
          "name": "liquidity",
          "type": "uint256"
        }
      ],
      "name": "burn",
      "outputs": [
        {
          "internalType": "uint256",
          "name": "",
          "type": "uint256"
        },
        {
          "internalType": "uint256",
          "name": "",
          "type": "uint256"
        }
      ],
      "stateMutability": "nonpayable",
      "type": "function"
    },
    {
      "inputs": [],
      "name": "factory",
      "outputs": [
        {
          "internalType": "address",
          "name": "",
          "type": "address"
        }
      ],
      "stateMutability": "view",
      "type": "function"
    },
    {
      "inputs": [],
      "name": "lendgine",
      "outputs": [
        {
          "internalType": "address",
          "name": "",
          "type": "address"
        }
      ],
      "stateMutability": "view",
      "type": "function"
    },
    {
      "inputs": [
        {
          "internalType": "uint256",
          "name": "liquidity",
          "type": "uint256"
        }
      ],
      "name": "mint",
      "outputs": [],
      "stateMutability": "nonpayable",
      "type": "function"
    },
    {
      "inputs": [
        {
          "internalType": "uint256",
          "name": "amount",
          "type": "uint256"
        }
      ],
      "name": "removeBuffer",
      "outputs": [],
      "stateMutability": "nonpayable",
      "type": "function"
    },
    {
      "inputs": [],
      "name": "reserve0",
      "outputs": [
        {
          "internalType": "uint120",
          "name": "",
          "type": "uint120"
        }
      ],
      "stateMutability": "view",
      "type": "function"
    },
    {
      "inputs": [],
      "name": "reserve1",
      "outputs": [
        {
          "internalType": "uint120",
          "name": "",
          "type": "uint120"
        }
      ],
      "stateMutability": "view",
      "type": "function"
    },
    {
      "inputs": [
        {
          "internalType": "address",
          "name": "to",
          "type": "address"
        }
      ],
      "name": "skim",
      "outputs": [],
      "stateMutability": "nonpayable",
      "type": "function"
    },
    {
      "inputs": [],
      "name": "speculative",
      "outputs": [
        {
          "internalType": "address",
          "name": "",
          "type": "address"
        }
      ],
      "stateMutability": "view",
      "type": "function"
    },
    {
      "inputs": [],
      "name": "speculativeScaleFactor",
      "outputs": [
        {
          "internalType": "uint256",
          "name": "",
          "type": "uint256"
        }
      ],
      "stateMutability": "view",
      "type": "function"
    },
    {
      "inputs": [
        {
          "internalType": "address",
          "name": "to",
          "type": "address"
        },
        {
          "internalType": "uint256",
          "name": "amount0Out",
          "type": "uint256"
        },
        {
          "internalType": "uint256",
          "name": "amount1Out",
          "type": "uint256"
        }
      ],
      "name": "swap",
      "outputs": [],
      "stateMutability": "nonpayable",
      "type": "function"
    },
    {
      "inputs": [],
      "name": "totalSupply",
      "outputs": [
        {
          "internalType": "uint256",
          "name": "",
          "type": "uint256"
        }
      ],
      "stateMutability": "view",
      "type": "function"
    },
    {
      "inputs": [],
      "name": "upperBound",
      "outputs": [
        {
          "internalType": "uint256",
          "name": "",
          "type": "uint256"
        }
      ],
      "stateMutability": "view",
      "type": "function"
    },
    {
      "inputs": [
        {
          "internalType": "uint256",
          "name": "r0",
          "type": "uint256"
        },
        {
          "internalType": "uint256",
          "name": "r1",
          "type": "uint256"
        },
        {
          "internalType": "uint256",
          "name": "shares",
          "type": "uint256"
        }
      ],
      "name": "verifyInvariant",
      "outputs": [
        {
          "internalType": "bool",
          "name": "valid",
          "type": "bool"
        }
      ],
      "stateMutability": "view",
      "type": "function"
    }
  ],
  "bytecode": {
    "object": "0x610160604052600280546001600160f01b0316600160f01b1790553480156200002757600080fd5b50336001600160a01b03166080816001600160a01b031681525050600080336001600160a01b0316636d9877ab6040518163ffffffff1660e01b815260040160c060405180830381865afa15801562000084573d6000803e3d6000fd5b505050506040513d601f19601f82011682018060405250810190620000aa919062000158565b610100526001600160a01b0392831660e05292821660c052921660a05290925090506012821180620000dc5750600682105b15620000fb57604051636819ba0560e01b815260040160405180910390fd5b60128111806200010b5750600681105b156200012a57604051636819ba0560e01b815260040160405180910390fd5b6101209190915261014052620001be565b80516001600160a01b03811681146200015357600080fd5b919050565b60008060008060008060c087890312156200017257600080fd5b6200017d876200013b565b95506200018d602088016200013b565b94506200019d604088016200013b565b9350606087015192506080870151915060a087015190509295509295509295565b60805160a05160c05160e051610100516101205161014051611b11620002826000396000818161024d01526105c2015260008181610171015261058101526000818161030c015281816105f30152818161063b01526106680152600081816103890152818161086b01528181610a6901528181610fb201526115250152600081816101d30152818161084001528181610a3801528181610f7601526113bb0152600081816102e5015281816104560152610e07015260006103590152611b116000f3fe608060405234801561001057600080fd5b50600436106101365760003560e01c80639f1d0f59116100b2578063bb9a590811610081578063c45a015511610066578063c45a015514610354578063edaafe201461037b578063ee1f21d81461038457600080fd5b8063bb9a59081461032e578063bc25cf771461034157600080fd5b80639f1d0f59146102ba578063a0712d68146102cd578063a39bfd13146102e0578063b09ad8a01461030757600080fd5b80635001f3b51161010957806387557ff7116100ee57806387557ff7146102485780639a4d5e211461026f5780639dc29fac1461029257600080fd5b80635001f3b5146101ce5780635a76f25e1461021a57600080fd5b806318160ddd1461013b57806322cf1989146101575780632faf67d61461016c578063443cb4bc14610193575b600080fd5b61014460005481565b6040519081526020015b60405180910390f35b61016a6101653660046117b0565b6103ab565b005b6101447f000000000000000000000000000000000000000000000000000000000000000081565b6002546101ae906effffffffffffffffffffffffffffff1681565b6040516effffffffffffffffffffffffffffff909116815260200161014e565b6101f57f000000000000000000000000000000000000000000000000000000000000000081565b60405173ffffffffffffffffffffffffffffffffffffffff909116815260200161014e565b6002546101ae906f0100000000000000000000000000000090046effffffffffffffffffffffffffffff1681565b6101447f000000000000000000000000000000000000000000000000000000000000000081565b61028261027d3660046117c9565b61056c565b604051901515815260200161014e565b6102a56102a0366004611819565b6106ec565b6040805192835260208301919091520161014e565b61016a6102c8366004611843565b610941565b61016a6102db3660046117b0565b610b8c565b6101f57f000000000000000000000000000000000000000000000000000000000000000081565b6101447f000000000000000000000000000000000000000000000000000000000000000081565b61016a61033c3660046117b0565b610d5c565b61016a61034f366004611876565b610e86565b6101f57f000000000000000000000000000000000000000000000000000000000000000081565b61014460015481565b6101f57f000000000000000000000000000000000000000000000000000000000000000081565b6002547e01000000000000000000000000000000000000000000000000000000000000900461ffff1660011461040d576040517f29f745a700000000000000000000000000000000000000000000000000000000815260040160405180910390fd5b600280547dffffffffffffffffffffffffffffffffffffffffffffffffffffffffffff167e020000000000000000000000000000000000000000000000000000000000001790557f000000000000000000000000000000000000000000000000000000000000000073ffffffffffffffffffffffffffffffffffffffff1633146104c3576040517fb3491a6e00000000000000000000000000000000000000000000000000000000815260040160405180910390fd5b6000546001546104d390836118c0565b111561050b576040517feecc2bbd00000000000000000000000000000000000000000000000000000000815260040160405180910390fd5b806001600082825461051d91906118c0565b9091555050600280547dffffffffffffffffffffffffffffffffffffffffffffffffffffffffffff167e0100000000000000000000000000000000000000000000000000000000000017905550565b6000806105ac61057c868561102a565b6105a77f0000000000000000000000000000000000000000000000000000000000000000600a6119f3565b61102a565b905060006105e86105bd868661102a565b6105a77f0000000000000000000000000000000000000000000000000000000000000000600a6119f3565b9050816000610617837f000000000000000000000000000000000000000000000000000000000000000061103f565b90506000600461062885600261104b565b6106329190611a2e565b905060006106617f0000000000000000000000000000000000000000000000000000000000000000600261104b565b905061068e7f00000000000000000000000000000000000000000000000000000000000000006002611a69565b8511156106c7576040517ff80926d800000000000000000000000000000000000000000000000000000000815260040160405180910390fd5b6106d181836118c0565b6106db84866118c0565b1496505050505050505b9392505050565b6000806002601e9054906101000a900461ffff1661ffff1660011461073d576040517f29f745a700000000000000000000000000000000000000000000000000000000815260040160405180910390fd5b600280547e020000000000000000000000000000000000000000000000000000000000007dffffffffffffffffffffffffffffffffffffffffffffffffffffffffffff82161791829055600080546effffffffffffffffffffffffffffff928316936f01000000000000000000000000000000900490921691906107c28488846110ab565b905060006107d18489856110ab565b9050811580156107df575080155b15610816576040517fd5ab59fe00000000000000000000000000000000000000000000000000000000815260040160405180910390fd5b61081f886111b4565b61083b61082c8387611a80565b6108368387611a80565b6111d7565b6108667f00000000000000000000000000000000000000000000000000000000000000008a84611263565b6108917f00000000000000000000000000000000000000000000000000000000000000008a83611263565b604080518381526020810183905290810189905273ffffffffffffffffffffffffffffffffffffffff8a169033907fd175a80c109434bb89948928ab2475a6647c94244cb70002197896423c8833639060600160405180910390a3600280547dffffffffffffffffffffffffffffffffffffffffffffffffffffffffffff167e01000000000000000000000000000000000000000000000000000000000000179055909890975095505050505050565b6002547e01000000000000000000000000000000000000000000000000000000000000900461ffff166001146109a3576040517f29f745a700000000000000000000000000000000000000000000000000000000815260040160405180910390fd5b600280547dffffffffffffffffffffffffffffffffffffffffffffffffffffffffffff167e02000000000000000000000000000000000000000000000000000000000000179055811580156109f6575080155b15610a2d576040517fd5ab59fe00000000000000000000000000000000000000000000000000000000815260040160405180910390fd5b8115610a5e57610a5e7f00000000000000000000000000000000000000000000000000000000000000008484611263565b8015610a8f57610a8f7f00000000000000000000000000000000000000000000000000000000000000008483611263565b600080610a9a611300565b91509150610aab828260005461056c565b610ae1576040517f6819ba0500000000000000000000000000000000000000000000000000000000815260040160405180910390fd5b610aeb82826111d7565b604080518581526020810185905273ffffffffffffffffffffffffffffffffffffffff87169133917f2a9237ff5aa599ef4c5ee4b1142b53429d5755e2685fe6288b2e3320202115f5910160405180910390a35050600280547dffffffffffffffffffffffffffffffffffffffffffffffffffffffffffff167e01000000000000000000000000000000000000000000000000000000000000179055505050565b6002547e01000000000000000000000000000000000000000000000000000000000000900461ffff16600114610bee576040517f29f745a700000000000000000000000000000000000000000000000000000000815260040160405180910390fd5b600280547dffffffffffffffffffffffffffffffffffffffffffffffffffffffffffff167e020000000000000000000000000000000000000000000000000000000000001790556000819003610c70576040517fd5ab59fe00000000000000000000000000000000000000000000000000000000815260040160405180910390fd5b600080610c7b611300565b91509150610c9282826000548661027d91906118c0565b610cc8576040517f6819ba0500000000000000000000000000000000000000000000000000000000815260040160405180910390fd5b610cd183611610565b610cdb82826111d7565b60405183815233907f0f6798a560793a54c3bcfe86a93cde1e73087d944c0ea20544137d41213968859060200160405180910390a25050600280547dffffffffffffffffffffffffffffffffffffffffffffffffffffffffffff167e0100000000000000000000000000000000000000000000000000000000000017905550565b6002547e01000000000000000000000000000000000000000000000000000000000000900461ffff16600114610dbe576040517f29f745a700000000000000000000000000000000000000000000000000000000815260040160405180910390fd5b600280547dffffffffffffffffffffffffffffffffffffffffffffffffffffffffffff167e020000000000000000000000000000000000000000000000000000000000001790557f000000000000000000000000000000000000000000000000000000000000000073ffffffffffffffffffffffffffffffffffffffff163314610e74576040517fb3491a6e00000000000000000000000000000000000000000000000000000000815260040160405180910390fd5b806001600082825461051d9190611a80565b6002547e01000000000000000000000000000000000000000000000000000000000000900461ffff16600114610ee8576040517f29f745a700000000000000000000000000000000000000000000000000000000815260040160405180910390fd5b600280547e020000000000000000000000000000000000000000000000000000000000007dffffffffffffffffffffffffffffffffffffffffffffffffffffffffffff821617918290556effffffffffffffffffffffffffffff908116916f01000000000000000000000000000000900416600080610f65611300565b9150915083821115610fa557610fa57f000000000000000000000000000000000000000000000000000000000000000086610fa08786611a80565b611263565b82811115610fdc57610fdc7f000000000000000000000000000000000000000000000000000000000000000086610fa08685611a80565b5050600280547dffffffffffffffffffffffffffffffffffffffffffffffffffffffffffff167e01000000000000000000000000000000000000000000000000000000000000179055505050565b60006106e583670de0b6b3a7640000846110ab565b60006106e58383611631565b600080826001161161106557670de0b6b3a7640000611067565b825b9050600182901c91505b81156110a5576110818384611631565b92506001821615611099576110968184611631565b90505b600182901c9150611071565b92915050565b600080807fffffffffffffffffffffffffffffffffffffffffffffffffffffffffffffffff85870985870292508281108382030391505080600003611103578382816110f9576110f96119ff565b04925050506106e5565b83811061114b576040517f773cc18c00000000000000000000000000000000000000000000000000000000815260048101829052602481018590526044015b60405180910390fd5b60008486880960026001871981018816978890046003810283188082028403028082028403028082028403028082028403028082028403029081029092039091026000889003889004909101858311909403939093029303949094049190911702949350505050565b80600160008282546111c69190611a80565b909155505060008054919091039055565b6111e082611748565b600280547fffffffffffffffffffffffffffffffffff000000000000000000000000000000166effffffffffffffffffffffffffffff9290921691909117905561122981611748565b6002600f6101000a8154816effffffffffffffffffffffffffffff02191690836effffffffffffffffffffffffffffff1602179055505050565b60006040517fa9059cbb00000000000000000000000000000000000000000000000000000000815273ffffffffffffffffffffffffffffffffffffffff841660048201528260248201526000806044836000895af19150506112c48161176b565b6112fa576040517fbfa871c500000000000000000000000000000000000000000000000000000000815260040160405180910390fd5b50505050565b604080518082018252601281527f62616c616e63654f662861646472657373290000000000000000000000000000602091820152815130602480830191909152835180830390910181526044909101835290810180517bffffffffffffffffffffffffffffffffffffffffffffffffffffffff167f70a082310000000000000000000000000000000000000000000000000000000017905290516000918291829160609173ffffffffffffffffffffffffffffffffffffffff7f000000000000000000000000000000000000000000000000000000000000000016916113e591611a93565b600060405180830381855afa9150503d8060008114611420576040519150601f19603f3d011682016040523d82523d6000602084013e611425565b606091505b509092509050811580611439575060208151105b15611470576040517f7613bc8900000000000000000000000000000000000000000000000000000000815260040160405180910390fd5b6000818060200190518101906114869190611ac2565b604080518082018252601281527f62616c616e63654f662861646472657373290000000000000000000000000000602091820152815130602480830191909152835180830390910181526044909101835290810180517bffffffffffffffffffffffffffffffffffffffffffffffffffffffff167f70a082310000000000000000000000000000000000000000000000000000000017905290519192507f000000000000000000000000000000000000000000000000000000000000000073ffffffffffffffffffffffffffffffffffffffff16916115659190611a93565b600060405180830381855afa9150503d80600081146115a0576040519150601f19603f3d011682016040523d82523d6000602084013e6115a5565b606091505b5090935091508215806115b9575060208251105b156115f0576040517f7613bc8900000000000000000000000000000000000000000000000000000000815260040160405180910390fd5b80828060200190518101906116059190611ac2565b945094505050509091565b8060008082825461162191906118c0565b9091555050600180549091019055565b600080807fffffffffffffffffffffffffffffffffffffffffffffffffffffffffffffffff848609848602925082811083820303915050670de0b6b3a764000081106116ac576040517fd31b340200000000000000000000000000000000000000000000000000000000815260048101829052602401611142565b600080670de0b6b3a764000086880991506706f05b59d3b1ffff82119050826000036116ea5780670de0b6b3a76400008504019450505050506110a5565b6204000082850304939091119091037d40000000000000000000000000000000000000000000000000000000000002919091177faccb18165bd6fe31ae1cf318dc5b51eee0e1ba569b88cd74c1773b91fac106690201905092915050565b806effffffffffffffffffffffffffffff8116811461176657600080fd5b919050565b60008161177c573d6000803e3d6000fd5b3d602081146117945780156117a557600091506117aa565b3d6000803e600051151591506117aa565b600191505b50919050565b6000602082840312156117c257600080fd5b5035919050565b6000806000606084860312156117de57600080fd5b505081359360208301359350604090920135919050565b803573ffffffffffffffffffffffffffffffffffffffff8116811461176657600080fd5b6000806040838503121561182c57600080fd5b611835836117f5565b946020939093013593505050565b60008060006060848603121561185857600080fd5b611861846117f5565b95602085013595506040909401359392505050565b60006020828403121561188857600080fd5b6106e5826117f5565b7f4e487b7100000000000000000000000000000000000000000000000000000000600052601160045260246000fd5b808201808211156110a5576110a5611891565b600181815b8085111561192c57817fffffffffffffffffffffffffffffffffffffffffffffffffffffffffffffffff0482111561191257611912611891565b8085161561191f57918102915b93841c93908002906118d8565b509250929050565b600082611943575060016110a5565b81611950575060006110a5565b816001811461196657600281146119705761198c565b60019150506110a5565b60ff84111561198157611981611891565b50506001821b6110a5565b5060208310610133831016604e8410600b84101617156119af575081810a6110a5565b6119b983836118d3565b807fffffffffffffffffffffffffffffffffffffffffffffffffffffffffffffffff048211156119eb576119eb611891565b029392505050565b60006106e58383611934565b7f4e487b7100000000000000000000000000000000000000000000000000000000600052601260045260246000fd5b600082611a64577f4e487b7100000000000000000000000000000000000000000000000000000000600052601260045260246000fd5b500490565b80820281158282048414176110a5576110a5611891565b818103818111156110a5576110a5611891565b6000825160005b81811015611ab45760208186018101518583015201611a9a565b506000920191825250919050565b600060208284031215611ad457600080fd5b505191905056fea2646970667358221220131906d9ae1455a8920c4019ef21067a4d7f7fff1513c977b1b2c531e0df745864736f6c63430008110033",
    "linkReferences": {}
  },
  "methodIdentifiers": {
    "addBuffer(uint256)": "22cf1989",
    "base()": "5001f3b5",
    "baseScaleFactor()": "2faf67d6",
    "buffer()": "edaafe20",
    "burn(address,uint256)": "9dc29fac",
    "factory()": "c45a0155",
    "lendgine()": "a39bfd13",
    "mint(uint256)": "a0712d68",
    "removeBuffer(uint256)": "bb9a5908",
    "reserve0()": "443cb4bc",
    "reserve1()": "5a76f25e",
    "skim(address)": "bc25cf77",
    "speculative()": "ee1f21d8",
    "speculativeScaleFactor()": "87557ff7",
    "swap(address,uint256,uint256)": "9f1d0f59",
    "totalSupply()": "18160ddd",
    "upperBound()": "b09ad8a0",
    "verifyInvariant(uint256,uint256,uint256)": "9a4d5e21"
  },
  "id": 23
}